S12300006720474345203230323580FD0DF85018B34E4555524F20564543544F5280008E76
S12300200053271BCE005E33C9074433C9000033C90000108EC880A6C0A7A0301F26F88E2E
S12100400002270A108EC8D36FA0301F26FABD05465D27068E0000BFCBFEBDF0003926
S123005EC601F7C81FC603F7C8207FC8217FC822C603F7C882C601F7C8847FC8867FC887B1
S123007EF6C880C102260CC603F7C883C601F7C88520067FC8837FC8857FC88839BD038908
S123009EBD05053947414D45204F5645528000504C4159455280003420327230E4BDF84FEB
S12300BEF6C8884F1F01E689C886E76830E4E668BD066531E48ECBEB341030A4BD066E32FF
S12300DE62C696E767BDF1AFBEC8CFAF69AE69BD0635BEC8D1AF6BAE6BBD063EBDF192BD91
S12300FE0658BDF2A5C6C0E7E28E00A25FBD060B3261C69CE7E28E00ADC614BD060B32614C
S123011EF6C8885C3404C628E7E2C614BD06F03262F6C8884F1F01E689C882E76DC669E733
S123013EE28EC0E2E66EBD06E73261BDF1BA6A676D67270AF6C811C4085D1027FF87326E67
S123015E35A0327FC601E7E2C603BD07513261F6C879F7C880F6C87AF7C881F6C80FC4086F
S119017E5D270ABD005EBD009B6FE42004C6FFE7E4E6E4326139C9
S123019482C3608202A082220AA22006E20018F8FFD000000010FF300000F010FF00D00039
S12301B4F000FF003001000000D300FFFB05FF010FFF0A07FF0A05FF2DFFFF05F6FF00F6EE
S12301D4FFFBF601000000D300FFFBFBFF01F1FF0AF9FF0AFBFF2D01FF050AFF000AFFFB19
S12301F40A010000BDF354C6FFD704C6F1E7E25FBD075F32618E01A1BDF410BDF3546FE25D
S12102145FBD075F32618E01BCBDF410BDF3546FE25FBD075F32618E01DABDF41039DA
S1230232F6C88B5AF7C88B3954494D45204C454654800047414D45204F5645528000C6C408
S1230252E7E28E023AC664BD060B3261F6C88BBD0565F6C88C5AF7C88CF6C88C5D2608BD79
S12102720232C603F7C88CF6C88B5D2610C6C4E7E28E0245C664BD060B326120F0394A
S1230290327C6F632032E663E761E6631D1F01E689C88DE762BD065FEB624F8E000A3410BA
S12302B01F01BD064732621F10E7E4E6611D1F01E6E4E789C88D6C63E663C1132FC83264E6
S10402D039F0
S12302D152454D454D42455220544845800053455155454E43458000327D6F6216008BC679
S12302F1C8F7C88BBDF192BD01F8C6B5E7E28E02D1C664BD060B3261C6CEE7E28E02DFC61F
S123031150BD060B3261E6624F1F01E689C88DBD05BAE6625C86643D4FEDE4C6C8E7E2AE30
S123033161C601BD06823261E6625C86643D4FEDE4C6C8E7E2AE61C602BD06823261E6626F
S12303515C86643D4FEDE4C6C8E7E2AE61C603BD06823261F6C8B55AF7C8B5F6C8B55D10BD
S122037126FF7CC61EF7C8B56C62F6C8B65CE16222E27FC8893263397FC88ABD02903994
S1230390327E6F6116005FE6614F1F01E689C88DE7E4E6614F1F01E689C8A1E1E4273CC693
S12303B0C4E7E28E0245C664BD060B3261E6614F1F01E689C88D3404C6CEE7E2C6BABD06EA
S12303D0F03262E6614F1F01E689C8A13404C6CEE7E2C6CEBD06F0326220C4E6614F1F01ED
S12303F06F89C8A16C61F6C8B65CE1611022FF97C601F7C889F6C8B65CF7C8B67FC8B7C6C9
S10A0410C8F7C88B32623902
S1230417327DBDF1F8F6C81BF7C8D3F6C81CF7C8D4F6C8D35D2C0BF6C8D45D2F05C601F78E
S1230437C8B8F6C8D35D260BF6C8D45D2F05C602F7C8B8F6C8D35D2F0BF6C8D45D2F05C68F
S123045703F7C8B8F6C8D35D2C0BF6C8D45D2605C604F7C8B8F6C8D35D260BF6C8D45D2653
S123047705C605F7C8B8F6C8D35D2F0BF6C8D45D2605C606F7C8B8F6C8D35D2C0BF6C8D4DE
S12304975D2C05C607F7C8B8F6C8D35D260BF6C8D45D2C05C608F7C8B8F6C8D35D2F0BF6CD
S12304B7C8D45D2C05C609F7C8B8F6C8B8BD05BABDF1BAF6C811C4015D2730F6C8B7E7E4CF
S12304D7F6C8B8E761E6E44F1F01E661E789C8A1F6C8B75CF7C8B7F6C8B6E7E4E6E45CE757
S12304F762F6C8B7E1622603BD0390326339327C2034BDF1AFBEC8CFAFE4AEE4BD0635BEF1
S1230517C8D1AF62AE62BD063EBDF192BD0658BDF2A5BD01F8F6C8895D2705BD02E9200602
S1220537BD0250BD0417F6C88A5D27C6326439327FBD0160E7E46DE427F7E6E4326139BA
S1120556002020FFE0E0002000FFE02001000073
S12305653279E7636F642040BDF354C67FD704F6C8CEE761E664E7E4E6E45858E7E4E6E42E
S123058550E762F6C8CDEB62E766E661E765E666E7E2E666BD075F3261E663D7046FE2C6AF
S12305A550BD074C32616C64E664C1022FBAC6FFD7043267393440327CE761BDF354C6FFD4
S12305C5D704C6EBE7E2C6FABD075F3261E6614F5849CEC8BA30CBE684E7E4E6614F584959
S12305E5CEC8B930CBE684E763E6E4E762E663E7E2E663BD075F3261C660D7048E0556BD29
S1230605F410326435C03279E762AFE4C6CCD70CC67FD704E662E766E669E765AEE4AF6352
S1230625E666E7E2AE64E666BD0677326132673934403384BDF92E35C034603384BDF68716
S123064535E0EC6226037EF0003410BD076432621F01393440BDF28935C0BDF5171F8939F3
S115066534401F98BDF85E35C03440EE64BDF8D835C004
S12306773440A6643384BDF37A35C03273E762AFE4E66258E763ECE4E764E6636C63E7681E
S1230697E664E767E668E7E2E668BD075A3261ECE41F894FE765E663E76AE665E769E66AF9
S12306B7E7E2E66ABD075A3261E662CB08E766E666E76CE66FE76BE66CE7E2E66CBD075A1C
S12306D73261C607E7E2C6F8BD075A3261326D393440A664BDF39335C03279E7E4C680E736
S12306F764C630E762C630E761200BE6615CE761E66ACB9CE76AE66AC16322EF200BE662E8
S12307175CE762E66ACBF6E76AE66AC10922EFE66ACB30E763C6CCD70CC67FD704E6E4E7B1
S123073766E669E7653061E666E7E2E666BD06773261326739A6627EF3DF3460A666BDF760
S1230757A935E0A6627EF256A6627EF312327D6F606C604D2B066C60584920F8ED61EC657B
S12307776F656F66A3612406E3611CFE20021A0169666965646166626A6026E8326339FE1E
S10E0797E8FEB6808000803F00018077
S9030000FC
