S12300006720474345203230323580FD0DF85018B34E4555524F20564543544F5280008E76
S1230020003D271BCE005E33C906EF33C9000033C90000108EC880A6C0A7A0301F26F88E9A
S12300400002270A108EC8BD6FA0301F26FABD05D05D27068E0000BFCBFEBDF000390000B0
S123006010F01000101000F000000010F0F0F000F010002020FFE0E0002000FFE02001005D
S1230080000018F8FFD000000010FF300000F010FF00D000F000FF003001000000D300FF7D
S12300A0FB05FF010FFF0A07FF0A05FF2DFFFF05F6FF00F6FFFBF601000000D300FFFBFB3C
S12300C0FF01F1FF0AF9FF0AFBFF2D01FF050AFF000AFFFB0A0100003440327CE761BDF3C2
S12300E054C6FFD704C6EBE7E2C6FABD070A3261E6614F5849CE005E30CBE684E7E4E66193
S12301004F5849CE005F30CBE684E763E6E4E762E663E7E2E663BD070A3261C660D7048EB1
S12301200072BDF410326435C0BDF354C6FFD704C6F1E7E25FBD070A32618E0081BDF41049
S1230140BDF3546FE25FBD070A32618E009CBDF410BDF3546FE25FBD070A32618E00BABD81
S1230160F41039327FE7E4BDF354C67FD704C646E7E2C6C4BD070A3261E6E4D7046FE2C622
S123018050BD07003261BDF354C67FD704C642E7E2C6C4BD070A3261E6E4D7046FE2C650C8
S12301A0BD07003261BDF354C67FD704C63EE7E2C6C4BD070A3261E6E4D7046FE2C650BD3F
S12301C007003261C6FFD704326139000010F01000101000F000000010F0F0F000F0100015
S12301E02020FFE0E0002000FFE0200100000018F8FFD000000010FF300000F010FF00D0EF
S123020000F000FF003001000000D300FFFB05FF010FFF0A07FF0A05FF2DFFFF05F6FF0097
S1230220F6FFFBF601000000D300FFFBFBFF01F1FF0AF9FF0AFBFF2D01FF050AFF000AFFD1
S1080240FB0A010000AF
S1230245BD0301BD058F5F39000010F01000101000F000000010F0F0F000F010002020FFAC
S1230265E0E0002000FFE0200100000018F8FFD000000010FF300000F010FF00D000F000B8
S1230285FF003001000000D300FFFB05FF010FFF0A07FF0A05FF2DFFFF05F6FF00F6FFFB12
S12302A5F601000000D300FFFBFBFF01F1FF0AF9FF0AFBFF2D01FF050AFF000AFFFB0A0136
S10502C5000033
S12302C7327D6F62202BE662E761E6621D1F01E689C8894F8E000A34101F01BD061C3262B5
S11D02E71F10E7E4E6611D1F01E6E4E789C8896C62E662C1132FCF3263393A
S10A0301BD02C77FC8B33938
S123030854494D45204C454654800047414D45204F5645528000C6C4E7E28E0308C664BD0E
S123032805E03261F6C8B5BD0163F6C8B65AF7C8B6F6C8B65D260CF6C8B55AF7C8B5C60355
S1230348F7C8B6F6C8B55D2610C6C4E7E28E0313C664BD05E0326120F03952454D454D42BF
S1230368455220544845800053455155454E43458000327D6F6216008BC6C8F7C8B5BDF1AF
S123038892BD0129C6B5E7E28E0362C664BD05E03261C6CEE7E28E0370C650BD05E0326199
S12303A8E6624F1F01E689C889BD00D8E6625C86643D4FEDE4C6C8E7E2AE61C601BD063F0B
S12303C83261E6625C86643D4FEDE4C6C8E7E2AE61C602BD063F3261E6625C86643D4FEDC9
S12303E8E4C6C8E7E2AE61C603BD063F3261F6C8B15AF7C8B1F6C8B15D1026FF7CC61EF7B8
S1150408C8B16C62F6C8B25CE16222E27FC8B4326339BB
S123041A327E6F6116005FE6614F1F01E689C889E7E4E6614F1F01E689C89DE1E4273CC610
S123043AC4E7E28E0313C664BD05E03261E6614F1F01E689C8893404C6CEE7E2C6BABD06C0
S123045AA43262E6614F1F01E689C89D3404C6CEE7E2C6CEBD06A4326220C4E6614F1F01FE
S123047A6F89C89D6C61F6C8B25CE1611022FF97C601F7C8B4F6C8B25CF7C8B27FC8B7C623
S10A049AC8F7C8B53262394E
S12304A1327DBDF1F8F6C81BF7C8BDF6C81CF7C8BEF6C8BD5D2C0BF6C8BE5D2F05C601F75C
S12304C1C8B8F6C8BD5D260BF6C8BE5D2F05C602F7C8B8F6C8BD5D2F0BF6C8BE5D2F05C65D
S12304E103F7C8B8F6C8BD5D2C0BF6C8BE5D2605C604F7C8B8F6C8BD5D260BF6C8BE5D2621
S123050105C605F7C8B8F6C8BD5D2F0BF6C8BE5D2605C606F7C8B8F6C8BD5D2C0BF6C8BEAB
S12305215D2C05C607F7C8B8F6C8BD5D260BF6C8BE5D2C05C608F7C8B8F6C8BD5D2F0BF684
S1230541C8BE5D2C05C609F7C8B8F6C8B8BD00D8BDF1BAF6C811C4015D2730F6C8B7E7E441
S1230561F6C8B8E761E6E44F1F01E661E789C89DF6C8B75CF7C8B7F6C8B2E7E4E6E45CE7D4
S123058162F6C8B7E1622603BD041A326339327C2034BDF1AFBEC8B9AFE4AEE4BD060ABE1C
S12305A1C8BBAF62AE62BD0613BDF192BD062DBDF2A5BD0129F6C8B45D2705BD037A2006F6
S12305C1BD031EBD04A1F6C8B35D27C6326439327FBD0245E7E46DE427F7E6E43261393295
S12305E179E762AFE4C6CCD70CC67FD704E662E766E669E765AEE4AF63E666E7E2AE64E62B
S123060166BD0634326132673934403384BDF92E35C034603384BDF68735E0EC6226037E80
S1160621F0003410BD070F32621F01393440BDF28935C02D
S12306343440A6643384BDF37A35C03273E762AFE4E66258E763ECE4E764E6636C63E76861
S1230654E664E767E668E7E2E668BD07053261ECE41F894FE765E663E76AE665E769E66A91
S1230674E7E2E66ABD07053261E662CB08E766E666E76CE66FE76BE66CE7E2E66CBD070509
S12306943261C607E7E2C6F8BD07053261326D393279E7E4C680E764C630E762C630E761A3
S12306B4200BE6615CE761E66ACB9CE76AE66AC16322EF200BE6625CE762E66ACBF6E76A05
S12306D4E66AC10922EFE66ACB30E763C6CCD70CC67FD704E6E4E766E669E7653061E6661E
S12306F4E7E2E666BD06343261326739A6627EF3DFA6627EF256A6627EF312327D6F606CD6
S1230714604D2B066C60584920F8ED61EC656F656F66A3612406E3611CFE20021A0169667E
S11C07346965646166626A6026E8326339FEE8FEB6808000803F000180CD
S9030000FC
