S12300006720474345203230323580FD0DF85018B34E4555524F20564543544F5280008E76
S12300200055271BCE005E33C9071B33C9000033C90000108EC880A6C0A7A0301F26F88E55
S12100400002270A108EC8D56FA0301F26FABD05D85D27068E0000BFCBFEBDF0003992
S123005E002020FFE0E0002000FFE0200100003440327CE761BDF354C6FFD704C6EBE7E2D7
S123007EC6FABD07363261E6614F5849CEC88230CBE684E7E4E6614F5849CEC88330CBE661
S123009E84E763E6E4E762E663E7E2E663BD07363261C660D7048E005EBDF410326435C03C
S12300BE0018F8FFD000000010FF300000F010FF00D000F000FF003001000000D300FFFB44
S12300DE05FF010FFF0A07FF0A05FF2DFFFF05F6FF00F6FFFBF601000000D300FFFBFBFFFA
S12300FE01F1FF0AF9FF0AFBFF2D01FF050AFF000AFFFB0A010000BDF354C6FFD704C6F142
S123011EE7E25FBD073632618E00BEBDF410BDF3546FE25FBD073632618E00D9BDF410BDD5
S123013EF3546FE25FBD073632618E00F7BDF41039327CE7616F622032BDF354C67FD7045D
S123015EE662E7E4E6E45858E7E4E6E450CB46E763E663E7E2C6C4BD07363261E661D70465
S11B017E6FE2C650BD072332616C62E662C1022FC8C6FFD70432643945
S1230196C601F7C81FC603F7C8207FC8217FC822C603F7C89AC601F7C89C7FC89E7FC89F18
S12301B6F6C898C102260CC603F7C89BC601F7C89D20067FC89B7FC89D7FC8A039BD0309BF
S12301D6BD05973947414D45204F5645528000504C4159455280003420327230E4BDF84F20
S12301F6F6C8A04F1F01E689C89EE76830E4E668BD063C31E48ECBEB341030A4BD064532E8
S123021662C696E767BDF1AFBEC8D1AF69AE69BD0612BEC8D3AF6BAE6BBD061BBDF192BD99
S12302360635BDF2A5C6C0E7E28E01DA5FBD05E83261C69CE7E28E01E5C614BD05E832610B
S1230256F6C8A05C3404C628E7E2C614BD06C73262F6C8A04F1F01E689C89AE76DC669E7DB
S1230276E28EC0E2E66EBD06BE3261BDF1BA6A676D67270AF6C811C4085D1027FF87326E57
S123029635A0327FC601E7E2C603BD07283261F6C879F7C898F6C87AF7C899F6C80FC4082F
S11C02B65D270DBD0196BD0309BD05976FE42004C6FFE7E4E6E432613987
S12302CF327D6F62202BE662E761E6621D1F01E689C8A34F8E000A34101F01BD062432628B
S11D02EF1F10E7E4E6611D1F01E6E4E789C8A36C62E662C1132FCF32633918
S10A0309BD02CF7FC8CD390E
S123031054494D45204C454654800047414D45204F5645528000C6C4E7E28E0310C664BDFE
S123033005E83261F6C8A1BD014FF6C8A25AF7C8A2F6C8A25D260CF6C8A15AF7C8A1C603D1
S1230350F7C8A2F6C8A15D2610C6C4E7E28E031BC664BD05E8326120F03952454D454D42CF
S1230370455220544845800053455155454E43458000327D6F6216008BC6C8F7C8A1BDF1BB
S123039092BD0115C6B5E7E28E036AC664BD05E83261C6CEE7E28E0378C650BD05E8326185
S12303B0E6624F1F01E689C8A3BD006DE6625C86643D4FEDE4C6C8E7E2AE61C601BD06593A
S12303D03261E6625C86643D4FEDE4C6C8E7E2AE61C602BD06593261E6625C86643D4FEDA7
S12303F0E4C6C8E7E2AE61C603BD06593261F6C8CB5AF7C8CBF6C8CB5D1026FF7CC61EF748
S1150410C8CB6C62F6C8CC5CE16222E27FC8CE32633965
S1230422327E6F6116005FE6614F1F01E689C8A3E7E4E6614F1F01E689C8B7E1E4273CC6D4
S1230442C4E7E28E031BC664BD05E83261E6614F1F01E689C8A33404C6CEE7E2C6BABD068E
S1230462C73262E6614F1F01E689C8B73404C6CEE7E2C6CEBD06C7326220C4E6614F1F0196
S12304826F89C8B76C61F6C8CC5CE1611022FF97C601F7C8CEF6C8CC5CF7C8CC7FC8CFC681
S10A04A2C8F7C8A13262395A
S12304A9327DBDF1F8F6C81BF7C8D5F6C81CF7C8D6F6C8D55D2C0BF6C8D65D2F05C601F7F4
S12304C9C8D0F6C8D55D260BF6C8D65D2F05C602F7C8D0F6C8D55D2F0BF6C8D65D2F05C6C5
S12304E903F7C8D0F6C8D55D2C0BF6C8D65D2605C604F7C8D0F6C8D55D260BF6C8D65D2689
S123050905C605F7C8D0F6C8D55D2F0BF6C8D65D2605C606F7C8D0F6C8D55D2C0BF6C8D613
S12305295D2C05C607F7C8D0F6C8D55D260BF6C8D65D2C05C608F7C8D0F6C8D55D2F0BF604
S1230549C8D65D2C05C609F7C8D0F6C8D0BD006DBDF1BAF6C811C4015D2730F6C8CFE7E444
S1230569F6C8D0E761E6E44F1F01E661E789C8B7F6C8CF5CF7C8CFF6C8CCE7E4E6E45CE750
S123058962F6C8CFE1622603BD0422326339327C2034BDF1AFBEC8D1AFE4AEE4BD0612BED4
S12305A9C8D3AF62AE62BD061BBDF192BD0635BDF2A5BD0115F6C8CE5D2705BD03822006B8
S12305C9BD0326BD04A9F6C8CD5D27C6326439327FBD0298E7E46DE427F7E6E43261393210
S12305E979E762AFE4C6CCD70CC67FD704E662E766E669E765AEE4AF63E666E7E2AE64E623
S123060966BD064E326132673934403384BDF92E35C034603384BDF68735E0EC6226037E5E
S1230629F0003410BD073B32621F01393440BDF28935C034401F98BDF85E35C03440EE64F3
S1080649BDF8D835C026
S123064E3440A6643384BDF37A35C03273E762AFE4E66258E763ECE4E764E6636C63E76847
S123066EE664E767E668E7E2E668BD07313261ECE41F894FE765E663E76AE665E769E66A4B
S123068EE7E2E66ABD07313261E662CB08E766E666E76CE66FE76BE66CE7E2E66CBD073197
S12306AE3261C607E7E2C6F8BD07313261326D393440A664BDF39335C03279E7E4C680E788
S12306CE64C630E762C630E761200BE6615CE761E66ACB9CE76AE66AC16322EF200BE66211
S12306EE5CE762E66ACBF6E76AE66AC10922EFE66ACB30E763C6CCD70CC67FD704E6E4E7DB
S123070E66E669E7653061E666E7E2E666BD064E3261326739A6627EF3DF3460A666BDF7B2
S123072EA935E0A6627EF256A6627EF312327D6F606C604D2B066C60584920F8ED61EC65A4
S123074E6F656F66A3612406E3611CFE20021A0169666965646166626A6026E8326339FE47
S10E076EE8FEB6808000803F000180A0
S9030000FC
