S12300006720474345203230323580FD0DF85018B34E4555524F20564543544F5280008E76
S12300200053271BCE005E33C906ED33C9000033C90000108EC880A6C0A7A0301F26F88E86
S12100400002270A108EC8D36FA0301F26FABD04F05D27068E0000BFCBFEBDF000397D
S123005EC601F7C81FC603F7C8207FC8217FC822C603F7C882C601F7C8847FC8867FC887B1
S123007EF6C880C102260CC603F7C883C601F7C88520067FC8837FC8857FC88839BD03335E
S123009EBD04AF3947414D45204F5645528000504C4159455280003420327230E4BDF84F42
S12300BEF6C8884F1F01E689C886E76830E4E668BD060431E48ECBEB341030A4BD060D32C1
S12300DE62C696E767BDF1AFBEC8CFAF69AE69BD05D4BEC8D1AF6BAE6BBD05DDBDF192BD55
S12300FE05F7BDF2A5C6C0E7E28E00A25FBD05AA3261C69CE7E28E00ADC614BD05AA326172
S123011EF6C8885C3404C628E7E2C614BD06993262F6C8884F1F01E689C882E76DC669E78A
S123013EE28EC0E2E66EBD06863261BDF1BA6A676D67270AF6C811C4085D1027FF87326EC8
S123015E35A0327FC601E7E2C603BD06FA3261F6C879F7C880F6C87AF7C881F6C80FC408C7
S119017E5D270ABD005EBD009B6FE42004C6FFE7E4E6E4326139C9
S123019482C3608202A082220AA22006BDF354C60AE7E2C6E2BD070832618EFFA1E684C10B
S12301B4202613C6FFD7048E019434108E0000BD068F32622011C6FFD7048E019434108E8D
S10B01D40000BD068F32623900
S12301DCF6C88B5AF7C88B3954494D45204C454654800047414D45204F5645528000C6C45F
S12301FCE7E28E01E4C664BD05AA3261F6C88BBD050FF6C88C5AF7C88CF6C88C5D2608BDDF
S121021C01DCC603F7C88CF6C88B5D2610C6C4E7E28E01EFC664BD05AA326120F039B0
S123023A327C6F632032E663E761E6631D1F01E689C88DE762BD05FEEB624F8E000A341072
S123025A1F01BD05E632621F10E7E4E6611D1F01E6E4E789C88D6C63E663C1132FC832649E
S104027A3946
S123027B52454D454D42455220544845800053455155454E43458000327D6F6216008BC6CF
S123029BC8F7C88BBDF192BD01A0C6B5E7E28E027BC664BD05AA3261C6CEE7E28E0289C6DB
S12302BB50BD05AA3261E6624F1F01E689C88DBD0564E6625C86643D4FEDE4C6C8E7E2AE3F
S12302DB61C601BD06213261E6625C86643D4FEDE4C6C8E7E2AE61C602BD06213261E66288
S12302FB5C86643D4FEDE4C6C8E7E2AE61C603BD06213261F6C8B55AF7C8B5F6C8B55D1075
S122031B26FF7CC61EF7C8B56C62F6C8B65CE16222E27FC8893263397FC88ABD023A3940
S123033A327E6F6116005FE6614F1F01E689C88DE7E4E6614F1F01E689C8A1E1E4273CC6E9
S123035AC4E7E28E01EFC664BD05AA3261E6614F1F01E689C88D3404C6CEE7E2C6BABD06F9
S123037A993262E6614F1F01E689C8A13404C6CEE7E2C6CEBD0699326220C4E6614F1F01F1
S123039A6F89C8A16C61F6C8B65CE1611022FF97C601F7C889F6C8B65CF7C8B67FC8B7C61F
S10A03BAC8F7C88B32623959
S12303C1327DBDF1F8F6C81BF7C8D3F6C81CF7C8D4F6C8D35D2C0BF6C8D45D2F05C601F7E5
S12303E1C8B8F6C8D35D260BF6C8D45D2F05C602F7C8B8F6C8D35D2F0BF6C8D45D2F05C6E6
S123040103F7C8B8F6C8D35D2C0BF6C8D45D2605C604F7C8B8F6C8D35D260BF6C8D45D26A9
S123042105C605F7C8B8F6C8D35D2F0BF6C8D45D2605C606F7C8B8F6C8D35D2C0BF6C8D434
S12304415D2C05C607F7C8B8F6C8D35D260BF6C8D45D2C05C608F7C8B8F6C8D35D2F0BF623
S1230461C8D45D2C05C609F7C8B8F6C8B8BD0564BDF1BAF6C811C4015D2730F6C8B7E7E47B
S1230481F6C8B8E761E6E44F1F01E661E789C8A1F6C8B75CF7C8B7F6C8B6E7E4E6E45CE7AD
S12304A162F6C8B7E1622603BD033A326339327C2034BDF1AFBEC8CFAFE4AEE4BD05D4BEFF
S12304C1C8D1AF62AE62BD05DDBDF192BD05F7BDF2A5BD01A0F6C8895D2705BD02932006CB
S12204E1BD01FABD03C1F6C88A5D27C6326439327FBD0160E7E46DE427F7E6E4326139BF
S1120500002020FFE0E0002000FFE020010000C9
S123050F3279E7636F642040BDF354C67FD704F6C8CEE761E664E7E4E6E45858E7E4E6E484
S123052F50E762F6C8CDEB62E766E661E765E666E7E2E666BD07083261E663D7046FE2C65C
S123054F50BD06F532616C64E664C1022FBAC6FFD7043267393440327CE761BDF354C67F02
S123056FD704E6614F5849CEC8BA30CBE684E7E4E6614F5849CEC8B930CBE684E763E6E4D7
S123058FE762E663E7E2E663BD07083261C622D7048E0500BDF410326435C03279E762AF00
S12305AFE4C6CCD70CC67FD704E662E766E669E765AEE4AF63E666E7E2AE64E666BD06168F
S12305CF326132673934403384BDF92E35C034603384BDF68735E0EC6226037EF0003410DC
S12305EFBD070D32621F01393440BDF28935C0BDF5171F893934401F98BDF85E35C0344038
S10A060FEE64BDF8D835C00C
S12306163440A6643384BDF37A35C03273E762AFE4E66258E763ECE4E764E6636C63E7687F
S1230636E664E767E668E7E2E668BD07033261ECE41F894FE765E663E76AE665E769E66AB1
S1230656E7E2E66ABD07033261E662CB08E766E666E76CE66FE76BE66CE7E2E66CBD07032B
S12306763261C607E7E2C6F8BD07033261326D393440A664BDF39335C0342010AE64BDFF5F
S12306969F35A03279E7E4C680E764C630E762C630E761200BE6615CE761E66ACB9CE76A2A
S12306B6E66AC16322EF200BE6625CE762E66ACBF6E76AE66AC10922EFE66ACB30E763C69B
S12306D6CCD70CC67FD704E6E4E766E669E7653061E666E7E2E666BD06163261326739A6A9
S12306F6627EF3DF3460A666BDF7A935E0A6627EF256A6627EF312327D6F606C604D2B06FB
S12307166C60584920F8ED61EC656F656F66A3612406E3611CFE20021A01696669656461C7
S118073666626A6026E8326339FEE8FEB6808000803F00018062
S9030000FC
