S12300006720474345203230323580FD0DF85018B34E4555524F20564543544F5280008E76
S12300200040271BCE005E33C90ADD33C9000033C90000108EC880A6C0A7A0301F26F88EA5
S12300400002270A108EC8C06FA0301F26FABD0A1A5D27068E0000BFCBFEBDF0003900005E
S123006010F01000101000F000000010F0F0F000F010C4DDC4E7C4F1C4FBC405C40FC41943
S1230080C423BADDBAE7BAF1BAFBBA05BA0FBA19BA23002020FFE0E0002000FFE020010086
S12300A000001020FFE0E0002000FFE020010000002010FFE000001010FF00E0010000001E
S12300C018F8FFD000000010FF300000F010FF00D000F000FF003001000000D300FFFB053D
S12300E0FF010FFF0A07FF0A05FF2DFFFF05F6FF00F6FFFBF601000000D300FFFBFBFF01FC
S1230100F1FF0AF9FF0AFBFF2D01FF050AFF000AFFFB0A0100003CC928C9000400FFF60AA2
S1230120FFF6F6000A0AFF00EC0100003440327CE761BDF354C6FFD704C6EBE7E2C6FABDCB
S12301400AF83261E6614F5849CE005F30CBE684E7E4E6614F5849CE005E30CBE684E76360
S1230160E6E4E762E663E7E2E663BD0AF83261C660D7048E0092BDF410326435C0344032A8
S12301807CE761BDF354C6FFD704E6614F5849CE007330CBE684E7E4E6614F5849CE0072D4
S12301A030CBE684E763E6E4E762E663E7E2E663BD0AF83261C620D7048E0092BDF41032F8
S12301C06435C03440327CE761BDF354C6FFD704E6614F5849CE007330CBE684E7E4E661C5
S12301E04F5849CE007230CBE684E763E6E4E762E663E7E2E663BD0AF83261C620D7048E0D
S123020000B0BDF410326435C0BDF354C6FFD704C6F1E7E25FBD0AF832618E00BFBDF410FB
S1230220BDF3546FE25FBD0AF832618E00DABDF410BDF3546FE25FBD0AF832618E00F8BD42
S1230240F41039327FE7E4BDF354C67FD704C646E7E2C6C4BD0AF83261E6E4D7046FE2C650
S123026050BD0AEE3261BDF354C67FD704C642E7E2C6C4BD0AF83261E6E4D7046FE2C65005
S1230280BD0AEE3261BDF354C67FD704C63EE7E2C6C4BD0AF83261E6E4D7046FE2C650BD7C
S12302A00AEE3261C6FFD7043261393440327CE761BDF354C67FD704E6611D5849CE0117CA
S12302C030CBE684E7E4E6611D5849CE011630CBE684E763E6E4E762E663E7E2E663BD0A1C
S12302E0F83261C660D7048E011ABDF410326435C0000010F01000101000F000000010F059
S1230300F0F000F010C4DDC4E7C4F1C4FBC405C40FC419C423BADDBAE7BAF1BAFBBA05BAC8
S12303200FBA19BA23002020FFE0E0002000FFE020010000001020FFE0E0002000FFE020CD
S1230340010000002010FFE000001010FF00E00100000018F8FFD000000010FF300000F07B
S123036010FF00D000F000FF003001000000D300FFFB05FF010FFF0A07FF0A05FF2DFFFF51
S123038005F6FF00F6FFFBF601000000D300FFFBFBFF01F1FF0AF9FF0AFBFF2D01FF050A7E
S12203A0FF000AFFFB0A0100003CC928C9000400FFF60AFFF6F6000A0AFF00EC01000048
S12303BFBD0943BD09E85F39000010F01000101000F000000010F0F0F000F010C4DDC4E77F
S12303DFC4F1C4FBC405C40FC419C423BADDBAE7BAF1BAFBBA05BA0FBA19BA23002020FF17
S12303FFE0E0002000FFE020010000001020FFE0E0002000FFE020010000002010FFE000DC
S123041F001010FF00E00100000018F8FFD000000010FF300000F010FF00D000F000FF00DD
S123043F3001000000D300FFFB05FF010FFF0A07FF0A05FF2DFFFF05F6FF00F6FFFBF6015E
S123045F000000D300FFFBFBFF01F1FF0AF9FF0AFBFF2D01FF050AFF000AFFFB0A01000071
S119047F3CC928C9000400FFF60AFFF6F6000A0AFF00EC0100007F
S1230495327D6F62202BE662E761E6621D1F01E689C88C4F8E000A34101F01BD0A66326294
S12304B51F10E7E4E6611D1F01E6E4E789C88C6C62E662C1132FCF3263393279E7656F6695
S12304D5160072E66554545454E761E665E861E765E665585858E7E4E6E4EB65E765E665E9
S12304F5595959C403E762E665E862E765E6655858E7E4E6E4EB65E765E6655454545454CC
S1230515E763E665E863E765E666E764E6661D1F01E689C88CEB654F8E000A34101F01BD5B
S12305350A6632621F10E7E4E6641D1F01E6E4E789C88C6C66E666C113102FFF8632673907
S123055554494D45204C454654800047414D45204F5645528000C6C4E7E28E0555C664BD70
S12305750A2A3261F6C8B8BD0243F6C8B85D2610C6C4E7E28E0560C664BD0A2A326120F016
S123059539327DE7622008F6C889EB62BD017DE662E7616D612704C601E761E6616A625D12
S12305B526E52005E665BD01C3E665E7E46DE42704C601E7E4E6E46A655D26E832633952DE
S12305D5454D454D42455220544845800053455155454E43458000327D6F62160095C6C8F2
S12305F5F7C8B8BDF192BD0209C6B5E7E28E05D4C664BD0A2A3261C6CEE7E28E05E2C65022
S1230615BD0A2A3261E6624F1F01E689C88CBD012CE6625C86643D4FEDE4C6C8E7E2AE6188
S1230635C601BD0A893261E6625C86643D4FEDE4C6C8E7E2AE61C602BD0A893261E6625C57
S123065586643D4FEDE4C6C8E7E2AE61C603BD0A893261E6625C6FE2BD05963261F6C8B4D6
S12306755AF7C8B4F6C8B45D1026FF72C61EF7C8B46C62F6C8B55CE16222E27FC8B7326350
S10406953927
S12306965052455353203220425554544F4E8000544F20524553544152548000327FC6C442
S12306B6E7E28E0560C664BD0A2A3261C6B0E7E28E0696C650BD0A2A3261C6C4E7E28E06CC
S12306D6A6C63CBD0A2A3261BDF1BAF6C811C4025D27278E08B0BFC8C06FE4200BE6E41D3A
S12006F61F016F89C8A06CE4E6E4C1132FEFF6C8B5BD04CF7FC8B57FC889326139BC
S1230713BDF1F8F6C81BF7C8B9F6C81CF7C8BAF6C8B95D2C0DF6C8BA5D2F07F6C88A5CF7C5
S1230733C8BBF6C8B95D260EF6C8BA5D2F08F6C88ACB02F7C8BBF6C8B95D2F0EF6C8BA5D96
S12307532F08F6C88ACB03F7C8BBF6C8B95D2C0EF6C8BA5D2608F6C88ACB04F7C8BBF6C85B
S1230773B95D260EF6C8BA5D2608F6C88ACB05F7C8BBF6C8B95D2F0EF6C8BA5D2608F6C8B1
S12307938ACB06F7C8BBF6C8B95D2C19F6C8BA5D2C13F6C88AC1032607C601F7C8BB2005A1
S12307B3C607F7C8BBF6C8B95D2619F6C8BA5D2C13F6C88AC1032607C602F7C8BB2005C64E
S12307D308F7C8BBF6C8B95D2F19F6C8BA5D2C13F6C88AC1032607C603F7C8BB2005C609E0
S12307F3F7C8BBF6C8BBBD012C39327EBDF1BAF6C811C4015D271CF6C889E7E4F6C8BBE70E
S123081361E6E44F1F01E661E789C8A0F6C8895CF7C88932623921534E45414B59204F46AF
S1230833465345542180007FC88AF6C8B5C1032328F6C8B5C1072221C6C8E7E28E0190C6C1
S123085303BD0A893261C69CE7E28E0829C673BD0A2A3261C603F7C88A39327DBD0209BD75
S1230873056BF6C889E761F6C8B5E762F6C889E7E4E662E0E4E7E4E6E45CE7E4E66134044D
S1230893E661BD05963261F6C88BC1032603BD083ABD0713BD07FDBD08BD326339BD02092A
S12308B3BD05EC8E086DBFC8C039327BF6C889E764201EE6644F1F01E689C88CE762E66464
S12308D34F1F01E689C8A0E16227068E06B2BFC8C0E664E7616D612704C601E761E6616A73
S12308F3645D26CFF6C8B5E7E4E6E45CE763F6C889E1632615F6C8B55CF7C8B57FC889C6DE
S1230913C8F7C8B88E08B0BFC8C032653953454C454354205448452047414D454D4F444504
S123093380004E4F524D414C8000484152448000327FC601F7C81FC603F7C8207FC8217F53
S1230953C8226FE4160074BDF1BA6CE4C688E7E28E0920C664BD0A2A3261C6CEE7E28E0991
S123097335C63CBD0A2A3261C6CEE7E28E093DC628BD0A2A3261BDF1BABDF1F8F6C81C5DBD
S12309932706F6C81CF7C8BAF6C8BA5D2F045FBD02ABF6C8BA5D2C05C601BD02ABF6C811E9
S12309B3C4015D2716F6C8BA5D2F05C602F7C88BF6C8BA5D2C05C603F7C88BF6C88BC10182
S12309D3102FFF83E6E4BD04CF7FC8B68E08B0BFC8C0326139327C2025BDF1AFBEC8BCAF4E
S12309F3E4AEE4BD0A54BEC8BEAF62AE62BD0A5DBDF192BD0A77BDF2A5BEC8C0AD84F6C8BF
S1230A13B65D27D5326439327FBD03BFE7E46DE427F7E6E43261393279E762AFE4C6CCD7F1
S1230A330CC67FD704E662E766E669E765AEE4AF63E666E7E2AE64E666BD0A7E32613267BB
S1230A533934403384BDF92E35C034603384BDF68735E0EC6226037EF0003410BD0AFD3289
S10E0A73621F01393440BDF28935C018
S1230A7E3440A6643384BDF37A35C03273E762AFE4E66258E763ECE4E764E6636C63E76813
S1230A9EE664E767E668E7E2E668BD0AF33261ECE41F894FE765E663E76AE665E769E66A52
S1230ABEE7E2E66ABD0AF33261E662CB08E766E666E76CE66FE76BE66CE7E2E66CBD0AF3D9
S1230ADE3261C607E7E2C6F8BD0AF33261326D39A6627EF3DFA6627EF256A6627EF3123205
S1230AFE7D6F606C604D2B066C60584920F8ED61EC656F656F66A3612406E3611CFE2002C3
S1200B1E1A0169666965646166626A6026E8326339FEE8FEB6808000803F000180F1
S9030000FC
