S12300006720474345203230323580FD0DF85018B34E4555524F20564543544F5280008E76
S1230020003E271BCE005E33C9091533C9000033C90000108EC880A6C0A7A0301F26F88E70
S12300400002270A108EC8BE6FA0301F26FABD07E75D27068E0000BFCBFEBDF00039000096
S123006010F01000101000F000000010F0F0F000F010002020FFE0E0002000FFE02001005D
S1230080000018F8FFD000000010FF300000F010FF00D000F000FF003001000000D300FF7D
S12300A0FB05FF010FFF0A07FF0A05FF2DFFFF05F6FF00F6FFFBF601000000D300FFFBFB3C
S12300C0FF01F1FF0AF9FF0AFBFF2D01FF050AFF000AFFFB0A0100003CC928C9000400FFE3
S12300E0F60AFFF6F6000A0AFF00EC0100003440327CE761BDF354C6FFD704C6EBE7E2C6C3
S1230100FABD09303261E6614F5849CE005F30CBE684E7E4E6614F5849CE005E30CBE684FC
S1230120E763E6E4E762E663E7E2E663BD09303261C660D7048E0072BDF410326435C0BD70
S1230140F354C6FFD704C6F1E7E25FBD093032618E0081BDF410BDF3546FE25FBD093032A0
S1230160618E009CBDF410BDF3546FE25FBD093032618E00BABDF41039327FE7E4BDF35430
S1230180C67FD704C646E7E2C6C4BD09303261E6E4D7046FE2C650BD09263261BDF354C6FE
S12301A07FD704C642E7E2C6C4BD09303261E6E4D7046FE2C650BD09263261BDF354C67F29
S12301C0D704C63EE7E2C6C4BD09303261E6E4D7046FE2C650BD09263261C6FFD7043261A2
S12301E0393440327CE761BDF354C67FD704E6611D5849CE00D930CBE684E7E4E6611D589C
S123020049CE00D830CBE684E763E6E4E762E663E7E2E663BD09303261C660D7048E00DCDA
S1230220BDF410326435C0000010F01000101000F000000010F0F0F000F010002020FFE04F
S1230240E0002000FFE0200100000018F8FFD000000010FF300000F010FF00D000F000FFBE
S1230260003001000000D300FFFB05FF010FFF0A07FF0A05FF2DFFFF05F6FF00F6FFFBF640
S123028001000000D300FFFBFBFF01F1FF0AF9FF0AFBFF2D01FF050AFF000AFFFB0A010051
S11A02A0003CC928C9000400FFF60AFFF6F6000A0AFF00EC0100005F
S12302B7BD0723BD07B55F39000010F01000101000F000000010F0F0F000F010002020FFEC
S12302D7E0E0002000FFE0200100000018F8FFD000000010FF300000F010FF00D000F00046
S12302F7FF003001000000D300FFFB05FF010FFF0A07FF0A05FF2DFFFF05F6FF00F6FFFBA0
S1230317F601000000D300FFFBFBFF01F1FF0AF9FF0AFBFF2D01FF050AFF000AFFFB0A01C3
S11B033700003CC928C9000400FFF60AFFF6F6000A0AFF00EC010000C6
S123034F327D6F62202BE662E761E6621D1F01E689C8894F8E000A34101F01BD089E3262A8
S123036F1F10E7E4E6611D1F01E6E4E789C8896C62E662C1132FCF3263393279E7656F66DF
S123038F160072E66554545454E761E665E861E765E665585858E7E4E6E4EB65E765E66530
S12303AF595959C403E762E665E862E765E6655858E7E4E6E4EB65E765E665545454545413
S12303CFE763E665E863E765E666E764E6661D1F01E689C889EB654F8E000A34101F01BDA6
S12303EF089E32621F10E7E4E6641D1F01E6E4E789C8896C66E666C113102FFF863267391C
S123040F54494D45204C454654800047414D45204F5645528000C6C4E7E28E040FC664BDFE
S123042F07F73261F6C8B5BD0179F6C8B55D2610C6C4E7E28E041AC664BD07F7326120F0E1
S123044F3952454D454D42455220544845800053455155454E43458000327D6F6216008B86
S123046FC6C8F7C8B5BDF192BD013FC6B5E7E28E0450C664BD07F73261C6CEE7E28E045E3F
S123048FC650BD07F73261E6624F1F01E689C889BD00EEE6625C86643D4FEDE4C6C8E7E281
S12304AFAE61C601BD08C13261E6625C86643D4FEDE4C6C8E7E2AE61C602BD08C13261E622
S12304CF625C86643D4FEDE4C6C8E7E2AE61C603BD08C13261F6C8B15AF7C8B1F6C8B15DB7
S11C04EF1026FF7CC61EF7C8B16C62F6C8B25CE16222E27FC8B432633941
S12305085052455353203220425554544F4E8000544F20524553544152548000327FC6C4D1
S1230528E7E28E041AC664BD07F73261C6B0E7E28E0508C650BD07F73261C6C4E7E28E059E
S123054818C63CBD07F73261BDF1BAF6C811C4025D27278E0690BFC8BE6FE4200BE6E41DB1
S12005681F016F89C89D6CE4E6E4C1132FEFF6C8B2BD03897FC8B27FC8B63261396E
S1230585BDF1F8F6C81BF7C8B7F6C81CF7C8B8F6C8B73404C6A6E7E2C6BABD08333262F628
S12305A5C8B83404C6CEE7E2C6BABD08333262F6C8B75D2C0BF6C8B85D2F05C601F7C8B9C2
S12305C5F6C8B75D260BF6C8B85D2F05C602F7C8B9F6C8B75D2F0BF6C8B85D2F05C603F7F5
S12305E5C8B9F6C8B75D2C0BF6C8B85D2605C604F7C8B9F6C8B75D260BF6C8B85D2605C661
S123060505F7C8B9F6C8B75D2F0BF6C8B85D2605C606F7C8B9F6C8B75D2C0BF6C8B85D2CFE
S123062505C607F7C8B9F6C8B75D260BF6C8B85D2C05C608F7C8B9F6C8B75D2F0BF6C8B898
S12306455D2C05C609F7C8B9F6C8B9BD00EE39327EBDF1BAF6C811C4015D271CF6C8B6E7BA
S1230665E4F6C8B9E761E6E44F1F01E661E789C89DF6C8B65CF7C8B6326239BD013FBD04A9
S123068525BD0585BD0654BD069D39BD013FBD04688E0680BFC8BE39327BF6C8B6E76420F1
S12306A51EE6644F1F01E689C889E762E6644F1F01E689C89DE16227068E0524BFC8BEE672
S12306C564E7616D612704C601E761E6616A645D26CFF6C8B2E7E4E6E45CE763F6C8B6E1F6
S12306E5632615F6C8B25CF7C8B27FC8B6C6C8F7C8B58E0690BFC8BE32653953454C454372
S123070554205448452047414D454D4F444580004E4F524D414C8000484152448000327E04
S1230725C601F7C81FC603F7C8207FC8217FC8226FE4C601E761160060BDF1BA6CE4C688B4
S1230745E7E28E0700C664BD07F73261C6CEE7E28E0715C63CBD07F73261C6CEE7E28E0771
S12307651DC628BD07F73261BDF1BABDF1F8F6C81C5D2706F6C81CF7C8B8F6C8B85D2F044E
S12307855FBD01E1F6C8B85D2C05C601BD01E1F6C811C4015D27026F616D611026FF9AE67B
S12307A5E4BD03897FC8B38E0690BFC8BE326239327C2025BDF1AFBEC8BAAFE4AEE4BD0859
S12307C521BEC8BCAF62AE62BD082ABDF192BD08AFBDF2A5BEC8BEAD84F6C8B35D27D53224
S12307E56439327FBD02B7E7E46DE427F7E6E43261393279E762AFE4C6CCD70CC67FD70440
S1230805E662E766E669E765AEE4AF63E666E7E2AE64E666BD08B63261326739344033847D
S1230825BDF92E35C034603384BDF68735E03278E7E4C680E765C630E7636D6B2D06C62BF9
S1230845E7612006C62DE761606BE66BC1632E06C630E7622017C631E762E66BCB9CE76BB2
S1230865200BE6635CE763E66BCBF6E76BE66BC1092EEFE66BCB30E764C6CCD70CC67FD791
S123088504E6E4E767E66AE7663061E667E7E2E667BD08B63261326839EC6226037EF000DC
S11408A53410BD093532621F01393440BDF28935C071
S12308B63440A6643384BDF37A35C03273E762AFE4E66258E763ECE4E764E6636C63E768DD
S12308D6E664E767E668E7E2E668BD092B3261ECE41F894FE765E663E76AE665E769E66AE5
S12308F6E7E2E66ABD092B3261E662CB08E766E666E76CE66FE76BE66CE7E2E66CBD092B35
S12309163261C607E7E2C6F8BD092B3261326D39A6627EF3DFA6627EF256A6627EF3123297
S12309367D6F606C604D2B066C60584920F8ED61EC656F656F66A3612406E3611CFE20028C
S12009561A0169666965646166626A6026E8326339FEE8FEB6808000803F000180BB
S9030000FC
