S12300006720474345203230323580FD0DF85018B34E4555524F20564543544F5280008E76
S1230020003E271BCE005E33C9079A33C9000033C90000108EC880A6C0A7A0301F26F88EED
S12300400002270A108EC8BE6FA0301F26FABD066C5D27068E0000BFCBFEBDF00039000012
S123006010F01000101000F000000010F0F0F000F010002020FFE0E0002000FFE02001005D
S1230080000018F8FFD000000010FF300000F010FF00D000F000FF003001000000D300FF7D
S12300A0FB05FF010FFF0A07FF0A05FF2DFFFF05F6FF00F6FFFBF601000000D300FFFBFB3C
S12300C0FF01F1FF0AF9FF0AFBFF2D01FF050AFF000AFFFB0A0100003440327CE761BDF3C2
S12300E054C6FFD704C6EBE7E2C6FABD07B53261E6614F5849CE005F30CBE684E7E4E661E7
S12301004F5849CE005E30CBE684E763E6E4E762E663E7E2E663BD07B53261C660D7048E07
S12301200072BDF410326435C0BDF354C6FFD704C6F1E7E25FBD07B532618E0081BDF4109E
S1230140BDF3546FE25FBD07B532618E009CBDF410BDF3546FE25FBD07B532618E00BABD2B
S1230160F41039327FE7E4BDF354C67FD704C646E7E2C6C4BD07B53261E6E4D7046FE2C677
S123018050BD07AB3261BDF354C67FD704C642E7E2C6C4BD07B53261E6E4D7046FE2C65072
S12301A0BD07AB3261BDF354C67FD704C63EE7E2C6C4BD07B53261E6E4D7046FE2C650BDE9
S12301C007AB3261C6FFD704326139000010F01000101000F000000010F0F0F000F010006A
S12301E02020FFE0E0002000FFE0200100000018F8FFD000000010FF300000F010FF00D0EF
S123020000F000FF003001000000D300FFFB05FF010FFF0A07FF0A05FF2DFFFF05F6FF0097
S1230220F6FFFBF601000000D300FFFBFBFF01F1FF0AF9FF0AFBFF2D01FF050AFF000AFFD1
S1080240FB0A010000AF
S1230245BD061DBD063A5F39000010F01000101000F000000010F0F0F000F010002020FFE1
S1230265E0E0002000FFE0200100000018F8FFD000000010FF300000F010FF00D000F000B8
S1230285FF003001000000D300FFFB05FF010FFF0A07FF0A05FF2DFFFF05F6FF00F6FFFB12
S12302A5F601000000D300FFFBFBFF01F1FF0AF9FF0AFBFF2D01FF050AFF000AFFFB0A0136
S10502C5000033
S12302C7327D6F62202BE662E761E6621D1F01E689C8894F8E000A34101F01BD07233262AD
S11D02E71F10E7E4E6611D1F01E6E4E789C8896C62E662C1132FCF3263393A
S123030154494D45204C454654800047414D45204F5645528000C6C4E7E28E0301C664BD1C
S1230321067C3261F6C8B5BD0163F6C8B55D2610C6C4E7E28E030CC664BD067C326120F00D
S12303413952454D454D42455220544845800053455155454E43458000327D6F6216008B95
S1230361C6C8F7C8B5BDF192BD0129C6B5E7E28E0342C664BD067C3261C6CEE7E28E0350FE
S1230381C650BD067C3261E6624F1F01E689C889BD00D8E6625C86643D4FEDE4C6C8E7E222
S12303A1AE61C601BD07463261E6625C86643D4FEDE4C6C8E7E2AE61C602BD07463261E629
S12303C1625C86643D4FEDE4C6C8E7E2AE61C603BD07463261F6C8B15AF7C8B1F6C8B15D42
S11C03E11026FF7CC61EF7C8B16C62F6C8B25CE16222E27FC8B432633950
S12303FA5052455353203220425554544F4E20544F20524553544152548000327FC601E71D
S123041AE42033C6C4E7E28E030CC664BD067C3261C6C4E7E28E03FAC650BD067C3261BD18
S120043AF1BAF6C811C4025D270C8E05ADBFC8BE7FC8B2BD063A6DE426C93261394A
S1230457327E6F612026E6614F1F01E689C889E7E4E6614F1F01E689C89DE1E42703BD0440
S123047715E6614F1F016F89C89D6C61F6C8B25CE16122D2C601F7C8B4F6C8B25CF7C8B2F3
S10E04977FC8B6C6C8F7C8B53262398A
S12304A2BDF1F8F6C81BF7C8B7F6C81CF7C8B8F6C8B73404C6A6E7E2C6BABD06B83262F689
S12304C2C8B83404C6CEE7E2C6BABD06B83262F6C8B75D2C0BF6C8B85D2F05C601F7C8B923
S12304E2F6C8B75D260BF6C8B85D2F05C602F7C8B9F6C8B75D2F0BF6C8B85D2F05C603F7D9
S1230502C8B9F6C8B75D2C0BF6C8B85D2605C604F7C8B9F6C8B75D260BF6C8B85D2605C644
S123052205F7C8B9F6C8B75D2F0BF6C8B85D2605C606F7C8B9F6C8B75D2C0BF6C8B85D2CE2
S123054205C607F7C8B9F6C8B75D260BF6C8B85D2C05C608F7C8B9F6C8B75D2F0BF6C8B87C
S12305625D2C05C609F7C8B9F6C8B9BD00D839327EBDF1BAF6C811C4015D271CF6C8B6E7B4
S1230582E4F6C8B9E761E6E44F1F01E661E789C89DF6C8B65CF7C8B6326239BD0129BD03A4
S12305A217BD04A2BD0571BD05BA39BD0129BD035A8E059DBFC8BE39327BF6C8B6E7642098
S12305C21EE6644F1F01E689C889E762E6644F1F01E689C89DE16227068E0415BFC8BEE666
S12305E264E7616D612704C601E761E6616A645D26CFF6C8B2E7E4E6E45CE763F6C8B6E1DA
S1230602632615F6C8B25CF7C8B27FC8B6C6C8F7C8B58E05ADBFC8BE326539C601F7C81F00
S1230622C603F7C8207FC8217FC822BD02C77FC8B38E05ADBFC8BE39327C2025BDF1AFBEEF
S1230642C8BAAFE4AEE4BD06A6BEC8BCAF62AE62BD06AFBDF192BD0734BDF2A5BEC8BEAD32
S123066284F6C8B35D27D5326439327FBD0245E7E46DE427F7E6E43261393279E762AFE44B
S1230682C6CCD70CC67FD704E662E766E669E765AEE4AF63E666E7E2AE64E666BD073B3247
S12306A26132673934403384BDF92E35C034603384BDF68735E03278E7E4C680E765C63066
S12306C2E7636D6B2D06C62BE7612006C62DE761606BE66BC1632E06C630E7622017C63144
S12306E2E762E66BCB9CE76B200BE6635CE763E66BCBF6E76BE66BC1092EEFE66BCB30E7B8
S123070264C6CCD70CC67FD704E6E4E767E66AE7663061E667E7E2E667BD073B3261326805
S11C072239EC6226037EF0003410BD07BA32621F01393440BDF28935C04C
S123073B3440A6643384BDF37A35C03273E762AFE4E66258E763ECE4E764E6636C63E76859
S123075BE664E767E668E7E2E668BD07B03261ECE41F894FE765E663E76AE665E769E66ADE
S123077BE7E2E66ABD07B03261E662CB08E766E666E76CE66FE76BE66CE7E2E66CBD07B0AB
S123079B3261C607E7E2C6F8BD07B03261326D39A6627EF3DFA6627EF256A6627EF3123291
S12307BB7D6F606C604D2B066C60584920F8ED61EC656F656F66A3612406E3611CFE200209
S12007DB1A0169666965646166626A6026E8326339FEE8FEB6808000803F00018038
S9030000FC
