S12300006720474345203230323580FD0DF85018B34E4555524F20564543544F5280008E76
S12300200025271BCE005E33C9052133C9000033C90000108EC880A6C0A7A0301F26F88E81
S12100400002270A108EC8A56FA0301F26FABD03325D27068E0000BFCBFEBDF000396A
S123005EC601F7C81FC603F7C8207FC8217FC822C603F7C882C601F7C8847FC8867FC887B1
S123007EF6C880C102260CC603F7C883C601F7C88520067FC8837FC8857FC88839BD0194FF
S123009EBD02FC3947414D45204F5645528000504C4159455280003420327230E4BDF84FF7
S12300BEF6C8884F1F01E689C886E76830E4E668BD04D431E48ECBEB341030A4BD04DD3225
S12300DE62C696E767BDF1AFBEC8A1AF69AE69BD044ABEC8A3AF6BAE6BBD0453BDF192BDC7
S12300FE04C7BDF2A5C6C0E7E28E00A25FBD04203261C69CE7E28E00ADC614BD04203261B9
S123011EF6C8885C3404C628E7E2C614BD05043262F6C8884F1F01E689C882E76DC669E720
S123013EE28EC0E2E66EBD04F13261BDF1BA6A676D67270AF6C811C4085D1027FF87326E5F
S123015E35A0327FC601E7E2C603BD05653261F6C879F7C880F6C87AF7C881F6C80FC4085D
S119017E5D270ABD005EBD009B6FE42004C6FFE7E4E6E4326139C9
S10701947FC889395A
S123019854494D45204C4546548000C6C4E7E28E0198C664BD04203261F6C88ABD0385F6AE
S12301B8C88ACBFCF7C88AF6C88A5D2605C6C8F7C88A3982C3608202A082220AA22006BDE5
S12301D8F354C60AE7E2C6E2BD056E32618EFFA1E684C1202613C6FFD7048E01CB34108E3A
S11E01F80000BD04FA32622011C6FFD7048E01CB34108E0000BD04FA32623914
S1230213BDF1F8F6C81B3404C6A6E7E2C6A6BD045C3262F6C81C3404C6CEE7E2C6A6BD0422
S12302335C3262F6C8A53404C6A6E7E2C6BABD045C3262F6C8A63404C6CEE7E2C6BABD047C
S12302535C3262F6C81BF7C8A5F6C81CF7C8A6F6C8A55D2C0BF6C8A65D2F05C601BD03DACE
S1230273F6C8A55D260BF6C8A65D2F05C602BD03DAF6C81B5D2F0BF6C81C5D2F05C603BDBE
S123029303DAF6C8A55D2C0BF6C8A65D2605C604BD03DAF6C8A55D260BF6C8A65D2605C680
S12302B305BD03DAF6C8A55D2F0BF6C8A65D2605C606BD03DAF6C8A55D2C0BF6C8A65D2C58
S12302D305C607BD03DAF6C8A55D260BF6C8A65D2C05C608BD03DAF6C8A55D2F0BF6C8A6F2
S12302F35D2C05C609BD03DA39327C2029BDF1AFBEC8A1AFE4AEE4BD044ABEC8A3AF62AE24
S123031362BD0453BDF192BD04C7BDF2A5BD01A3BD01D7BD0213F6C8895D27D132643932CF
S12303337FBD0160E7E46DE427F7E6E4326139327EAFE46FF4BD04CEC47FCB40AEE4E7013C
S1230353BD04CEC47FCB40AEE4E702BD04CEC403CBFEAEE4E703BD04CEC4035AAEE4E70466
S1060373326239B6
S1120376002020FFE0E0002000FFE02001000055
S12303853279E7636F642040BDF354C67FD704F6C8A0E761E664E7E4E6E45858E7E4E6E43E
S12303A550E762F6C89FEB62E766E661E765E666E7E2E666BD056E3261E663D7046FE2C6B2
S12303C564BD056032616C64E664C1022FBAC6FFD7043267393440327CE761BDF354C67F10
S12303E5D704E6611D5849CEC88C30CBE684E7E4E6611D5849CEC88B30CBE684E763E6E423
S1230405E762E663E7E2E663BD056E3261C622D7048E0376BDF410326435C03279E762AFB3
S1230425E4C6CCD70CC67FD704E662E766E669E765AEE4AF63E666E7E2AE64E666BD04E64C
S1230445326132673934403384BDF92E35C034603384BDF68735E03278E7E4C680E765C6C3
S123046530E7636D6B2D06C62BE7612006C62DE761606BE66BC1632E06C630E7622017C6A4
S123048531E762E66BCB9CE76B200BE6635CE763E66BCBF6E76BE66BC1092EEFE66BCB30CD
S12304A5E764C6CCD70CC67FD704E6E4E767E66AE7663061E667E7E2E667BD04E63261323E
S12304C568393440BDF28935C0BDF5171F893934401F98BDF85E35C03440EE64BDF8D8356C
S10404E5C052
S12304E63440A6643384BDF37A35C03440A664BDF39335C0342010AE64BDFF9F35A0327997
S1230506E7E4C680E764C630E762C630E761200BE6615CE761E66ACB9CE76AE66AC1632244
S1230526EF200BE6625CE762E66ACBF6E76AE66AC10922EFE66ACB30E763C6CCD70CC67FCE
S1230546D704E6E4E766E669E7653061E666E7E2E666BD04E63261326739A6627EF3DF347A
S11C056660A666BDF7A935E0A6627EF312FEE8FEB6808000803F00018035
S9030000FC
