S12300006720474345203230323580FD0DF85018B34E4555524F20564543544F5280008E76
S123002000B9271BCE005D33C9233033C9000033C90000108EC880A6C0A7A0301F26F88EC1
S1230040000F270A108EC9396FA0301F26FABD02E65D2706CC0000FDCBFE7EF000C4DDC4AA
S1230060E7C4F1C4FBC405C40FC419C423BADDBAE7BAF1BAFBBA05BA0FBA19BA23002020B1
S1230080FFE0E0002000FFE020010000003CC4FF0078FF8800FF0088FF7800010000003C44
S12300A0C4FF0078FF8800FF0088FF7800FF8878007800FF8888010000001020FFE0E00006
S12300C02000FFE020010000002010FFE000001010FF00E0010000FF8800FF0078FF780078
S12300E0FF008801000000887800880000880000880000EC9C00EC9C00ECBAFF0064FF00C4
S123010064FF005A003CE2FF9C32FF003CFF004BFF324BFF324BFF3200FF1E3CFF5028FFB6
S12301203C00FF14ECFF0FE2FFECCE001432FF1E1EFF4600FF1EF6FFD8BA002846FF4600BA
S1230140FF32E7FF00C4FFCEE7FFE7CE004B4BFF3CE2FF3CE2FF3CCEFF00CEFF28CEFF1EA0
S12301609CFFE2C4FFE2BF010000008888008800008800008800FF9CCEFF00C4FF00B5FF12
S123018032B5FF32B5FF3200FF1EC4FF50D8FF3C00FF1414FF0F1EFFEC320014CEFF1EE2C9
S12301A0FF4600FF1E0AFFD8460028BAFF4600FF3219FF003CFFCE19FFE732004BB5FF3CCD
S12301C01EFF3C1EFF3C32FF0032FF2832FF1E64FFE23CFFE241010000005000008878009C
S12301E0880000880000880000EC9C00EC9C00ECBAFF0064FF0064FF005A003CE2FF9C32A3
S1230200FF003CFF004BFF324BFF324BFF3200FF1E3CFF5028FF3C00FF14ECFF0FE2FFEC47
S1230220CE001432FF1E1EFF4600FF1EF6FFD8BA002846FF4600FF32E7FF00C4FFCEE7FF41
S1230240E7CE004B4BFF3CE2FF3CE2FF3CCEFF00CEFF28CEFF1E9CFFE2C4FFE2BFFF1EBF70
S1230260FF1EC4FFE29CFFD8CEFF00CEFFC4CEFFC4E2FFC4E200B54BFF19CEFF32E7FF00D2
S1230280C4FFCEE7FFBA0000D846FF28BAFFE2F6FFBA00FFE21E00EC32FF14CEFFF1E2FFCB
S12302A0ECECFFC400FFB028FFE23CFFCE00FFCE4BFFCE4BFF004BFF003CFF64320078001C
S12302C000780000780000787801000000003CAB28AB14AB000400FFF60AFFF6F6000A0ABE
S10902E0FF00EC01000028
S12302E6BD08CEBD0B0320FBC4DDC4E7C4F1C4FBC405C40FC419C423BADDBAE7BAF1BAFBC3
S1230306BA05BA0FBA19BA23002020FFE0E0002000FFE020010000003CC4FF0078FF88007E
S1230326FF0088FF7800010000003CC4FF0078FF8800FF0088FF7800FF8878007800FF88BA
S123034688010000001020FFE0E0002000FFE020010000002010FFE000001010FF00E001EC
S12303660000FF8800FF0078FF7800FF008801000000887800880000880000880000EC9C56
S123038600EC9C00ECBAFF0064FF0064FF005A003CE2FF9C32FF003CFF004BFF324BFF32E9
S12303A64BFF3200FF1E3CFF5028FF3C00FF14ECFF0FE2FFECCE001432FF1E1EFF4600FF3F
S12303C61EF6FFD8BA002846FF4600FF32E7FF00C4FFCEE7FFE7CE004B4BFF3CE2FF3CE2A8
S12303E6FF3CCEFF00CEFF28CEFF1E9CFFE2C4FFE2BF010000008888008800008800008881
S123040600FF9CCEFF00C4FF00B5FF32B5FF32B5FF3200FF1EC4FF50D8FF3C00FF1414FF8C
S12304260F1EFFEC320014CEFF1EE2FF4600FF1E0AFFD8460028BAFF4600FF3219FF003C52
S1230446FFCE19FFE732004BB5FF3C1EFF3C1EFF3C32FF0032FF2832FF1E64FFE23CFFE26C
S12304664101000000500000887800880000880000880000EC9C00EC9C00ECBAFF0064FF30
S12304860064FF005A003CE2FF9C32FF003CFF004BFF324BFF324BFF3200FF1E3CFF50282C
S12304A6FF3C00FF14ECFF0FE2FFECCE001432FF1E1EFF4600FF1EF6FFD8BA002846FF4632
S12304C600FF32E7FF00C4FFCEE7FFE7CE004B4BFF3CE2FF3CE2FF3CCEFF00CEFF28CEFF35
S12304E61E9CFFE2C4FFE2BFFF1EBFFF1EC4FFE29CFFD8CEFF00CEFFC4CEFFC4E2FFC4E26C
S123050600B54BFF19CEFF32E7FF00C4FFCEE7FFBA0000D846FF28BAFFE2F6FFBA00FFE233
S12305261E00EC32FF14CEFFF1E2FFECECFFC400FFB028FFE23CFFCE00FFCE4BFFCE4BFF38
S1230546004BFF003CFF643200780000780000780000787801000000003CAB28AB14AB00A4
S11405660400FFF60AFFF6F6000A0AFF00EC01000092
S123057706070803040500010242504D800034403274BDF354C640D704CB1AE7E2CB2EBD7A
S1230597234AC680D7048E0368BDF410BDF354C618D704CB38E7E25FBD234A8E046ABDF439
S12305B710AD9FC941BDF1F8F6C81BE764F7C884F6C81CE768F7C8853262E662F1C8861015
S12305D72701DBE662F7C886E666F7C8876D62102D01E06F636D622F04C601E763E6635C67
S12305F7E768E663F7C8846D66102D01BD6F646D662F04C601E764E6645CE76258E767E6D1
S123061762EB67E767E664F7C885E667EB681D1F01E68905774FF7C8838E2103BFC895BF49
S1230637C89DBFC8A5BFC8ADBFC8B5BFC8BDBFC8C5BFC8CDBFC8D55849584958491F01CE8D
S12306572143EF89C895BDF1BAF6C811C5082717F6C880E7624F1F01E689C8DBF1C88310B0
S12306772701595FF7C88D5FAD9FC895C601AD9FC89DC602AD9FC8A5C603AD9FC8ADC604DE
S1230697AD9FC8B5C605AD9FC8BDC606AD9FC8C5C607AD9FC8CDC608AD9FC8D57DC88E10ED
S12306B72700B17DC88D102700AAF6C882F1C880102700B0F6C880E769F6C882E069E762D4
S12306D7E669E7656D622713E6625AE76BFBC880BD217F6A6BE66BC1FF26F26D652710E6DA
S12306F7695AE76ABD21AF6A6AE66AC1FF26F57CC890F6C890C10810270097F6C8EFC120F8
S123071726067FC8EF7AC88EBDF354C630D704C678E7E2CB10BD234AC678E7E2CB10BD23E9
S12307374A6FE2C6CEBD234A8EC8EFBDF3CEBDF354C646E7E28E0580CB1EBD227CF6C88E06
S1230757860C3DED643404C632E7E258BD22C132E81235C08E0A54BFC943F6C882F1C8801C
S12307771026FF508E2103BFC895BFC89DBFC8A5BFC8ADBFC8B5BFC8BDBFC8C5BFC8CDBFA8
S1230797C8D55CF7C8827FC880CE07F4FFC94316FF227CC8EFF6C88EF7C89016FF5DE666A6
S12307B7F1C8871026FE1C16FE9CC6FFE7646F6716FE54C6FFE7636F6816FE28E6625CF7D3
S12307D7C88016FE9F52454D454D42455220544845800053455155454E43458000342032D4
S12307F77DF6C8821027007A6F627AC881F6C8811027005EBD21DF6FE2F6C882BD0DF7BD3C
S12308170E25E6634FED611F013189C8DBE6A4BD2143E6A4860F3DE761E661CB78E761C640
S1230837C8E7E2E6624F1F01C602BD2308C6B5E7E28E07DCC66EBD227CC6CEE7E28E07EA85
S1230857C65ABD227C7AC881F6C88132645D1026FFA2C61EF7C8816C62F6C882E16210228F
S1230877FF886FE2BD0DF77FC890C620F7C8EFC608F7C88E8E0585BFC943326435A0534558
S12308974C454354205448452047414D454D4F444580004E4F524D414C2031362F800048EE
S12308B741524420202031362F800045585452454D2031362F8000327DC601F7C81FC603A8
S12308D7F7C8207FC8217FC8226F61C601E7622013C601E762F6C892BD224CF6C811C50813
S12308F71026009C7DC892102700B8BDF1926C61BDF1BAC688E7E28E0895C664BD227CC643
S1230917B0E7E28E08AAC63CBD227CC6B0E7E28E08B6C628BD227CC6B0E7E28E08C2C61461
S1230937BD227CF6C888E7E2C61EE7E2C63CBD22C1F6C889E7E2C61EE7E2C628BD22C13266
S123095768F6C88AE7E2C61EE7E2C614BD22C1BDF1F8F6C81C32625D1027FF752F53F6C880
S123097792E7E4C1011023FF6CE662C101275D6F62F6C892BD224CF6C811C5081027FF648F
S1230997C601F7C88DBD1DFAF6C892C1012708C1022744C103274E8E1B15BFC9418EC88848
S12309B7BFC88BE661BD1B168E07F4BFC943326339F6C892E7E4C1021022FF19E662C10181
S12309D71026FF11E6E45CF7C89220A3E6E45AF7C8926F6216FEFE8E16CCBFC9418EC8890C
S12309F7BFC88B20BE8E13A0BFC9418EC88ABFC88B20B047414D45204F5645528000505288
S1230A1745535320425554544F4E20328000544F20524553544152548000505245535320ED
S1230A37425554544F4E20338000544F20474F20544F20544845204D454E558000BEC88BE9
S1230A57F6C882E1842302E784C6C4E7E28E0A0AC664BD227CC6B0E7E28E0A15C646BD22F5
S1230A777CC6C4E7E28E0A25C632BD227CC6B0E7E28E0A31C614BD227CC69CE7E28E0A413B
S1230A975FBD227CBDF1BA3265F6C811C504261FC5022601398E08CEBFC943C601F7C89237
S1230AB7F6C882BD1B167FC880C601F7C882398E07F4BFC943F6C882BD1B167FC880C601D5
S1230AD7F7C882F7C88DBD1DFA8E2103BFC895BFC89DBFC8A5BFC8ADBFC8B5BFC8BDBFC841
S1230AF7C5BFC8CDBFC8D5F6C81120A4BDF1AFBEC935BD2297BEC937BD22A0BDF192BD22E8
S10D0B17BABDF2A5AD9FC94320E268
S1230B21C4DDC4E7C4F1C4FBC405C40FC419C423BADDBAE7BAF1BAFBBA05BA0FBA19BA23C0
S1230B41002020FFE0E0002000FFE020010000003CC4FF0078FF8800FF0088FF7800010074
S1230B6100003CC4FF0078FF8800FF0088FF7800FF8878007800FF8888010000001020FFBE
S1230B81E0E0002000FFE020010000002010FFE000001010FF00E0010000FF8800FF007863
S1230BA1FF7800FF008801000000887800880000880000880000EC9C00EC9C00ECBAFF00E4
S1230BC164FF0064FF005A003CE2FF9C32FF003CFF004BFF324BFF324BFF3200FF1E3CFFFF
S1230BE15028FF3C00FF14ECFF0FE2FFECCE001432FF1E1EFF4600FF1EF6FFD8BA002846BD
S1230C01FF4600FF32E7FF00C4FFCEE7FFE7CE004B4BFF3CE2FF3CE2FF3CCEFF00CEFF287A
S1230C21CEFF1E9CFFE2C4FFE2BF010000008888008800008800008800FF9CCEFF00C4FF0F
S1230C4100B5FF32B5FF32B5FF3200FF1EC4FF50D8FF3C00FF1414FF0F1EFFEC320014CE48
S1230C61FF1EE2FF4600FF1E0AFFD8460028BAFF4600FF3219FF003CFFCE19FFE732004BF2
S1230C81B5FF3C1EFF3C1EFF3C32FF0032FF2832FF1E64FFE23CFFE24101000000500000E0
S1230CA1887800880000880000880000EC9C00EC9C00ECBAFF0064FF0064FF005A003CE2A4
S1230CC1FF9C32FF003CFF004BFF324BFF324BFF3200FF1E3CFF5028FF3C00FF14ECFF0F7C
S1230CE1E2FFECCE001432FF1E1EFF4600FF1EF6FFD8BA002846FF4600FF32E7FF00C4FF5D
S1230D01CEE7FFE7CE004B4BFF3CE2FF3CE2FF3CCEFF00CEFF28CEFF1E9CFFE2C4FFE2BFCC
S1230D21FF1EBFFF1EC4FFE29CFFD8CEFF00CEFFC4CEFFC4E2FFC4E200B54BFF19CEFF3210
S1230D41E7FF00C4FFCEE7FFBA0000D846FF28BAFFE2F6FFBA00FFE21E00EC32FF14CEFFEB
S1230D61F1E2FFECECFFC400FFB028FFE23CFFCE00FFCE4BFFCE4BFF004BFF003CFF6432F6
S1230D8100780000780000780000787801000000003CAB28AB14AB000400FFF60AFFF6F68E
S10C0DA1000A0AFF00EC01000045
S1230DAA42504D8000327E7CC890F6C890C1082731F6C8EFC12026067FC8EF7AC88EBD2234
S1230DCA21C646E7E28E0DAACB1EBD227CF6C88E860C3DED613404C632E7E258BD22C132FA
S1230DEA65397CC8EFF6C88EF7C89020C4327DE7E427115AE762FBC880BD217F6A62E6628C
S1230E0AC1FF26F26D652710E6655AE761BD21AF6A61E661C1FF26F53263395FAD9FC895A6
S1230E2AC601AD9FC89DC602AD9FC8A5C603AD9FC8ADC604AD9FC8B5C605AD9FC8BDC60626
S1230E4AAD9FC8C5C607AD9FC8CDC608AD9FC8D539327EBDF1BABDF1F8F6C81BE761F7C86F
S1230E6A84F6C81CE7E4F7C8856D61102D007726596DE4102F0075C601F7C8836D6126579D
S1230E8A6DE427326D612C336DE4102D00816D612F066DE4102D0066F6C811C5082714F69A
S1230EAAC880E7E44F1F01E689C8DBF1C88327567FC88D326239C604F7C8836D6126CF6DFA
S1230ECAE42CD5C607F7C88320CE6D612F1E6DE42FAAC602F7C8836D612FA96DE426DCC614
S1230EEA05F7C88320A85D2F037FC8836D61102CFF8A6DE426E1C603F7C88316FF86C6081D
S1230F0AF7C88316FF92E6E45CF7C880326239C606F7C88316FF81327FBDF1F8F6C81BE7ED
S1230F2AE4F7C884F6C81CF7C8856DE42D548E2103BFC8956DE4102600BE5D2F508E2143AB
S1230F4ABFC89D8E2103BFC8A58E2103BFC8AD6DE426535D102600838E2143BFC8B58E21DE
S1230F6A03BFC8BD8E2103BFC8C56DE426515D102D00A28E2103BFC8CD8E2103BFC8D532D4
S1230F8A61395D102F00A08E2143BFC8958E2103BFC89D8E2103BFC8A56DE42CAC5D2735C9
S1230FAA8E2103BFC8AD8E2103BFC8B56DE42F315D26AB8E2143BFC8BD8E2103BFC8C58EAE
S1230FCA2103BFC8CD6DE42FB05D2CAD8E2143BFC8D53261398E2143BFC8AD8E2103BFC8AC
S1230FEAB58E2103BFC8BD6DE4102CFF775D2D2E8E2103BFC8C520C7BFC89D6DE4102FFFE5
S123100A925D102FFF3D8E2143BFC8A58E2103BFC8AD16FF918E2143BFC8CD16FF5B8E2149
S123102A43BFC8C516FF4C8E2103BFC895BFC89D16FF60C4DDC4E7C4F1C4FBC405C40FC42B
S123104A19C423BADDBAE7BAF1BAFBBA05BA0FBA19BA23002020FFE0E0002000FFE0200193
S123106A0000003CC4FF0078FF8800FF0088FF7800010000003CC4FF0078FF8800FF0088E0
S123108AFF7800FF8878007800FF8888010000001020FFE0E0002000FFE020010000002015
S12310AA10FFE000001010FF00E0010000FF8800FF0078FF7800FF00880100000088780036
S12310CA880000880000880000EC9C00EC9C00ECBAFF0064FF0064FF005A003CE2FF9C32AA
S12310EAFF003CFF004BFF324BFF324BFF3200FF1E3CFF5028FF3C00FF14ECFF0FE2FFEC4F
S123110ACE001432FF1E1EFF4600FF1EF6FFD8BA002846FF4600FF32E7FF00C4FFCEE7FF48
S123112AE7CE004B4BFF3CE2FF3CE2FF3CCEFF00CEFF28CEFF1E9CFFE2C4FFE2BF01000052
S123114A008888008800008800008800FF9CCEFF00C4FF00B5FF32B5FF32B5FF3200FF1EDF
S123116AC4FF50D8FF3C00FF1414FF0F1EFFEC320014CEFF1EE2FF4600FF1E0AFFD8460061
S123118A28BAFF4600FF3219FF003CFFCE19FFE732004BB5FF3C1EFF3C1EFF3C32FF003247
S12311AAFF2832FF1E64FFE23CFFE24101000000500000887800880000880000880000EC33
S12311CA9C00EC9C00ECBAFF0064FF0064FF005A003CE2FF9C32FF003CFF004BFF324BFF2D
S12311EA324BFF3200FF1E3CFF5028FF3C00FF14ECFF0FE2FFECCE001432FF1E1EFF4600BA
S123120AFF1EF6FFD8BA002846FF4600FF32E7FF00C4FFCEE7FFE7CE004B4BFF3CE2FF3C38
S123122AE2FF3CCEFF00CEFF28CEFF1E9CFFE2C4FFE2BFFF1EBFFF1EC4FFE29CFFD8CEFF17
S123124A00CEFFC4CEFFC4E2FFC4E200B54BFF19CEFF32E7FF00C4FFCEE7FFBA0000D8468B
S123126AFF28BAFFE2F6FFBA00FFE21E00EC32FF14CEFFF1E2FFECECFFC400FFB028FFE2CD
S123128A3CFFCE00FFCE4BFFCE4BFF004BFF003CFF64320078000078000078000078780194
S11F12AA000000003CAB28AB14AB000400FFF60AFFF6F6000A0AFF00EC010000BD
S12312C6F6C897FBC893F7C893F6C89FFBC89BF7C89BF6C8A7FBC8A3F7C8A3F6C8AFFBC895
S12312E6ABF7C8ABF6C8B7FBC8B3F7C8B3F6C8BFFBC8BBF7C8BBF6C8C7FBC8C3F7C8C3F67A
S1231306C8CFFBC8CBF7C8CBF6C8D7FBC8D3F7C8D3F6C898FBC894F7C894F6C8A0FBC89C9A
S1231326F7C89CF6C8A8FBC8A4F7C8A4F6C8B0FBC8ACF7C8ACF6C8B8FBC8B4F7C8B4F6C8B2
S1231346C0FBC8BCF7C8BCF6C8C8FBC8C4F7C8C4F6C8D0FBC8CCF7C8CCF6C8D8FBC8D4F76D
S1231366C8D4397CC8937CC89B7CC8A37CC8AB7CC8B37CC8BB7CC8C37CC8CB7CC8D37CC89B
S1231386947CC89C7CC8A47CC8AC7CC8B47CC8BC7CC8C47CC8CC7CC8D439F6C897FBC893EB
S12313A6F7C893F6C89FFBC89BF7C89BF6C8A7FBC8A3F7C8A3F6C8AFFBC8ABF7C8ABF6C88C
S12313C6B7FBC8B3F7C8B3F6C8BFFBC8BBF7C8BBF6C8C7FBC8C3F7C8C3F6C8CFFBC8CBF750
S12313E6C8CBF6C8D7FBC8D3F7C8D3F6C898FBC894F7C894F6C8A0FBC89CF7C89CF6C8A815
S1231406FBC8A4F7C8A4F6C8B0FBC8ACF7C8ACF6C8B8FBC8B4F7C8B4F6C8C0FBC8BCF7C894
S1231426BCF6C8C8FBC8C4F7C8C4F6C8D0FBC8CCF7C8CCF6C8D8FBC8D4F7C8D439C4DDC450
S1231446E7C4F1C4FBC405C40FC419C423BADDBAE7BAF1BAFBBA05BA0FBA19BA23002020B7
S1231466FFE0E0002000FFE020010000003CC4FF0078FF8800FF0088FF7800010000003C4A
S1231486C4FF0078FF8800FF0088FF7800FF8878007800FF8888010000001020FFE0E0000C
S12314A62000FFE020010000002010FFE000001010FF00E0010000FF8800FF0078FF78007E
S12314C6FF008801000000887800880000880000880000EC9C00EC9C00ECBAFF0064FF00CA
S12314E664FF005A003CE2FF9C32FF003CFF004BFF324BFF324BFF3200FF1E3CFF5028FFBD
S12315063C00FF14ECFF0FE2FFECCE001432FF1E1EFF4600FF1EF6FFD8BA002846FF4600C0
S1231526FF32E7FF00C4FFCEE7FFE7CE004B4BFF3CE2FF3CE2FF3CCEFF00CEFF28CEFF1EA6
S12315469CFFE2C4FFE2BF010000008888008800008800008800FF9CCEFF00C4FF00B5FF18
S123156632B5FF32B5FF3200FF1EC4FF50D8FF3C00FF1414FF0F1EFFEC320014CEFF1EE2CF
S1231586FF4600FF1E0AFFD8460028BAFF4600FF3219FF003CFFCE19FFE732004BB5FF3CD3
S12315A61EFF3C1EFF3C32FF0032FF2832FF1E64FFE23CFFE24101000000500000887800A2
S12315C6880000880000880000EC9C00EC9C00ECBAFF0064FF0064FF005A003CE2FF9C32A9
S12315E6FF003CFF004BFF324BFF324BFF3200FF1E3CFF5028FF3C00FF14ECFF0FE2FFEC4E
S1231606CE001432FF1E1EFF4600FF1EF6FFD8BA002846FF4600FF32E7FF00C4FFCEE7FF47
S1231626E7CE004B4BFF3CE2FF3CE2FF3CCEFF00CEFF28CEFF1E9CFFE2C4FFE2BFFF1EBF76
S1231646FF1EC4FFE29CFFD8CEFF00CEFFC4CEFFC4E2FFC4E200B54BFF19CEFF32E7FF00D8
S1231666C4FFCEE7FFBA0000D846FF28BAFFE2F6FFBA00FFE21E00EC32FF14CEFFF1E2FFD1
S1231686ECECFFC400FFB028FFE23CFFCE00FFCE4BFFCE4BFF004BFF003CFF643200780022
S12316A600780000780000787801000000003CAB28AB14AB000400FFF60AFFF6F6000A0AC4
S12316C6FF00EC010000F6C89AC101102701A57AC899F6C899C10810230179F6C8A2C10153
S12316E61027017E7AC8A1F6C8A1C10810230144F6C8AAC101102701497AC8A9F6C8A9C1E9
S1231706081023010FF6C8B2C101102701147AC8B1F6C8B1C108102300DAF6C8BAC1011074
S12317262700DF7AC8B9F6C8B9C108102300A5F6C8C2C101102700AA7AC8C1F6C8C1C10818
S123174610230070F6C8CAC101102700757AC8C9F6C8C9C1082342F6C8D2C10127477AC824
S1231766D1F6C8D1C1082317F6C8DAC101271C7AC8D9F6C8D9C1082205C601F7C8DA39C65E
S123178601F7C8D2F6C8DAC10126E47CC8D9F6C8D9C12023E97FC8DA39C601F7C8CAF6C840
S12317A6D2C10126B97CC8D1F6C8D1C12023B97FC8D220B4C601F7C8C2F6C8CAC101102696
S12317C6FF8B7CC8C9F6C8C9C1201023FF897FC8CA16FF83C601F7C8BAF6C8C2C1011026E4
S12317E6FF567CC8C1F6C8C1C1201023FF567FC8C216FF50C601F7C8B2F6C8BAC101102687
S1231806FF217CC8B9F6C8B9C1201023FF217FC8BA16FF1BC601F7C8AAF6C8B2C10110262D
S1231826FEEC7CC8B1F6C8B1C1201023FEEC7FC8B216FEE6C601F7C8A2F6C8AAC1011026D7
S1231846FEB77CC8A9F6C8A9C1201023FEB77FC8AA16FEB1C601F7C89AF6C8A2C10110267E
S1231866FE827CC8A1F6C8A1C1201023FE827FC8A216FE7C7CC899F6C899C1201023FE5BEC
S12318867FC89A16FE55C4DDC4E7C4F1C4FBC405C40FC419C423BADDBAE7BAF1BAFBBA057D
S12318A6BA0FBA19BA23002020FFE0E0002000FFE020010000003CC4FF0078FF8800FF0089
S12318C688FF7800010000003CC4FF0078FF8800FF0088FF7800FF8878007800FF8888017B
S12318E60000001020FFE0E0002000FFE020010000002010FFE000001010FF00E0010000C0
S1231906FF8800FF0078FF7800FF008801000000887800880000880000880000EC9C00ECB4
S12319269C00ECBAFF0064FF0064FF005A003CE2FF9C32FF003CFF004BFF324BFF324BFFD5
S12319463200FF1E3CFF5028FF3C00FF14ECFF0FE2FFECCE001432FF1E1EFF4600FF1EF6BF
S1231966FFD8BA002846FF4600FF32E7FF00C4FFCEE7FFE7CE004B4BFF3CE2FF3CE2FF3CCB
S1231986CEFF00CEFF28CEFF1E9CFFE2C4FFE2BF010000008888008800008800008800FF07
S12319A69CCEFF00C4FF00B5FF32B5FF32B5FF3200FF1EC4FF50D8FF3C00FF1414FF0F1EA9
S12319C6FFEC320014CEFF1EE2FF4600FF1E0AFFD8460028BAFF4600FF3219FF003CFFCEFD
S12319E619FFE732004BB5FF3C1EFF3C1EFF3C32FF0032FF2832FF1E64FFE23CFFE2410142
S1231A06000000500000887800880000880000880000EC9C00EC9C00ECBAFF0064FF006458
S1231A26FF005A003CE2FF9C32FF003CFF004BFF324BFF324BFF3200FF1E3CFF5028FF3C9F
S1231A4600FF14ECFF0FE2FFECCE001432FF1E1EFF4600FF1EF6FFD8BA002846FF4600FFB8
S1231A6632E7FF00C4FFCEE7FFE7CE004B4BFF3CE2FF3CE2FF3CCEFF00CEFF28CEFF1E9CC4
S1231A86FFE2C4FFE2BFFF1EBFFF1EC4FFE29CFFD8CEFF00CEFFC4CEFFC4E2FFC4E200B5BB
S1231AA64BFF19CEFF32E7FF00C4FFCEE7FFBA0000D846FF28BAFFE2F6FFBA00FFE21E0015
S1231AC6EC32FF14CEFFF1E2FFECECFFC400FFB028FFE23CFFCE00FFCE4BFFCE4BFF004B56
S1231AE6FF003CFF643200780000780000780000787801000000003CAB28AB14AB00040036
S1231B06FFF60AFFF6F6000A0AFF00EC010000393440327CE761CEC8DBE66154545454E83E
S1231B2661E7E4585858E762E6E4EB62E762595959C403E862E7E45858E763E6E4EB63E7DE
S1231B46635454545454E863E761EBC4E7E4CC0009EDE3E6624F1F01BD22A932621F10E7D9
S10E1B66C01183C8EF26B2326435C002
S1231B71C4DDC4E7C4F1C4FBC405C40FC419C423BADDBAE7BAF1BAFBBA05BA0FBA19BA2360
S1231B91002020FFE0E0002000FFE020010000003CC4FF0078FF8800FF0088FF7800010014
S1231BB100003CC4FF0078FF8800FF0088FF7800FF8878007800FF8888010000001020FF5E
S1231BD1E0E0002000FFE020010000002010FFE000001010FF00E0010000FF8800FF007803
S1231BF1FF7800FF008801000000887800880000880000880000EC9C00EC9C00ECBAFF0084
S1231C1164FF0064FF005A003CE2FF9C32FF003CFF004BFF324BFF324BFF3200FF1E3CFF9E
S1231C315028FF3C00FF14ECFF0FE2FFECCE001432FF1E1EFF4600FF1EF6FFD8BA0028465C
S1231C51FF4600FF32E7FF00C4FFCEE7FFE7CE004B4BFF3CE2FF3CE2FF3CCEFF00CEFF281A
S1231C71CEFF1E9CFFE2C4FFE2BF010000008888008800008800008800FF9CCEFF00C4FFAF
S1231C9100B5FF32B5FF32B5FF3200FF1EC4FF50D8FF3C00FF1414FF0F1EFFEC320014CEE8
S1231CB1FF1EE2FF4600FF1E0AFFD8460028BAFF4600FF3219FF003CFFCE19FFE732004B92
S1231CD1B5FF3C1EFF3C1EFF3C32FF0032FF2832FF1E64FFE23CFFE2410100000050000080
S1231CF1887800880000880000880000EC9C00EC9C00ECBAFF0064FF0064FF005A003CE244
S1231D11FF9C32FF003CFF004BFF324BFF324BFF3200FF1E3CFF5028FF3C00FF14ECFF0F1B
S1231D31E2FFECCE001432FF1E1EFF4600FF1EF6FFD8BA002846FF4600FF32E7FF00C4FFFC
S1231D51CEE7FFE7CE004B4BFF3CE2FF3CE2FF3CCEFF00CEFF28CEFF1E9CFFE2C4FFE2BF6C
S1231D71FF1EBFFF1EC4FFE29CFFD8CEFF00CEFFC4CEFFC4E2FFC4E200B54BFF19CEFF32B0
S1231D91E7FF00C4FFCEE7FFBA0000D846FF28BAFFE2F6FFBA00FFE21E00EC32FF14CEFF8B
S1231DB1F1E2FFECECFFC400FFB028FFE23CFFCE00FFCE4BFFCE4BFF004BFF003CFF643296
S1231DD100780000780000780000787801000000003CAB28AB14AB000400FFF60AFFF6F62E
S1231DF1000A0AFF00EC010000C61FF7C893C6E0F7C894C61FF7C89B7FC89CF7C8A3F7C85B
S1231E11A47FC8ABC6E0F7C8AC7FC8B37FC8B47FC8BBC61FF7C8BCC6E0F7C8C3F7C8C4F70D
S1231E31C8CB7FC8CCF7C8D3C61FF7C8D4C608F7C899F7C8A1F7C8A9F7C8B1F7C8B9F7C848
S1231E51C1F7C8C9F7C8D1F7C8D98E2103BFC895BFC89DBFC8A5BFC8ADBFC8B5BFC8BDBF6B
S1231E71C8C5BFC8CDBFC8D539C4DDC4E7C4F1C4FBC405C40FC419C423BADDBAE7BAF1BA1A
S1231E91FBBA05BA0FBA19BA23002020FFE0E0002000FFE020010000003CC4FF0078FF88DD
S1231EB100FF0088FF7800010000003CC4FF0078FF8800FF0088FF7800FF8878007800FF9C
S1231ED18888010000001020FFE0E0002000FFE020010000002010FFE000001010FF00E0BF
S1231EF1010000FF8800FF0078FF7800FF008801000000887800880000880000880000EC4B
S1231F119C00EC9C00ECBAFF0064FF0064FF005A003CE2FF9C32FF003CFF004BFF324BFFD8
S1231F31324BFF3200FF1E3CFF5028FF3C00FF14ECFF0FE2FFECCE001432FF1E1EFF460065
S1231F51FF1EF6FFD8BA002846FF4600FF32E7FF00C4FFCEE7FFE7CE004B4BFF3CE2FF3CE4
S1231F71E2FF3CCEFF00CEFF28CEFF1E9CFFE2C4FFE2BF0100000088880088000088000080
S1231F918800FF9CCEFF00C4FF00B5FF32B5FF32B5FF3200FF1EC4FF50D8FF3C00FF14145D
S1231FB1FF0F1EFFEC320014CEFF1EE2FF4600FF1E0AFFD8460028BAFF4600FF3219FF00E9
S1231FD13CFFCE19FFE732004BB5FF3C1EFF3C1EFF3C32FF0032FF2832FF1E64FFE23CFF6C
S1231FF1E24101000000500000887800880000880000880000EC9C00EC9C00ECBAFF0064A7
S1232011FF0064FF005A003CE2FF9C32FF003CFF004BFF324BFF324BFF3200FF1E3CFF50AE
S123203128FF3C00FF14ECFF0FE2FFECCE001432FF1E1EFF4600FF1EF6FFD8BA002846FFA9
S12320514600FF32E7FF00C4FFCEE7FFE7CE004B4BFF3CE2FF3CE2FF3CCEFF00CEFF28CE47
S1232071FF1E9CFFE2C4FFE2BFFF1EBFFF1EC4FFE29CFFD8CEFF00CEFFC4CEFFC4E2FFC4A8
S1232091E200B54BFF19CEFF32E7FF00C4FFCEE7FFBA0000D846FF28BAFFE2F6FFBA00FF8D
S12320B1E21E00EC32FF14CEFFF1E2FFECECFFC400FFB028FFE23CFFCE00FFCE4BFFCE4BAF
S12320D1FF004BFF003CFF643200780000780000780000787801000000003CAB28AB14ABFF
S12320F1000400FFF60AFFF6F6000A0AFF00EC0100003420327DE762BDF354C61FD704C607
S1232111C8E7E25FBD234AC64FD704E6634FED615849584958498EC893318BE6A4E7E2E6F9
S123213121BD234AE626D7048E1EA9326535207EF4103420327DE762BDF354C61FD704C6BF
S1232151C8E7E25FBD234AE6634FED615849584958498EC893318BE6A4E7E2E621BD234A5E
S1232171E626D7048E1EBB326535207EF4103440327DE762BDF354C6FFD704E6624FEDE416
S12321915849CE1E7A30CBE684E7E2E601BD234AC620D7048E1E9A326435407EF4103440DC
S12321B1327DE762BDF354C6FFD704E6624FEDE45849CE1E7A30CBE684E7E2E601BD234AC0
S12321D1C620D7048E1EE5326435407EF410BDF354C640D704CB1AE7E2CB2EBD234AC6800F
S12321F1D7048E1EF4BDF410BDF354C618D704CB38E7E25FBD234A8E1F03BDF410BDF35407
S1232211C650E7E25FBD234A32638E1F877EF410BDF354C630D704C678E7E2CB10BD234A15
S1232231C678E7E2CB10BD234A6FE2C6CEBD234A8EC8EFBDF3CE32637EF3543440327DE747
S123225162BDF354C67FD704E6624FEDE45849CE20E930CBE684E7E2E601BD234AC660D7C7
S10E2271048E20F1326435407EF4102E
S123227C327EE7E4E664E761C6CCD70CC67FD704E6E4E764E66132627E22FD34403384BD27
S123229CF92E35C034603384BDF68735E0EC6226037EF0003410BD234F32621F01393440AF
S10822BCBDF28935C0EC
S12322C1327CE7E4C680E763C630E762E761E667C109230E6C61E661E667CBF6E767C109E7
S12322E122F2CB30E762C6CCD70CC67FD704E6E434043062E667BD22FD3265393440A664E1
S12323013384BDF37A35C0327BE763AF61E667E7E4E66358E7643404E663BD2345EC621FC4
S1232321894F1F01E6655C34041F10BD2345E665CB083404E663BD2345C607E76AC6F8329B
S1232341687E2345A6627EF256A6627EF312327D6F606C604D2B066C60584920F8ED61EC4A
S1232361656F656F66A3612406E3611CFE20021A0169666965646166626A6026E8326339B1
S10F2381FEE8FEB6808000803F00018072
S9030000FC
