S12300006720474345203230323580FD0DF85018B34E4555524F20564543544F5280008E76
S123002000AF271BCE005E33C90F5F33C9000033C90000108EC880A6C0A7A0301F26F88EAF
S12300400002270A108EC92F6FA0301F26FABD0E9C5D27068E0000BFCBFEBDF0003910F068
S12300601000101000F000000010F0F0F000F010C4DDC4E7C4F1C4FBC405C40FC419C4235C
S1230080BADDBAE7BAF1BAFBBA05BA0FBA19BA23002020FFE0E0002000FFE020010000006D
S12300A03CC4FF0078FF8800FF0088FF7800010000003CC4FF0078FF8800FF0088FF780043
S12300C0FF8878FF7800FF8888010000001020FFE0E0002000FFE020010000002010FFE078
S11C00E000001010FF00E0010000FF8800FF0078FF7800FF008801000006
S12300F9008878008800008800008800FF9C32FF003CFF004BFF324BFF324BFF3200FF1EB3
S12301193CFF5028FF3C00FF14ECFF0FE2FFECCE001432FF1E1EFF4600FF1EF6FFD8BA00C2
S12301392846FF4600FF32E7FF00C4FFCEE7FFE7CE004B4BFF3CE2FF3CE2FF3CCEFF00CE06
S1230159FF28CEFF1E9CFFE2C4FFE2CE010000000078FF7878FF3C00FF7878FF1008FF2DAB
S1230179FFFF05F6FF00F6FFFBF6010000008888008800008800008800FF9CCEFF00C4FFB0
S123019900B5FF32B5FF32B5FF3200FF1EC4FF50D8FF3C00FF1414FF0F1EFFEC320014CEFB
S12301B9FF1EE2FF4600FF1E0AFFD8460028BAFF4600FF3219FF003CFFCE19FFE732004BA5
S12301D9B5FF3C1EFF3C1EFF3C32FF0032FF2832FF1E64FFE23CFFE2320100003CC928C9FC
S11501F9000400FFF60AFFF6F6000A0AFF00EC01000002
S123020B3440327CE761BDF354C6FFD704C6EBE7E2C6FABD0F7A3261E6614F5849CE005F4A
S123022B30CBE684E7E4E6614F5849CE005E30CBE684E763E6E4E762E663E7E2E663BD0F33
S123024B7A3261C660D7048E0090BDF410326435C03440327CE761BDF354C6FFD704C6EE55
S123026BE7E25FBD0F7A3261E6614F5849CE005F30CBE684E7E4E6614F5849CE005E30CB7C
S123028BE684E763E6E4E762E663E7E2E663BD0F7A3261C610D7048E009FBDF410326435EA
S12302ABC03440327CE761BDF354C6FFD704C6EEE7E25FBD0F7A3261E6614F5849CE005F48
S12302CB30CBE684E7E4E6614F5849CE005E30CBE684E763E6E4E762E663E7E2E663BD0F93
S12302EB7A3261C610D7048E00B1BDF410326435C03440327CE761BDF354C6FFD704E66151
S123030B4F5849CE007130CBE684E7E4E6614F5849CE007030CBE684E763E6E4E762E663EF
S123032BE7E2E663BD0F7A3261C620D7048E0090BDF410326435C03440327CE761BDF3542A
S123034BC6FFD704E6614F5849CE007130CBE684E7E4E6614F5849CE007030CBE684E76324
S123036BE6E4E762E663E7E2E663BD0F7A3261C620D7048E00DBBDF410326435C0BDF354AD
S123038BC680D704C619E7E2C6C4BD0F7A32618E00EABDF410BDF354C618D7046FE25FBDBF
S12303AB0F7A32618E00F9BDF410BDF3546FE25FBD0F7A32618E0186BDF41039327FE7E4B2
S12303CBBDF354C67FD704C646E7E2C6C4BD0F7A3261E6E4D7046FE2C650BD0F703261BD1A
S12303EBF354C67FD704C642E7E2C6C4BD0F7A3261E6E4D7046FE2C650BD0F703261BDF3C8
S123040B54C67FD704C63EE7E2C6C4BD0F7A3261E6E4D7046FE2C650BD0F703261C6FFD7B2
S123042B043261393440327CE761BDF354C67FD704E6611D5849CE01F630CBE684E7E4E66F
S123044B611D5849CE01F530CBE684E763E6E4E762E663E7E2E663BD0F7A3261C660D704B3
S123046B8E01F9BDF410326435C010F01000101000F000000010F0F0F000F010C4DDC4E74D
S123048BC4F1C4FBC405C40FC419C423BADDBAE7BAF1BAFBBA05BA0FBA19BA23002020FF6A
S12304ABE0E0002000FFE020010000003CC4FF0078FF8800FF0088FF7800010000003CC450
S12304CBFF0078FF8800FF0088FF7800FF8878FF7800FF8888010000001020FFE0E000207C
S12304EB00FFE020010000002010FFE000001010FF00E0010000FF8800FF0078FF7800FF6A
S108050B00880100005E
S1230510008878008800008800008800FF9C32FF003CFF004BFF324BFF324BFF3200FF1E97
S12305303CFF5028FF3C00FF14ECFF0FE2FFECCE001432FF1E1EFF4600FF1EF6FFD8BA00A7
S12305502846FF4600FF32E7FF00C4FFCEE7FFE7CE004B4BFF3CE2FF3CE2FF3CCEFF00CEEB
S1230570FF28CEFF1E9CFFE2C4FFE2CE010000000078FF7878FF3C00FF7878FF1008FF2D90
S1230590FFFF05F6FF00F6FFFBF6010000008888008800008800008800FF9CCEFF00C4FF95
S12305B000B5FF32B5FF32B5FF3200FF1EC4FF50D8FF3C00FF1414FF0F1EFFEC320014CEE0
S12305D0FF1EE2FF4600FF1E0AFFD8460028BAFF4600FF3219FF003CFFCE19FFE732004B8A
S12305F0B5FF3C1EFF3C1EFF3C32FF0032FF2832FF1E64FFE23CFFE2320100003CC928C9E1
S1150610000400FFF60AFFF6F6000A0AFF00EC010000E6
S1230622BD0DC5BD0E6A5F3910F01000101000F000000010F0F0F000F010C4DDC4E7C4F157
S1230642C4FBC405C40FC419C423BADDBAE7BAF1BAFBBA05BA0FBA19BA23002020FFE0E0A6
S1230662002000FFE020010000003CC4FF0078FF8800FF0088FF7800010000003CC4FF0058
S123068278FF8800FF0088FF7800FF8878FF7800FF8888010000001020FFE0E0002000FFC3
S12306A2E020010000002010FFE000001010FF00E0010000FF8800FF0078FF7800FF008828
S10606C201000030
S12306C5008878008800008800008800FF9C32FF003CFF004BFF324BFF324BFF3200FF1EE1
S12306E53CFF5028FF3C00FF14ECFF0FE2FFECCE001432FF1E1EFF4600FF1EF6FFD8BA00F1
S12307052846FF4600FF32E7FF00C4FFCEE7FFE7CE004B4BFF3CE2FF3CE2FF3CCEFF00CE34
S1230725FF28CEFF1E9CFFE2C4FFE2CE010000000078FF7878FF3C00FF7878FF1008FF2DD9
S1230745FFFF05F6FF00F6FFFBF6010000008888008800008800008800FF9CCEFF00C4FFDE
S123076500B5FF32B5FF32B5FF3200FF1EC4FF50D8FF3C00FF1414FF0F1EFFEC320014CE29
S1230785FF1EE2FF4600FF1E0AFFD8460028BAFF4600FF3219FF003CFFCE19FFE732004BD3
S12307A5B5FF3C1EFF3C1EFF3C32FF0032FF2832FF1E64FFE23CFFE2320100003CC928C92A
S11507C5000400FFF60AFFF6F6000A0AFF00EC01000030
S12307D7327D6F62202BE662E761E6621D1F01E689C8FB4F8E000A34101F01BD0EE832625A
S12307F71F10E7E4E6611D1F01E6E4E789C8FB6C62E662C1132FCF3263393279E7656F66E1
S1230817160072E66554545454E761E665E861E765E665585858E7E4E6E4EB65E765E665A3
S1230837595959C403E762E665E862E765E6655858E7E4E6E4EB65E765E665545454545486
S1230857E763E665E863E765E666E764E6661D1F01E689C8FBEB654F8E000A34101F01BDA7
S12308770EE832621F10E7E4E6641D1F01E6E4E789C8FB6C66E666C113102FFF86326739CD
S123089754494D45204C454654800047414D45204F5645528000C6C4E7E28E0897C664BDE6
S12308B70EAC3261F6C927BD03C7F6C9275D2610C6C4E7E28E08A2C664BD0EAC326120F01B
S12308D739327DE7622008F6C8F8EB62BD02FCE662E7616D612704C601E761E6616A625DDE
S12308F726E52005E665BD0342E665E7E46DE42704C601E7E4E6E46A655D26E83263395218
S1230917454D454D42455220544845800053455155454E43458000327F6FE42054C6C8F768
S1230937C927BDF192BD0388C6B5E7E28E0916C664BD0EAC3261C6CEE7E28E0924C650BD14
S12309570EAC3261BD0C77E6E44F1F01E689C8FBBD02ACE6E45C6FE2BD08D83261F6C92390
S12209775AF7C923F6C9235D26B3C61EF7C9236CE4F6C9245CE1E422E47FC926326139AD
S1230996505245535320425554544F4E20328000544F20524553544152548000327FC6C43F
S12309B6E7E28E08A2C664BD0EAC3261C6B0E7E28E0996C650BD0EAC3261C6C4E7E28E0972
S12309D6A6C63CBD0EAC3261BDF1BAF6C811C4025D27278E0CFCBFC92F6FE4200BE6E41DF1
S12009F61F016F89C90F6CE4E6E4C1132FEFF6C924BD08117FC9247FC8F8326139B4
S1230A13BDF1F8F6C81BF7C928F6C81CF7C929F6C9285D2C0EF6C9295D2F088E02ACBFC8D8
S1230A33D620068E025CBFC8D6F6C9285D260EF6C9295D2F088E02ACBFC8DA20068E025CB7
S1230A53BFC8DAF6C9285D2F0EF6C9295D2F088E02ACBFC8DE20068E025CBFC8DEF6C92822
S1230A735D2C0EF6C9295D26088E02ACBFC8E220068E025CBFC8E2F6C9285D260EF6C929D5
S1230A935D26088E02ACBFC8E620068E025CBFC8E6F6C9285D2F0EF6C9295D26088E02AC5C
S1230AB3BFC8EA20068E025CBFC8EAF6C9285D2C0EF6C9295D2C088E02ACBFC8EE20068ECF
S1230AD3025CBFC8EEF6C9285D260EF6C9295D2C088E02ACBFC8F220068E025CBFC8F2F605
S1230AF3C9285D2F0EF6C9295D2C088E02ACBFC8F620068E025CBFC8F639327EBDF1BABD85
S1230B13F1F8F6C81BF7C928F6C81CF7C929F6C81BF7C928F6C81CF7C929F6C9285D2C0B52
S1230B33F6C9295D2F057FC92A2006F6C92AF7C92AF6C9285D260DF6C9295D2F07C601F70A
S1230B53C92A2006F6C92AF7C92AF6C9285D2F0DF6C9295D2F07C602F7C92A2006F6C92AD6
S1230B73F7C92AF6C9285D2C0DF6C9295D2607C603F7C92A2006F6C92AF7C92AF6C9285D95
S1230B93260DF6C9295D2607C604F7C92A2006F6C92AF7C92AF6C9285D2F0DF6C9295D2601
S1230BB307C605F7C92A2006F6C92AF7C92AF6C9285D2C0DF6C9295D2C07C606F7C92A209E
S1230BD306F6C92AF7C92AF6C9285D260DF6C9295D2C07C607F7C92A2006F6C92AF7C92A86
S1230BF3F6C9285D2F0DF6C9295D2C07C608F7C92A2006F6C92AF7C92AF6C811C4015D271D
S1230C131CF6C8F8E7E4F6C92AE761E6E44F1F01E661E789C90FF6C8F85CF7C8F832623991
S1230C3321534E45414B59204F46465345542180007FC8F9F6C924C1032328F6C924C1074C
S1230C532221C6C8E7E28E0190C603BD0F0B3261C6A6E7E28E0C33C673BD0EAC3261C60383
S1230C73F7C8F939BEC8D65FAD84BEC8DAC601AD84BEC8DEC602AD84BEC8E2C603AD84BEAB
S1230C93C8E6C604AD84BEC8EAC605AD84BEC8EEC606AD84BEC8F2C607AD84BEC8F6C608F7
S1230CB3AD8439327DBD0388BD08ADBD0C77F6C8F8E761F6C924E762F6C8F8E7E4E662E037
S1230CD3E4E7E4E6E45CE7E4E6613404E661BD08D83261F6C8FAC1032603BD0C44BD0A13DB
S1230CF3BD0B0DBD0D09326339BD0388BD092E8E0CB6BFC92F39327BF6C8F8E764201EE619
S1230D13644F1F01E689C8FBE762E6644F1F01E689C90FE16227068E09B2BFC92FE664E7CD
S1230D33616D612704C601E761E6616A645D26CFF6C924E7E4E6E45CE763F6C8F8E163268E
S1230D534B8E025CBFC8D68E025CBFC8DA8E025CBFC8DE8E025CBFC8E28E025CBFC8E68E0E
S1230D73025CBFC8EA8E025CBFC8EE8E025CBFC8F28E025CBFC8F6F6C9245CF7C9247FC8F4
S1230D93F8C6C8F7C9278E0CFCBFC92F32653953454C454354205448452047414D454D4F1B
S1230DB3444580004E4F524D414C8000484152448000327FC601F7C81FC603F7C8207FC8E6
S1230DD3217FC8226FE4160074BDF1BA6CE4C688E7E28E0DA2C664BD0EAC3261C6CEE7E2F8
S1230DF38E0DB7C63CBD0EAC3261C6CEE7E28E0DBFC628BD0EAC3261BDF1BABDF1F8F6C803
S1230E131C5D2706F6C81CF7C929F6C9295D2F045FBD042FF6C9295D2C05C601BD042FF668
S1230E33C811C4015D2716F6C9295D2F05C602F7C8FAF6C9295D2C05C603F7C8FAF6C8FAB9
S1230E53C101102FFF83E6E4BD08117FC9258E0CFCBFC92F326139327C2025BDF1AFBEC9FB
S1230E732BAFE4AEE4BD0ED6BEC92DAF62AE62BD0EDFBDF192BD0EF9BDF2A5BEC92FAD84AC
S1230E93F6C9255D27D5326439327FBD0622E7E46DE427F7E6E43261393279E762AFE4C67C
S1230EB3CCD70CC67FD704E662E766E669E765AEE4AF63E666E7E2AE64E666BD0F003261A6
S1230ED332673934403384BDF92E35C034603384BDF68735E0EC6226037EF0003410BD0F96
S1100EF37F32621F01393440BDF28935C0E1
S1230F003440A6643384BDF37A35C03273E762AFE4E66258E763ECE4E764E6636C63E7688C
S1230F20E664E767E668E7E2E668BD0F753261ECE41F894FE765E663E76AE665E769E66A44
S1230F40E7E2E66ABD0F753261E662CB08E766E666E76CE66FE76BE66CE7E2E66CBD0F7544
S1230F603261C607E7E2C6F8BD0F753261326D39A6627EF3DFA6627EF256A6627EF31232F7
S1230F807D6F606C604D2B066C60584920F8ED61EC656F656F66A3612406E3611CFE20023C
S1200FA01A0169666965646166626A6026E8326339FEE8FEB6808000803F0001806B
S9030000FC
