S12300006720474345203230323580FD0DF85018B34E4555524F20564543544F5280008E76
S123002000CF271BCE005D33C9194033C9000033C90000108EC880A6C0A7A0301F26F88EA5
S1230040001E270A108EC94F6FA0301F26FABD02115D2706CC0000FDCBFE7EF000C4DDC45A
S1230060E7C4F1C4FBC405C40FC419C423BADDBAE7BAF1BAFBBA05BA0FBA19BA23002020B1
S1230080FFE0E0002000FFE020010000003CC4FF0078FF8800FF0088FF7800010000003C44
S12300A0C4FF0078FF8800FF0088FF7800FF8878007800FF8888010000001020FFE0E00006
S12300C02000FFE020010000002010FFE000001010FF00E0010000FF8800FF0078FF780078
S12300E0FF0088010000FF001EFF0F0AFFF10AFF000FFFF10AFF2D0FFFC90FFF190FFF0005
S12301000F01000000887800880000880000880000EC9C00EC9C00ECBAFF0064FF0064FFB8
S1230120005A003CE2FF9C32FF003CFF004BFF324BFF324BFF3200FF1E3CFF5028FF3C00BD
S1230140FF14ECFF0FE2FFECCE001432FF1E1EFF4600FF1EF6FFD8BA002846FF4600FF32A5
S1230160E7FF00C4FFCEE7FFE7CE004B4BFF3CE2FF3CE2FF3CCEFF00CEFF28CEFF1E9CFF16
S1230180E2C4FFE2BF010000008888008800008800008800FF9CCEFF00C4FF00B5FF32B5A6
S12301A0FF32B5FF3200FF1EC4FF50D8FF3C00FF1414FF0F1EFFEC320014CEFF1EE2FF464B
S12301C000FF1E0AFFD8460028BAFF4600FF3219FF003CFFCE19FFE732004BB5FF3C1EFFD5
S12301E03C1EFF3C32FF0032FF2832FF1E64FFE23CFFE24101000000003CAB28AB14AB0070
S11402000400FFF60AFFF6F6000A0AFF00EC010000FB
S1230211BD04FDBD078220F8C4DDC4E7C4F1C4FBC405C40FC419C423BADDBAE7BAF1BAFBF5
S1230231BA05BA0FBA19BA23002020FFE0E0002000FFE020010000003CC4FF0078FF880054
S1230251FF0088FF7800010000003CC4FF0078FF8800FF0088FF7800FF8878007800FF8890
S123027188010000001020FFE0E0002000FFE020010000002010FFE000001010FF00E001C2
S12302910000FF8800FF0078FF7800FF0088010000FF001EFF0F0AFFF10AFF000FFFF10A15
S12302B1FF2D0FFFC90FFF190FFF000F01000000887800880000880000880000EC9C00ECD5
S12302D19C00ECBAFF0064FF0064FF005A003CE2FF9C32FF003CFF004BFF324BFF324BFF41
S12302F13200FF1E3CFF5028FF3C00FF14ECFF0FE2FFECCE001432FF1E1EFF4600FF1EF62B
S1230311FFD8BA002846FF4600FF32E7FF00C4FFCEE7FFE7CE004B4BFF3CE2FF3CE2FF3C36
S1230331CEFF00CEFF28CEFF1E9CFFE2C4FFE2BF010000008888008800008800008800FF72
S12303519CCEFF00C4FF00B5FF32B5FF32B5FF3200FF1EC4FF50D8FF3C00FF1414FF0F1E14
S1230371FFEC320014CEFF1EE2FF4600FF1E0AFFD8460028BAFF4600FF3219FF003CFFCE68
S123039119FFE732004BB5FF3C1EFF3C1EFF3C32FF0032FF2832FF1E64FFE23CFFE24101AD
S11F03B1000000003CAB28AB14AB000400FFF60AFFF6F6000A0AFF00EC010000C5
S12303CD327FBD175DBD09D7AD9FC95BBD0AD3BD0A0DBD0732F6C886F0C884E7E4F6C8842C
S12303ED3404E661BD09A5BD095432623952454D454D4245522054484580005345515545C8
S123040D4E434580003420327CBD175DF6C886E7621027007F6F637AC885F6C885102700EC
S123042D61BDF192BD175D6FE2F6C886BD09A5BD09D7E6644FED611F013189C8F0E6A4BD7C
S123044D16BDE6A4860F3DE761E661CB78E761C6C8E7E2E6624F1F01C602BD1913C6B5E721
S123046DE28E03FAC66EBD1885C6CEE7E28E0408C65ABD18857AC885F6C88532645D1026CC
S123048DFF9FC61EF7C8856C63F6C886E762E1631022FF83C6C8F7C8876FE2E663BD09A558
S12304AD7FC894C620F7C905C608F7C8928E03CDBFC95D326535A053454C4543542054485B
S12304CD452047414D454D4F444580004E4F524D414C2031362F8000484152442020203138
S12304ED362F800045585452454D2031362F8000327DC601F7C81FC603F7C8207FC8217F18
S123050DC8226F61C601E7622013C601E762F6C881BD1855F6C811C5081026009C7DC88120
S123052D102700B8BDF1926C61BDF1BAC688E7E28E04C4C664BD1885C6B0E7E28E04D9C6E5
S123054D3CBD1885C6B0E7E28E04E5C628BD1885C6B0E7E28E04F1C614BD1885F6C88BE7D0
S123056DE2C61EE7E2C63CBD18CAF6C88CE7E2C61EE7E2C628BD18CA3268F6C88DE7E2C679
S123058D1EE7E2C614BD18CABDF1F8F6C81C32625D1027FF752F53F6C881E7E4C10110234D
S12305ADFF6CE662C101275D6F62F6C881BD1855F6C811C5081027FF64C601F7C891BD14D9
S12305CD4EF6C881C1012708C1022744C103274E8E11A6BFC95B8EC88BBFC88EE661BD11F2
S12305EDA78E0412BFC95D326339F6C881E7E4C1021022FF19E662C1011026FF11E6E45C5F
S123060DF7C88120A3E6E45AF7C8816F6216FEFE8E0FC2BFC95B8EC88CBFC88E20BE8E0DCD
S123062DA3BFC95B8EC88DBFC88E20B047414D45204F5645528000505245535320425554CD
S123064D544F4E20328000544F20524553544152548000505245535320425554544F4E20B5
S123066D338000544F20474F20544F20544845204D454E558000BEC88EF6C886E1842302E2
S123068DE784C6C4E7E28E0639C664BD1885C6B0E7E28E0644C646BD1885C6C4E7E28E06D6
S12306AD54C632BD1885C6B0E7E28E0660C614BD1885C69CE7E28E06705FBD1885BDF1BACC
S12306CD3265F6C811C5042622F6C811C5022601398E04FDBFC95DC601F7C881F6C886BD20
S12306ED11A77FC884C601F7C886398E0412BFC95DF6C886BD11A77FC884C601F7C886F711
S123070DC891BD144E8E167DBFC898BFC8A2BFC8ACBFC8B6BFC8C0BFC8CABFC8D4BFC8DE1F
S123072DBFC8E820A47DC89226068E0683BFC95D7DC89126068E0683BFC95DF6C886F1C87B
S123074D842701398E167DBFC898BFC8A2BFC8ACBFC8B6BFC8C0BFC8CABFC8D4BFC8DEBFB3
S123076DC8E85CF7C8867FC884C6C8F7C8878E0412BFC95D39BDF1AFBEC94BBD18A0BEC98B
S116078D4DBD18A9BDF192BD18C3BDF2A5AD9FC95D20E2EA
S12307A0C4DDC4E7C4F1C4FBC405C40FC419C423BADDBAE7BAF1BAFBBA05BA0FBA19BA2345
S12307C0002020FFE0E0002000FFE020010000003CC4FF0078FF8800FF0088FF78000100F9
S12307E000003CC4FF0078FF8800FF0088FF7800FF8878007800FF8888010000001020FF43
S1230800E0E0002000FFE020010000002010FFE000001010FF00E0010000FF8800FF0078E7
S1230820FF7800FF0088010000FF001EFF0F0AFFF10AFF000FFFF10AFF2D0FFFC90FFF1954
S12308400FFF000F01000000887800880000880000880000EC9C00EC9C00ECBAFF0064FFC6
S12308600064FF005A003CE2FF9C32FF003CFF004BFF324BFF324BFF3200FF1E3CFF50284E
S1230880FF3C00FF14ECFF0FE2FFECCE001432FF1E1EFF4600FF1EF6FFD8BA002846FF4654
S12308A000FF32E7FF00C4FFCEE7FFE7CE004B4BFF3CE2FF3CE2FF3CCEFF00CEFF28CEFF57
S12308C01E9CFFE2C4FFE2BF010000008888008800008800008800FF9CCEFF00C4FF00B58C
S12308E0FF32B5FF32B5FF3200FF1EC4FF50D8FF3C00FF1414FF0F1EFFEC320014CEFF1E45
S1230900E2FF4600FF1E0AFFD8460028BAFF4600FF3219FF003CFFCE19FFE732004BB5FFBF
S12309203C1EFF3C1EFF3C32FF0032FF2832FF1E64FFE23CFFE24101000000003CAB28AB8E
S117094014AB000400FFF60AFFF6F6000A0AFF00EC010000F2
S12309547CC894F6C894C1082714F6C905C12026067FC9057AC892BD182ABD0982397CC99A
S123097405F6C892F7C89420E142504D8000327EC646E7E28E097DCB1EBD1885F6C89286A5
S12309940C3DED613404C632E7E258BD18CA326539327DE7E427135AE762E662FBC884BD45
S12309B416FD6A62E662C1FF26F06D652712E6655AE761E661BD172D6A61E661C1FF26F3F7
S12309D43263395FAD9FC898C601AD9FC8A2C602AD9FC8ACC603AD9FC8B6C604AD9FC8C0F0
S12309F4C605AD9FC8CAC606AD9FC8D4C607AD9FC8DEC608AD9FC8E839327EBDF1BABDF1FA
S1230A14F8F6C81BE761F7C889F6C81CE7E4F7C88A6D61102D007726596DE4102F0075C6A3
S1230A3401F7C8886D6126576DE427326D612C336DE4102D00816D612F066DE4102D00662E
S1230A54F6C811C5082714F6C884E7E44F1F01E689C8F0F1C88827567FC891326239C604D7
S1230A74F7C8886D6126CF6DE42CD5C607F7C88820CE6D612F1E6DE42FAAC602F7C8886D3F
S1230A94612FA96DE426DCC605F7C88820A85D2F037FC8886D61102CFF8A6DE426E1C603C6
S1230AB4F7C88816FF86C608F7C88816FF92E6E45CF7C884326239C606F7C88816FF81326F
S1230AD47FBDF1F8F6C81BE7E4F7C889F6C81CF7C88A6DE42D548E167DBFC8986DE4102631
S1230AF400BE5D2F508E16BDBFC8A28E167DBFC8AC8E167DBFC8B66DE426535D1026008328
S1230B148E16BDBFC8C08E167DBFC8CA8E167DBFC8D46DE426515D102D00A28E167DBFC87B
S1230B34DE8E167DBFC8E83261395D102F00A08E16BDBFC8988E167DBFC8A28E167DBFC8B5
S1230B54AC6DE42CAC5D27358E167DBFC8B68E167DBFC8C06DE42F315D26AB8E16BDBFC862
S1230B74CA8E167DBFC8D48E167DBFC8DE6DE42FB05D2CAD8E16BDBFC8E83261398E16BD2E
S1230B94BFC8B68E167DBFC8C08E167DBFC8CA6DE4102CFF775D2D2E8E167DBFC8D420C708
S1230BB4BFC8A26DE4102FFF925D102FFF3D8E16BDBFC8AC8E167DBFC8B616FF918E16BD02
S1230BD4BFC8DE16FF5B8E16BDBFC8D416FF4C8E167DBFC898BFC8A216FF60C4DDC4E7C41D
S1230BF4F1C4FBC405C40FC419C423BADDBAE7BAF1BAFBBA05BA0FBA19BA23002020FFE0DE
S1230C14E0002000FFE020010000003CC4FF0078FF8800FF0088FF7800010000003CC4FFC0
S1230C340078FF8800FF0088FF7800FF8878007800FF8888010000001020FFE0E000200009
S1230C54FFE020010000002010FFE000001010FF00E0010000FF8800FF0078FF7800FF00F9
S1230C7488010000FF001EFF0F0AFFF10AFF000FFFF10AFF2D0FFFC90FFF190FFF000F0154
S1230C94000000887800880000880000880000EC9C00EC9C00ECBAFF0064FF0064FF005ACF
S1230CB4003CE2FF9C32FF003CFF004BFF324BFF324BFF3200FF1E3CFF5028FF3C00FF1465
S1230CD4ECFF0FE2FFECCE001432FF1E1EFF4600FF1EF6FFD8BA002846FF4600FF32E7FF33
S1230CF400C4FFCEE7FFE7CE004B4BFF3CE2FF3CE2FF3CCEFF00CEFF28CEFF1E9CFFE2C4B7
S1230D14FFE2BF010000008888008800008800008800FF9CCEFF00C4FF00B5FF32B5FF327B
S1230D34B5FF3200FF1EC4FF50D8FF3C00FF1414FF0F1EFFEC320014CEFF1EE2FF4600FFDD
S1230D541E0AFFD8460028BAFF4600FF3219FF003CFFCE19FFE732004BB5FF3C1EFF3C1EDA
S1230D74FF3C32FF0032FF2832FF1E64FFE23CFFE24101000000003CAB28AB14AB00040026
S1120D94FFF60AFFF6F6000A0AFF00EC01000062
S1230DA35FAD9FC89AC601AD9FC8A4C602AD9FC8AEC603AD9FC8B8C604AD9FC8C2C605AD69
S1230DC39FC8CCC606AD9FC8D6C607AD9FC8E0C608AD9FC8EA5FAD9FC89CC601AD9FC8A606
S1230DE3C602AD9FC8B0C603AD9FC8BAC604AD9FC8C4C605AD9FC8CEC606AD9FC8D8C607F5
S1230E03AD9FC8E2C608AD9FC8EC39C4DDC4E7C4F1C4FBC405C40FC419C423BADDBAE7BABC
S1230E23F1BAFBBA05BA0FBA19BA23002020FFE0E0002000FFE020010000003CC4FF007837
S1230E43FF8800FF0088FF7800010000003CC4FF0078FF8800FF0088FF7800FF8878007892
S1230E6300FF8888010000001020FFE0E0002000FFE020010000002010FFE000001010FF1E
S1230E8300E0010000FF8800FF0078FF7800FF0088010000FF001EFF0F0AFFF10AFF000F30
S1230EA3FFF10AFF2D0FFFC90FFF190FFF000F01000000887800880000880000880000EC65
S1230EC39C00EC9C00ECBAFF0064FF0064FF005A003CE2FF9C32FF003CFF004BFF324BFF37
S1230EE3324BFF3200FF1E3CFF5028FF3C00FF14ECFF0FE2FFECCE001432FF1E1EFF4600C4
S1230F03FF1EF6FFD8BA002846FF4600FF32E7FF00C4FFCEE7FFE7CE004B4BFF3CE2FF3C42
S1230F23E2FF3CCEFF00CEFF28CEFF1E9CFFE2C4FFE2BF01000000888800880000880000DE
S1230F438800FF9CCEFF00C4FF00B5FF32B5FF32B5FF3200FF1EC4FF50D8FF3C00FF1414BB
S1230F63FF0F1EFFEC320014CEFF1EE2FF4600FF1E0AFFD8460028BAFF4600FF3219FF0047
S1230F833CFFCE19FFE732004BB5FF3C1EFF3C1EFF3C32FF0032FF2832FF1E64FFE23CFFCA
S1220FA3E24101000000003CAB28AB14AB000400FFF60AFFF6F6000A0AFF00EC010000A0
S1230FC28EC89E20136A84E684C1082204C601E701300A8CC8F82717E601C10126E76C8484
S1230FE2E684C12023EB6F01300A8CC8F826E939C4DDC4E7C4F1C4FBC405C40FC419C42334
S1231002BADDBAE7BAF1BAFBBA05BA0FBA19BA23002020FFE0E0002000FFE02001000000DB
S12310223CC4FF0078FF8800FF0088FF7800010000003CC4FF0078FF8800FF0088FF7800B1
S1231042FF8878007800FF8888010000001020FFE0E0002000FFE020010000002010FFE0E5
S123106200001010FF00E0010000FF8800FF0078FF7800FF0088010000FF001EFF0F0AFF39
S1231082F10AFF000FFFF10AFF2D0FFFC90FFF190FFF000F010000008878008800008800EF
S12310A200880000EC9C00EC9C00ECBAFF0064FF0064FF005A003CE2FF9C32FF003CFF00A8
S12310C24BFF324BFF324BFF3200FF1E3CFF5028FF3C00FF14ECFF0FE2FFECCE001432FF9E
S12310E21E1EFF4600FF1EF6FFD8BA002846FF4600FF32E7FF00C4FFCEE7FFE7CE004B4B39
S1231102FF3CE2FF3CE2FF3CCEFF00CEFF28CEFF1E9CFFE2C4FFE2BF01000000888800882D
S123112200008800008800FF9CCEFF00C4FF00B5FF32B5FF32B5FF3200FF1EC4FF50D8FFB5
S12311423C00FF1414FF0F1EFFEC320014CEFF1EE2FF4600FF1E0AFFD8460028BAFF46004C
S1231162FF3219FF003CFFCE19FFE732004BB5FF3C1EFF3C1EFF3C32FF0032FF2832FF1E20
S123118264FFE23CFFE24101000000003CAB28AB14AB000400FFF60AFFF6F6000A0AFF002B
S10711A2EC01000058
S12311A6393440327CE761CEC8F0E66154545454E861E7E4585858E762E6E4EB62E7625947
S12311C65959C403E862E7E45858E763E6E4EB63E7635454545454E863E761EBC4E7E4CC9E
S11F11E60009EDE3E6624F1F01BD18B232621F10E7C01183C90426B2326435C0A4
S1231202C4DDC4E7C4F1C4FBC405C40FC419C423BADDBAE7BAF1BAFBBA05BA0FBA19BA23D8
S1231222002020FFE0E0002000FFE020010000003CC4FF0078FF8800FF0088FF780001008C
S123124200003CC4FF0078FF8800FF0088FF7800FF8878007800FF8888010000001020FFD6
S1231262E0E0002000FFE020010000002010FFE000001010FF00E0010000FF8800FF00787B
S1231282FF7800FF0088010000FF001EFF0F0AFFF10AFF000FFFF10AFF2D0FFFC90FFF19E8
S12312A20FFF000F01000000887800880000880000880000EC9C00EC9C00ECBAFF0064FF5A
S12312C20064FF005A003CE2FF9C32FF003CFF004BFF324BFF324BFF3200FF1E3CFF5028E2
S12312E2FF3C00FF14ECFF0FE2FFECCE001432FF1E1EFF4600FF1EF6FFD8BA002846FF46E8
S123130200FF32E7FF00C4FFCEE7FFE7CE004B4BFF3CE2FF3CE2FF3CCEFF00CEFF28CEFFEA
S12313221E9CFFE2C4FFE2BF010000008888008800008800008800FF9CCEFF00C4FF00B51F
S1231342FF32B5FF32B5FF3200FF1EC4FF50D8FF3C00FF1414FF0F1EFFEC320014CEFF1ED8
S1231362E2FF4600FF1E0AFFD8460028BAFF4600FF3219FF003CFFCE19FFE732004BB5FF53
S12313823C1EFF3C1EFF3C32FF0032FF2832FF1E64FFE23CFFE24101000000003CAB28AB22
S11713A214AB000400FFF60AFFF6F6000A0AFF00EC01000086
S12313B63440327E1D5849EDE458495849E3E4CEC89630CB6C84E684C1192F05CE1402EFF5
S12313D604326235C03440327E1D5849EDE458495849E3E48EC896338B30416C84E684C174
S12313F6192F058E1427AF46326235C03440327E1D5849EDE458495849E3E4CEC89630CB5C
S12314166A84E684C1E72C05CE13B6EF04326235C03440327E1D5849EDE458495849E3E4B2
S12314368EC896338B30416A84E684C1E72C058E13DBAF46326235C0C610F7C896C6F0F774
S1231456C897C610F7C8A07FC8A1F7C8AAF7C8AB7FC8B4C6F0F7C8B57FC8BE7FC8BF7FC8AC
S1231476C8C610F7C8C9C6F0F7C8D2F7C8D3F7C8DC7FC8DDF7C8E6C610F7C8E7F7C89EF71F
S1231496C8A8F7C8B2F7C8BCF7C8C6F7C8D0F7C8DAF7C8E48E167DBFC898BFC8A2BFC8ACEA
S12314B6BFC8B6BFC8C0BFC8CABFC8D4BFC8DEBFC8E839C4DDC4E7C4F1C4FBC405C40FC4B5
S12314D619C423BADDBAE7BAF1BAFBBA05BA0FBA19BA23002020FFE0E0002000FFE0200103
S12314F60000003CC4FF0078FF8800FF0088FF7800010000003CC4FF0078FF8800FF008850
S1231516FF7800FF8878007800FF8888010000001020FFE0E0002000FFE020010000002084
S123153610FFE000001010FF00E0010000FF8800FF0078FF7800FF0088010000FF001EFF89
S12315560F0AFFF10AFF000FFFF10AFF2D0FFFC90FFF190FFF000F01000000887800880086
S123157600880000880000EC9C00EC9C00ECBAFF0064FF0064FF005A003CE2FF9C32FF0082
S12315963CFF004BFF324BFF324BFF3200FF1E3CFF5028FF3C00FF14ECFF0FE2FFECCE00CF
S12315B61432FF1E1EFF4600FF1EF6FFD8BA002846FF4600FF32E7FF00C4FFCEE7FFE7CEB1
S12315D6004B4BFF3CE2FF3CE2FF3CCEFF00CEFF28CEFF1E9CFFE2C4FFE2BF0100000088CF
S12315F688008800008800008800FF9CCEFF00C4FF00B5FF32B5FF32B5FF3200FF1EC4FFF4
S123161650D8FF3C00FF1414FF0F1EFFEC320014CEFF1EE2FF4600FF1E0AFFD8460028BA91
S1231636FF4600FF3219FF003CFFCE19FFE732004BB5FF3C1EFF3C1EFF3C32FF0032FF2851
S123165632FF1E64FFE23CFFE24101000000003CAB28AB14AB000400FFF60AFFF6F6000A0C
S10A16760AFF00EC01000073
S123167D3420327BE764BDF354C6FFD704C6F9E7E25FBD195AE6654FED615849ED635849C8
S123169D5849E3638EC896318BE6A4E7E2E621BD195AE628D7048E14F8326735207EF4101D
S12316BD3420327BE764BDF354C6FFD704C6F9E7E25FBD195AE6654FED615849ED63584988
S12316DD5849E3638EC896318BE6A4E7E2E621BD195AE628D7048E150A326735207EF410CA
S12316FD3440327DE762BDF354C6FFD704E6624FEDE45849CE14C930CBE684E7E2E601BD33
S123171D195AC620D7048E14E9326435407EF4103440327DE762BDF354C6FFD704E6624FB5
S123173DEDE45849CE14C930CBE684E7E2E601BD195AC620D7048E1534326435407EF41001
S123175DBDF354C680D704C62DE7E2C6C4BD195A8E1543BDF410BDF354C618D704CB38E77F
S123177DE25FBD195A8E1570BDF410BDF354C650E7E25FBD195A32638E15F47EF4103404AB
S123179DBDF354C626D704C678E7E2CB10BD195AC678E7E2CB10BD195AC678E7E2CB10BD9A
S12317BD195AE663D7046FE2C650BD1950C630D7048E1552BDF410E664D7046FE2C650BD14
S12317DD1950C630D7048E1552BDF410E665D7046FE2C650BD1950C630D7048E1552BDF4CE
S12317FD10E666D7046FE2C650BD1950C630D7048E1552BDF410E667D7046FE2C650BD1918
S110181D50C630D7048E155232697EF41087
S123182ABDF354C630D704C678E7E2CB10BD195AC678E7E2CB10BD195A6FE2C6CEBD195A8C
S123184A8EC905BDF3CE32637EF3543440327DE762BDF354C67FD704E6624FEDE45849CEDF
S11E186A166330CBE684E7E2E601BD195AC660D7048E166B326435407EF41004
S1231885327EE7E4E664E761C6CCD70CC67FD704E6E4E764E66132627E190834403384BD26
S12318A5F92E35C034603384BDF68735E0EC6226037EF0003410BD195F32621F01393440AA
S10818C5BDF28935C0ED
S12318CA327CE7E4C680E763C630E762E761E667C109230E6C61E661E667CBF6E767C109E8
S12318EA22F2E667CB30E762C6CCD70CC67FD704E6E434043062E667BD190832653934409D
S123190AA6643384BDF37A35C0327BE763AF61E667E7E4E66358E7643404E663BD1955EC36
S123192A621F894F1F01E6655C34041F10BD1955E665CB083404E663BD1955C607E76AC639
S123194AF832687E1955A6627EF3DFA6627EF256A6627EF312327D6F606C604D2B066C60B6
S123196A584920F8ED61EC656F656F66A3612406E3611CFE20021A01696669656461666265
S116198A6A6026E8326339FEE8FEB6808000803F000180C6
S9030000FC
