S12300006720474345203230323580FD0DF85018AA4E6575726F20566563746F7280008E5F
S1230020004F271BCE005E33C903D533C9000033C90000108EC880A6C0A7A0301F26F88EA5
S12100400000270A108EC8CF6FA0301F26FABD02455D27068E0000BFCBFEBDF0003930
S123005EC601F7C81FC603F7C8207FC8217FC822C603F7C882C601F7C8847FC8867FC887B1
S123007EF6C880C102260CC603F7C883C601F7C88520067FC8837FC8857FC88839BD0194FF
S123009EBD020F3947414D45204F5645528000504C4159455280003420327230E4BDF84FE4
S12300BEF6C8884F1F01E689C886E76830E4E668BD036531E48ECBEB341030A4BD036E3205
S12300DE62C696E767BDF1AFBEC8CBAF69AE69BD0335BEC8CDAF6BAE6BBD033EBDF192BD9F
S12300FE0358BDF2A5C6C0E7E28E00A25FBD030B3261C69CE7E28E00ADC614BD030B326155
S123011EF6C8885C3404C628E7E2C614BD038B3262F6C8884F1F01E689C882E76DC669E79B
S123013EE28EC0E2E66EBD03823261BDF1BA6A676D67270AF6C811C4085D1027FF87326ECF
S123015E35A0327FC601E7E2C603BD03E73261F6C879F7C880F6C87AF7C881F6C80FC408DD
S119017E5D270ABD005EBD009B6FE42004C6FFE7E4E6E4326139C9
S1230194327D6F62202AE662E761BD035F4F8E000934101F01BD034732621F10E7E4E6E425
S11F01B45CE7E4E6611D1F01E6E4E789C88A6C62E662C1132FD07FC8893263396D
S12301D0327D6F62201EE6621D1F01AFE4ECE458495849EDE41E01E3E41E013089C89EBD71
S12301F002B86C62E662C1082FDC326339327FC603E7E4326139327FC604E7E43261393224
S12302107C2029BDF1AFBEC8CBAFE4AEE4BD0335BEC8CDAF62AE62BD033EBDF192BD035873
S1230230BDF2A5BD01D0BD01FDBD0206F6C8895D27D1326439327FBD0160E7E46DE427F7D4
S1230250E6E4326139327EAFE46FF4BD035FC47FCB40AEE4E701BD035FC47FCB40AEE4E781
S123027002BD035FC403CBFEAEE4E703BD035FC4035AAEE4E7043262390020E0FF0040FF75
S1230290C000FF00C0FF4000010000BDF354C67FD704C605E7E2C605BD03F03261C622D706
S12302B0048E0289BDF410393279AF63BDF354C67FD704AE63E601E7E4AE63E602E766E643
S12302D0E4E765E666E7E2E666BD03F03261C622D7048E0289BDF410AE63E601E761AE6348
S12302F0E603EB61AE63E701AE63E602E762AE63E604EB62AE63E7023267393279E762AFC3
S1230310E4C6CCD70CC67FD704E662E766E669E765AEE4AF63E666E7E2AE64E666BD0377D2
S1230330326132673934403384BDF92E35C034603384BDF68735E0EC6226037EF00034107D
S1230350BD03F532621F01393440BDF28935C0BDF5171F893934401F98BDF85E35C03440F5
S10A0370EE64BDF8D835C0AE
S12303773440A6643384BDF37A35C03440A664BDF39335C03279E7E4C680E764C630E76212
S1230397C630E761200BE6615CE761E66ACB9CE76AE66AC16322EF200BE6625CE762E66AF9
S12303B7CBF6E76AE66AC10922EFE66ACB30E763C6CCD70CC67FD704E6E4E766E669E76509
S12303D73061E666E7E2E666BD037732613267393460A666BDF7A935E0A6627EF312327D28
S12303F76F606C604D2B066C60584920F8ED61EC656F656F66A3612406E3611CFE20021A34
S11F04170169666965646166626A6026E8326339FEE8FEB6808000803F0001801A
S9030000FC
