S12300006720474345203230323580FD0DF85018B34E4555524F20564543544F5280008E76
S12300200095271BCE005E33C91CE933C9000033C90000108EC880A6C0A7A0301F26F88E32
S12300400002270A108EC9156FA0301F26FABD1BDC5D27068E0000BFCBFEBDF00039C4DD94
S1230060C4E7C4F1C4FBC405C40FC419C423BADDBAE7BAF1BAFBBA05BA0FBA19BA2300200D
S123008020FFE0E0002000FFE020010000003CC4FF0078FF8800FF0088FF78000100000060
S12300A03CC4FF0078FF8800FF0088FF7800FF8878007800FF8888010000001020FFE0E0CA
S12300C0002000FFE020010000002010FFE000001010FF00E0010000FF8800FF0078FF7878
S12300E000FF0088010000FF001EFF0F0AFFF10AFF000FFFF10AFF2D0FFFC90FFF190FFF05
S1230100000F01000000887800880000880000880000EC9C00EC9C00ECBAFF0064FF0064B7
S1230120FF005A003CE2FF9C32FF003CFF004BFF324BFF324BFF3200FF1E3CFF5028FF3CBE
S123014000FF14ECFF0FE2FFECCE001432FF1E1EFF4600FF1EF6FFD8BA002846FF4600FFD7
S123016032E7FF00C4FFCEE7FFE7CE004B4BFF3CE2FF3CE2FF3CCEFF00CEFF28CEFF1E9CE3
S1230180FFE2C4FFE2BF010000008888008800008800008800FF9CCEFF00C4FF00B5FF325C
S12301A0B5FF32B5FF3200FF1EC4FF50D8FF3C00FF1414FF0F1EFFEC320014CEFF1EE2FFDC
S12301C04600FF1E0AFFD8460028BAFF4600FF3219FF003CFFCE19FFE732004BB5FF3C1E8E
S12301E0FF3C1EFF3C32FF0032FF2832FF1E64FFE23CFFE2410100003CC928C914C9000413
S123020000FFF60AFFF6F6000A0AFF00EC01000034403278E765BDF354C6FFD704C6F9E73C
S1230220E25FBD1D043261E6654FED62EC625849ED62EC6258495849AE62308BAF62EE6225
S123024030C9C890E684E764E6654FEDE4ECE45849EDE4ECE458495849AEE4308BAFE4EE07
S1230260E430C9C88FE684E767E664E766E667E7E2E667BD1D043261C610D7048E008DBD9A
S1230280F410326835C034403278E765BDF354C6FFD704C6F9E7E25FBD1D043261E6654FC7
S12302A0ED62EC625849ED62EC6258495849AE62308BAF62EE6230C9C890E684E764E665A0
S12302C04FEDE4ECE45849EDE4ECE458495849AEE4308BAFE4EEE430C9C88FE684E767E606
S12302E064E766E667E7E2E667BD1D043261C610D7048E009FBDF410326835C03440327C25
S1230300E761BDF354C6FFD704E6614F5849CE005F30CBE684E7E4E6614F5849CE005E30C6
S1230320CBE684E763E6E4E762E663E7E2E663BD1D043261C620D7048E007EBDF410326437
S123034035C03440327CE761BDF354C6FFD704E6614F5849CE005F30CBE684E7E4E6614F6C
S12303605849CE005E30CBE684E763E6E4E762E663E7E2E663BD1D043261C620D7048E00CF
S1230380C9BDF410326435C0BDF354C680D704C62DE7E2C6C4BD1D0432618E00D8BDF41041
S12303A0BDF354C618D704C650E7E25FBD1D0432618E0105BDF410BDF354C650E7E25FBD79
S12303C01D0432618E0189BDF41039327FE7E4BDF354C67FD704C646E7E2C6C4BD1D043244
S12303E061E6E4D7046FE2C650BD1CFA3261BDF354C67FD704C642E7E2C6C4BD1D04326136
S1230400E6E4D7046FE2C650BD1CFA3261BDF354C67FD704C63EE7E2C6C4BD1D043261E694
S1230420E4D7046FE2C650BD1CFA3261C6FFD704326139327EE7E4BDF354E6E4E761E661E8
S1230440E7E4C626D704C678E7E2C688BD1D043261C678E7E2C688BD1D043261C678E7E273
S1230460C688BD1D043261E6E4D7046FE2C650BD1CFA3261C630D7048E00E7BDF410E6E476
S1230480D7046FE2C650BD1CFA3261C630D7048E00E7BDF410E6E4D7046FE2C650BD1CFACA
S12304A03261C630D7048E00E7BDF410E6E4D7046FE2C650BD1CFA3261C630D7048E00E7E6
S12304C0BDF410E6E4D7046FE2C650BD1CFA3261C630D7048E00E7BDF4103262393440326B
S12304E07CE761BDF354C67FD704E6614F5849CE01F930CBE684E7E4E6614F5849CE01F8E3
S123050030CBE684E763E6E4E762E663E7E2E663BD1D043261C660D7048E01FEBDF41032C8
S12305206435C0C4DDC4E7C4F1C4FBC405C40FC419C423BADDBAE7BAF1BAFBBA05BA0FBA64
S123054019BA23002020FFE0E0002000FFE020010000003CC4FF0078FF8800FF0088FF7886
S123056000010000003CC4FF0078FF8800FF0088FF7800FF8878007800FF888801000000F3
S12305801020FFE0E0002000FFE020010000002010FFE000001010FF00E0010000FF8800B2
S12305A0FF0078FF7800FF0088010000FF001EFF0F0AFFF10AFF000FFFF10AFF2D0FFFC987
S12305C00FFF190FFF000F01000000887800880000880000880000EC9C00EC9C00ECBAFF85
S12305E00064FF0064FF005A003CE2FF9C32FF003CFF004BFF324BFF324BFF3200FF1E3CE5
S1230600FF5028FF3C00FF14ECFF0FE2FFECCE001432FF1E1EFF4600FF1EF6FFD8BA0028EA
S123062046FF4600FF32E7FF00C4FFCEE7FFE7CE004B4BFF3CE2FF3CE2FF3CCEFF00CEFF43
S123064028CEFF1E9CFFE2C4FFE2BF010000008888008800008800008800FF9CCEFF00C4CD
S1230660FF00B5FF32B5FF32B5FF3200FF1EC4FF50D8FF3C00FF1414FF0F1EFFEC320014FE
S1230680CEFF1EE2FF4600FF1E0AFFD8460028BAFF4600FF3219FF003CFFCE19FFE7320056
S12306A04BB5FF3C1EFF3C1EFF3C32FF0032FF2832FF1E64FFE23CFFE2410100003CC9289F
S12306C0C914C9000400FFF60AFFF6F6000A0AFF00EC010000BD18DBBD19F85F39C4DDC407
S12306E0E7C4F1C4FBC405C40FC419C423BADDBAE7BAF1BAFBBA05BA0FBA19BA230020202B
S1230700FFE0E0002000FFE020010000003CC4FF0078FF8800FF0088FF7800010000003CBD
S1230720C4FF0078FF8800FF0088FF7800FF8878007800FF8888010000001020FFE0E0007F
S12307402000FFE020010000002010FFE000001010FF00E0010000FF8800FF0078FF7800F1
S1230760FF0088010000FF001EFF0F0AFFF10AFF000FFFF10AFF2D0FFFC90FFF190FFF007E
S12307800F01000000887800880000880000880000EC9C00EC9C00ECBAFF0064FF0064FF32
S12307A0005A003CE2FF9C32FF003CFF004BFF324BFF324BFF3200FF1E3CFF5028FF3C0037
S12307C0FF14ECFF0FE2FFECCE001432FF1E1EFF4600FF1EF6FFD8BA002846FF4600FF321F
S12307E0E7FF00C4FFCEE7FFE7CE004B4BFF3CE2FF3CE2FF3CCEFF00CEFF28CEFF1E9CFF90
S1230800E2C4FFE2BF010000008888008800008800008800FF9CCEFF00C4FF00B5FF32B51F
S1230820FF32B5FF3200FF1EC4FF50D8FF3C00FF1414FF0F1EFFEC320014CEFF1EE2FF46C4
S123084000FF1E0AFFD8460028BAFF4600FF3219FF003CFFCE19FFE732004BB5FF3C1EFF4E
S12308603C1EFF3C32FF0032FF2832FF1E64FFE23CFFE2410100003CC928C914C90004008B
S1120880FFF60AFFF6F6000A0AFF00EC0100007B
S123088F327D6F62202BE662E761E6621D1F01E689C8E94F8E000A34101F01BD1C29326264
S12308AF1F10E7E4E6611D1F01E6E4E789C8E96C62E662C1132FCF3263393279E7656F663A
S12308CF160072E66554545454E761E665E861E765E665585858E7E4E6E4EB65E765E665EB
S12308EF595959C403E762E665E862E765E6655858E7E4E6E4EB65E765E6655454545454CE
S123090FE763E665E863E765E666E764E6661D1F01E689C8E9EB654F8E000A34101F01BD00
S123092F1C2932621F10E7E4E6641D1F01E6E4E789C8E96C66E666C113102FFF86326739D7
S123094F327AE7646F652048E66457575757E761E664E861E764E664585858E7E4E6E4EBB3
S123096F64E764E664575757575757E762E664E862E764E6645858E7E4E6E4EB64E764E62A
S123098F645757575757E763E664E863E7646C65E665C1132FB2E664326639F6C88ABD040E
S12309AF33F6C88A5D2605C6C8F7C88AF6C88A5AF7C88A39327DE7622008F6C880EB62BDBE
S12309CF02FCE662E7616D612704C601E761E6616A625D26E52005E665BD0342E665E7E46B
S12309EF6DE42704C601E7E4E6E46A655D26E832633952454D454D42455220544845800034
S1230A0F53455155454E43458000327D6F62160097C6C8F7C88ABDF192BD0388C6B5E7E21A
S1230A2F8E0A01C664BD1BED3261C6CEE7E28E0A0FC650BD1BED3261BD0AC4E6624F1F01D4
S1230A4FE689C8E9BD0286E6625C86643D4FEDE4C6C8E7E2AE61C601BD1C953261E6625C61
S1230A6F86643D4FEDE4C6C8E7E2AE61C602BD1C953261E6625C86643D4FEDE4C6C8E7E2AB
S1230A8FAE61C603BD1C9532616FE2E663BD09C33261F6C8835AF7C883F6C8835D1026FF04
S1230AAF70C61EF7C8836C62F6C884E16222E37FC889326339BEC8915FAD84BEC89BC60108
S1230ACFAD84BEC8A5C602AD84BEC8AFC603AD84BEC8B9C604AD84BEC8C3C605AD84BEC87A
S1230AEFCDC606AD84BEC8D7C607AD84BEC8E1C608AD843947414D45204F564552800050D9
S1230B0F5245535320425554544F4E20328000544F205245535441525480005052455353C2
S1230B2F20425554544F4E20338000544F20474F20544F20544845204D454E558000327E31
S1230B4FC6C4E7E28E0B03C664BD1BED3261C6B0E7E28E0B0EC646BD1BED3261C6C4E7E274
S1230B6F8E0B1EC632BD1BED3261C6B0E7E28E0B2AC614BD1BED3261C69CE7E28E0B3A5FCA
S1230B8FBD1BED3261F6C882C1022606F6C880F7C885F6C882C1032606F6C880F7C886F690
S1230BAFC882C1042606F6C880F7C887BDF1BAF6C811C4025D27298E1895BFC9156FE4206E
S1230BCF0BE6E41D1F016F89C8FD6CE4E6E4C1132FEFF6C884BD08C97FC880C601F7C88486
S1230BEFF6C811C4045D272C8E18DBBFC9157FC8826F61200BE6611D1F016F89C8FD6C61AB
S1230C0FE661C1132FEFF6C884BD08C97FC880C601F7C884326239342032E8C7BDF1F8F649
S1230C2FC81BF7C88BF6C81CF7C88CF6C88B5D2C52F6C88C5D2F4CF6C881E7E827E6E827DF
S1230C4F4F1F01AFE825ECE82558495849EDE825ECE825308BAFE825ECE825C30001584953
S1230C6F8EC88F318B8E0286AFA4E6E8274F1F0210AFE4ECE4584958491F01AFE4ECE43189
S1230C8FAB204AF6C881E7E828E6E8284F1F01AFE823ECE82358495849EDE823ECE823307F
S1230CAF8BAFE823ECE823C3000158498EC88F318B8E0210AFA4E6E8284F1F0210AFE4ECF7
S1230CCFE4584958491F01AFE4ECE431ABF6C88B5D2657F6C88C5D2F51F6C881E762E66262
S1230CEF5CE7E829E6E8294F1F01AFE821ECE82158495849EDE821ECE821308BAFE821ECEE
S1230D0FE821C3000158498EC88F318B8E0286AFA4E6E8294F1F0210AFE4ECE4584958492C
S1230D2F1F01AFE4ECE431AB204FF6C881E762E6625CE7E82AE6E82A4F1F01AFE81FECE8BC
S1230D4F1F58495849EDE81FECE81F308BAFE81FECE81FC3000158498EC88F318B8E02102E
S1230D6FAFA4E6E82A4F1F0210AFE4ECE4584958491F01AFE4ECE431ABF6C88B5D2F58F66E
S1230D8FC88C5D2F52F6C881E762E662CB02E7E82BE6E82B4F1F01AFE81DECE81D58495871
S1230DAF49EDE81DECE81D308BAFE81DECE81DC3000158498EC88F318B8E0286AFA4E6E857
S1230DCF2B4F1F0210AFE4ECE4584958491F01AFE4ECE431AB2050F6C881E762E662CB0244
S1230DEFE7E82CE6E82C4F1F01AFE81BECE81B58495849EDE81BECE81B308BAFE81BECE879
S1230E0F1BC3000158498EC88F318B8E0210AFA4E6E82C4F1F0210AFE4ECE4584958491F6D
S1230E2F01AFE4ECE431ABF6C88B5D2C58F6C88C5D2652F6C881E762E662CB03E7E82DE696
S1230E4FE82D4F1F01AFE819ECE81958495849EDE819ECE819308BAFE819ECE819C3000125
S1230E6F58498EC88F318B8E0286AFA4E6E82D4F1F0210AFE4ECE4584958491F01AFE4ECF5
S1230E8FE431AB2050F6C881E762E662CB03E7E82EE6E82E4F1F01AFE817ECE81758495877
S1230EAF49EDE817ECE817308BAFE817ECE817C3000158498EC88F318B8E0210AFA4E6E8E4
S1230ECF2E4F1F0210AFE4ECE4584958491F01AFE4ECE431ABF6C88B5D2658F6C88C5D265C
S1230EEF52F6C881E762E662CB04E7E82FE6E82F4F1F01AFE815ECE81558495849EDE815C3
S1230F0FECE815308BAFE815ECE815C3000158498EC88F318B8E0286AFA4E6E82F4F1F02A9
S1230F2F10AFE4ECE4584958491F01AFE4ECE431AB2050F6C881E762E662CB04E7E830E696
S1230F4FE8304F1F01AFE813ECE81358495849EDE813ECE813308BAFE813ECE813C3000145
S1230F6F58498EC88F318B8E0210AFA4E6E8304F1F0210AFE4ECE4584958491F01AFE4EC67
S1230F8FE431ABF6C88B5D2F58F6C88C5D2652F6C881E762E662CB05E7E831E6E8314F1F25
S1230FAF01AFE811ECE81158495849EDE811ECE811308BAFE811ECE811C3000158498EC880
S1230FCF8F318B8E0286AFA4E6E8314F1F0210AFE4ECE4584958491F01AFE4ECE431AB20A7
S1230FEF4AF6C881E762E662CB05E7E832E6E8324F1F01AF6FEC6F58495849ED6FEC6F30E2
S123100F8BAF6FEC6FC3000158498EC88F318B8E0210AFA4E6E8324F1F0210AFE4ECE45885
S123102F4958491F01AFE4ECE431ABF6C88B5D2C52F6C88C5D2C4CF6C881E762E662CB0670
S123104FE7E833E6E8334F1F01AF6DEC6D58495849ED6DEC6D308BAF6DEC6DC3000158490C
S123106F8EC88F318B8E0286AFA4E6E8334F1F0210AFE4ECE4584958491F01AFE4ECE43179
S123108FAB204AF6C881E762E662CB06E7E834E6E8344F1F01AF6BEC6B58495849ED6BEC1C
S12310AF6B308BAF6BEC6BC3000158498EC88F318B8E0210AFA4E6E8344F1F0210AFE4EC8C
S12310CFE4584958491F01AFE4ECE431ABF6C88B5D2652F6C88C5D2C4CF6C881E762E6626B
S12310EFCB07E7E835E6E8354F1F01AF69EC6958495849ED69EC69308BAF69EC69C300014F
S123110F58498EC88F318B8E0286AFA4E6E8354F1F0210AFE4ECE4584958491F01AFE4EC4A
S123112FE431AB204AF6C881E762E662CB07E7E836E6E8364F1F01AF67EC6758495849EDC0
S123114F67EC67308BAF67EC67C3000158498EC88F318B8E0210AFA4E6E8364F1F0210AF72
S123116FE4ECE4584958491F01AFE4ECE431ABF6C88B5D2F52F6C88C5D2C4CF6C881E76239
S123118FE662CB08E7E837E6E8374F1F01AF65EC6558495849ED65EC65308BAF65EC65C37A
S12311AF000158498EC88F318B8E0286AFA4E6E8374F1F0210AFE4ECE4584958491F01AF77
S12311CFE4ECE431AB204AF6C881E762E662CB08E7E838E6E8384F1F01AF63EC6358495889
S12311EF49ED63EC63308BAF63EC63C3000158498EC88F318B8E0210AFA4E6E8384F1F0269
S123120F10AFE4ECE4584958491F01AFE4ECE431AB32E83935A0327EBDF1BABDF1F8F6C803
S123122F1BF7C88BF6C81CF7C88CF6C81BF7C88BF6C81CF7C88CF6C88B5D2C0BF6C88C5D45
S123124F2F057FC88D2006F6C88DF7C88DF6C88B5D260DF6C88C5D2F07C601F7C88D2006C7
S123126FF6C88DF7C88DF6C88B5D2F0DF6C88C5D2F07C602F7C88D2006F6C88DF7C88DF63E
S123128FC88B5D2C0DF6C88C5D2607C603F7C88D2006F6C88DF7C88DF6C88B5D260DF6C815
S12312AF8C5D2607C604F7C88D2006F6C88DF7C88DF6C88B5D2F0DF6C88C5D2607C605F7BA
S12312CFC88D2006F6C88DF7C88DF6C88B5D2C0DF6C88C5D2C07C606F7C88D2006F6C88DA7
S12312EFF7C88DF6C88B5D260DF6C88C5D2C07C607F7C88D2006F6C88DF7C88DF6C88B5D60
S123130F2F0DF6C88C5D2C07C608F7C88D2006F6C88DF7C88DF6C811C4015D271CF6C8805B
S123132FE7E4F6C88DE761E6E44F1F01E661E789C8FDF6C8805CF7C88032623921534E45DA
S123134F414B59204F46465345542180007FC881F6C884C1032328F6C884C1072221C6C819
S123136FE7E28E0190C603BD1C953261C6A6E7E28E134BC673BD1BED3261C603F7C881F6F7
S123138FC884C10A2328F6C884C10D2221C6C8E7E28E0190C603BD1C953261C6A6E7E28E82
S12313AF134BC673BD1BED3261C602F7C8813934603272E76DE66DE76BE66D1DED69EC699E
S12313CF5849ED69EC6958495849AE69308BAF69EE6930C9C88FE684E762E6625CE76CE64B
S12313EF6B1DEDE4AEE4AF67EC675849ED67EC6758495849EE6733CBEF67EE6730C9C88FAE
S123140FE66CE784E66D1DED65EC655849ED65EC6558495849AE65308BAF65EE6530C9C86D
S123142F8FE684C1192F22E66D1DED63EC635849ED63EC6358495849AE63308BAF63EE63B5
S123144F31C9C8938E14FAAFA4326E35E034603272E76DE66DE76BE66D1DED69EC69584993
S123146FED69EC6958495849AE69308BAF69EE6930C9C890E684E762E6625CE76CE66B1DC2
S123148FEDE4AEE4AF67EC675849ED67EC6758495849EE6733CBEF67EE6730C9C890E66C42
S12314AFE784E66D1DED65EC655849ED65EC6558495849AE65308BAF65EE6530C9C890E6A9
S12314CF84C1192F22E66D1DED63EC635849ED63EC6358495849AE63308BAF63EE6331C990
S12314EFC8958E1598AFA4326E35E034603272E76DE66DE76BE66D1DED69EC695849ED69F6
S123150FEC6958495849AE69308BAF69EE6930C9C88FE684E762E6625AE76CE66B1DEDE4A9
S123152FAEE4AF67EC675849ED67EC6758495849EE6733CBEF67EE6730C9C88FE66CE78408
S123154FE66D1DED65EC655849ED65EC6558495849AE65308BAF65EE6530C9C88FE684C12F
S123156FE72C22E66D1DED63EC635849ED63EC6358495849AE63308BAF63EE6331C9C8930E
S123158F8E13BEAFA4326E35E034603272E76DE66DE76BE66D1DED69EC695849ED69EC6939
S12315AF58495849AE69308BAF69EE6930C9C890E684E762E6625AE76CE66B1DEDE4AEE4CB
S12315CFAF67EC675849ED67EC6758495849EE6733CBEF67EE6730C9C890E66CE784E66DA6
S12315EF1DED65EC655849ED65EC6558495849AE65308BAF65EE6530C9C890E684C1E72CCE
S123160F22E66D1DED63EC635849ED63EC6358495849AE63308BAF63EE6331C9C8958E14DC
S123162F5CAFA4326E35E0BEC8935FAD84BEC89DC601AD84BEC8A7C602AD84BEC8B1C60349
S123164FAD84BEC8BBC604AD84BEC8C5C605AD84BEC8CFC606AD84BEC8D9C607AD84BEC88E
S123166FE3C608AD84BEC8955FAD84BEC89FC601AD84BEC8A9C602AD84BEC8B3C603AD8452
S123168FBEC8BDC604AD84BEC8C7C605AD84BEC8D1C606AD84BEC8DBC607AD84BEC8E5C6CC
S12316AF08AD8439594F5520434F4D504C455445442054484953204C4556454C8000327ECB
S12316CFF6C882C1022606F6C884F7C885F6C882C1032606F6C884F7C886F6C882C1042660
S12316EF06F6C884F7C887F6C880C110102600ADC688E7E28E16B3C664BD1BED3261C6B0F1
S123170FE7E28E0B0EC646BD1BED3261C6C4E7E28E0B1EC632BD1BED3261C6B0E7E28E0BB0
S123172F2AC614BD1BED3261C69CE7E28E0B3A5FBD1BED3261BDF1BAF6C811C4025D2729DB
S123174F8E1895BFC9156FE4200BE6E41D1F016F89C8FD6CE4E6E4C1132FEFF6C884BD0849
S123176FC9C601F7C8847FC880F6C811C4045D272C8E18DBBFC9157FC8826F61200BE6614C
S123178F1D1F016F89C8FD6C61E661C1132FEFF6C884BD08C9C601F7C8847FC880326239C8
S12317AF327CF6C880E763201EE6634F1F01E689C8E9E761E6634F1F01E689C8FDE161272D
S12317CF068E0B4DBFC915E663E7E46DE42704C601E7E4E6E46A635D26CFF6C884E762F6E1
S12317EFC880E162264B8E0210BFC8918E0210BFC89B8E0210BFC8A58E0210BFC8AF8E022E
S123180F10BFC8B98E0210BFC8C38E0210BFC8CD8E0210BFC8D78E0210BFC8E1F6C8845CE3
S123182FF7C8847FC880C6C8F7C88A8E1895BFC915326439327DBD0388BD09AABD0AC4F625
S123184FC880E761F6C884E762F6C880E7E4E662E0E4E7E4E6613404E661BD09C33261F6A2
S123186FC882C1032603BD135CF6C882C1042603BD1636F6C8885CF7C888BD0C26BD1225EF
S123188FBD17AF326339BD0388BD0A198E1843BFC9153953454C4543542054484520474194
S12318AF4D454D4F444580004E4F524D414C2031362F80004841524420202031362F80004A
S12318CF45585452454D2031362F8000327DC601F7C81FC603F7C8207FC8217FC8226FE4CA
S12318EFC601E761C601E7621600E4BDF1BA6CE4BDF354C688E7E28E18A2C664BD1BED3280
S123190F61C6CEE7E28E18B7C63CBD1BED3261C6CEE7E28E18C3C628BD1BED3261C6CEE7B8
S123192FE28E18CFC614BD1BED3261BDF354F6C8853404C63CE7E2C63CBD1C413262F6C853
S123194F863404C63CE7E2C628BD1C413262F6C8873404C63CE7E2C614BD1C413262BDF1D1
S123196FBABDF1F8F6C81C5D2604C601E762F6C81C5D2F0E6D61270AE662C10126046A6210
S123198F6A61F6C81C5D2C10E661C101220AE662C10126046A626C61E661BD04DDF6C81140
S12319AFC4015D272A6D612607C602F7C882201FE661C1012607C603F7C8822012E661C1E4
S12319CF022607C604F7C8822005C602F7C882F6C882C101102FFF13E6E4BD08C97FC88E0C
S12319EF8E1895BFC915326339327C2025BDF1AFBEC911AFE4AEE4BD1C17BEC913AF62AED8
S1231A0F62BD1C20BDF192BD1C3ABDF2A5BEC915AD84F6C88E5D27D5326439C4DDC4E7C460
S1231A2FF1C4FBC405C40FC419C423BADDBAE7BAF1BAFBBA05BA0FBA19BA23002020FFE094
S1231A4FE0002000FFE020010000003CC4FF0078FF8800FF0088FF7800010000003CC4FF77
S1231A6F0078FF8800FF0088FF7800FF8878007800FF8888010000001020FFE0E0002000C0
S1231A8FFFE020010000002010FFE000001010FF00E0010000FF8800FF0078FF7800FF00B0
S1231AAF88010000FF001EFF0F0AFFF10AFF000FFFF10AFF2D0FFFC90FFF190FFF000F010B
S1231ACF000000887800880000880000880000EC9C00EC9C00ECBAFF0064FF0064FF005A86
S1231AEF003CE2FF9C32FF003CFF004BFF324BFF324BFF3200FF1E3CFF5028FF3C00FF141C
S1231B0FECFF0FE2FFECCE001432FF1E1EFF4600FF1EF6FFD8BA002846FF4600FF32E7FFE9
S1231B2F00C4FFCEE7FFE7CE004B4BFF3CE2FF3CE2FF3CCEFF00CEFF28CEFF1E9CFFE2C46D
S1231B4FFFE2BF010000008888008800008800008800FF9CCEFF00C4FF00B5FF32B5FF3232
S1231B6FB5FF3200FF1EC4FF50D8FF3C00FF1414FF0F1EFFEC320014CEFF1EE2FF4600FF94
S1231B8F1E0AFFD8460028BAFF4600FF3219FF003CFFCE19FFE732004BB5FF3C1EFF3C1E91
S1231BAFFF3C32FF0032FF2832FF1E64FFE23CFFE2410100003CC928C914C9000400FFF68E
S1231BCF0AFFF6F6000A0AFF00EC010000327FBD18DBBD19F86DE427F6E6E432613932791F
S1231BEFE762AFE4C6CCD70CC67FD704E662E766E669E765AEE4AF63E666E7E2AE64E6661A
S1231C0FBD1C8A326132673934403384BDF92E35C034603384BDF68735E0EC6226037EF066
S1151C2F003410BD1D0932621F01393440BDF28935C0EA
S1231C41327AE7E4C680E763C630E762C630E761200BE6615CE761E669CBF6E769E669C175
S1231C610922EFE669CB30E762C6CCD70CC67FD704E6E4E765E668E7643061E665E7E2E6E3
S1231C8165BD1C8A32613266393440A6643384BDF37A35C03273E762AFE4E66258E763EC68
S1231CA1E4E764E6636C63E768E664E767E668E7E2E668BD1CFF3261ECE41F894FE765E628
S1231CC163E76AE665E769E66AE7E2E66ABD1CFF3261E662CB08E766E666E76CE66FE76B2E
S1231CE1E66CE7E2E66CBD1CFF3261C607E7E2C6F8BD1CFF3261326D39A6627EF3DFA66210
S1231D017EF256A6627EF312327D6F606C604D2B066C60584920F8ED61EC656F656F66A335
S1231D21612406E3611CFE20021A0169666965646166626A6026E8326339FEE8FEB680800E
S1091D4100803F00018058
S9030000FC
