S12300006720474345203230323580FD0DF85018B34E4555524F20564543544F5280008E76
S1230020009E271BCE005E33C91B3633C9000033C90000108EC880A6C0A7A0301F26F88EDD
S12300400002270A108EC91E6FA0301F26FABD1A2A5D27068E0000BFCBFEBDF00039C4DD3E
S1230060C4E7C4F1C4FBC405C40FC419C423BADDBAE7BAF1BAFBBA05BA0FBA19BA2300200D
S123008020FFE0E0002000FFE020010000003CC4FF0078FF8800FF0088FF78000100000060
S12300A03CC4FF0078FF8800FF0088FF7800FF8878007800FF8888010000001020FFE0E0CA
S12300C0002000FFE020010000002010FFE000001010FF00E0010000FF8800FF0078FF7878
S12300E000FF0088010000FF001EFF0F0AFFF10AFF000FFFF10AFF2D0FFFC90FFF190FFF05
S1230100000F01000000887800880000880000880000EC9C00EC9C00ECBAFF0064FF0064B7
S1230120FF005A003CE2FF9C32FF003CFF004BFF324BFF324BFF3200FF1E3CFF5028FF3CBE
S123014000FF14ECFF0FE2FFECCE001432FF1E1EFF4600FF1EF6FFD8BA002846FF4600FFD7
S123016032E7FF00C4FFCEE7FFE7CE004B4BFF3CE2FF3CE2FF3CCEFF00CEFF28CEFF1E9CE3
S1230180FFE2C4FFE2BF010000008888008800008800008800FF9CCEFF00C4FF00B5FF325C
S12301A0B5FF32B5FF3200FF1EC4FF50D8FF3C00FF1414FF0F1EFFEC320014CEFF1EE2FFDC
S12301C04600FF1E0AFFD8460028BAFF4600FF3219FF003CFFCE19FFE732004BB5FF3C1E8E
S12301E0FF3C1EFF3C32FF0032FF2832FF1E64FFE23CFFE2410100003CC928C914C9000413
S123020000FFF60AFFF6F6000A0AFF00EC01000034403278E765BDF354C6FFD704C6F9E73C
S1230220E25FBD1B513261E6654FED62EC625849ED62EC6258495849AE62308BAF62EE62DA
S123024030C9C899E684E764E6654FEDE4ECE45849EDE4ECE458495849AEE4308BAFE4EEFE
S1230260E430C9C898E684E767E664E766E667E7E2E667BD1B513261C610D7048E008DBD46
S1230280F410326835C034403278E765BDF354C6FFD704C6F9E7E25FBD1B513261E6654F7C
S12302A0ED62EC625849ED62EC6258495849AE62308BAF62EE6230C9C899E684E764E66597
S12302C04FEDE4ECE45849EDE4ECE458495849AEE4308BAFE4EEE430C9C898E684E767E6FD
S12302E064E766E667E7E2E667BD1B513261C610D7048E009FBDF410326835C03440327CDA
S1230300E761BDF354C6FFD704E6614F5849CE005F30CBE684E7E4E6614F5849CE005E30C6
S1230320CBE684E763E6E4E762E663E7E2E663BD1B513261C620D7048E007EBDF4103264EC
S123034035C03440327CE761BDF354C6FFD704E6614F5849CE005F30CBE684E7E4E6614F6C
S12303605849CE005E30CBE684E763E6E4E762E663E7E2E663BD1B513261C620D7048E0084
S1230380C9BDF410326435C0BDF354C680D704C62DE7E2C6C4BD1B5132618E00D8BDF410F6
S12303A0BDF354C618D704C650E7E25FBD1B5132618E0105BDF410BDF354C650E7E25FBD2E
S12303C01B5132618E0189BDF41039327FE7E4BDF354C67FD704C646E7E2C6C4BD1B5132AE
S12303E061E6E4D7046FE2C650BD1B473261BDF354C67FD704C642E7E2C6C4BD1B5132619F
S1230400E6E4D7046FE2C650BD1B473261BDF354C67FD704C63EE7E2C6C4BD1B513261E6FD
S1230420E4D7046FE2C650BD1B473261C6FFD704326139327EE7E4BDF354E6E4E761E6619C
S1230440E7E4C626D704C678E7E2C688BD1B513261C678E7E2C688BD1B513261C678E7E2DD
S1230460C688BD1B513261E6E4D7046FE2C650BD1B473261C630D7048E00E7BDF410E6E4DF
S1230480D7046FE2C650BD1B473261C630D7048E00E7BDF410E6E4D7046FE2C650BD1B4732
S12304A03261C630D7048E00E7BDF410E6E4D7046FE2C650BD1B473261C630D7048E00E79A
S12304C0BDF410E6E4D7046FE2C650BD1B473261C630D7048E00E7BDF4103262393440321F
S12304E07CE761BDF354C67FD704E6614F5849CE01F930CBE684E7E4E6614F5849CE01F8E3
S123050030CBE684E763E6E4E762E663E7E2E663BD1B513261C660D7048E01FEBDF410327D
S12305206435C0C4DDC4E7C4F1C4FBC405C40FC419C423BADDBAE7BAF1BAFBBA05BA0FBA64
S123054019BA23002020FFE0E0002000FFE020010000003CC4FF0078FF8800FF0088FF7886
S123056000010000003CC4FF0078FF8800FF0088FF7800FF8878007800FF888801000000F3
S12305801020FFE0E0002000FFE020010000002010FFE000001010FF00E0010000FF8800B2
S12305A0FF0078FF7800FF0088010000FF001EFF0F0AFFF10AFF000FFFF10AFF2D0FFFC987
S12305C00FFF190FFF000F01000000887800880000880000880000EC9C00EC9C00ECBAFF85
S12305E00064FF0064FF005A003CE2FF9C32FF003CFF004BFF324BFF324BFF3200FF1E3CE5
S1230600FF5028FF3C00FF14ECFF0FE2FFECCE001432FF1E1EFF4600FF1EF6FFD8BA0028EA
S123062046FF4600FF32E7FF00C4FFCEE7FFE7CE004B4BFF3CE2FF3CE2FF3CCEFF00CEFF43
S123064028CEFF1E9CFFE2C4FFE2BF010000008888008800008800008800FF9CCEFF00C4CD
S1230660FF00B5FF32B5FF32B5FF3200FF1EC4FF50D8FF3C00FF1414FF0F1EFFEC320014FE
S1230680CEFF1EE2FF4600FF1E0AFFD8460028BAFF4600FF3219FF003CFFCE19FFE7320056
S12306A04BB5FF3C1EFF3C1EFF3C32FF0032FF2832FF1E64FFE23CFFE2410100003CC9289F
S11806C0C914C9000400FFF60AFFF6F6000A0AFF00EC0100008D
S12306D5BD18DBBD19F85F39C4DDC4E7C4F1C4FBC405C40FC419C423BADDBAE7BAF1BAFB33
S12306F5BA05BA0FBA19BA23002020FFE0E0002000FFE020010000003CC4FF0078FF88008C
S1230715FF0088FF7800010000003CC4FF0078FF8800FF0088FF7800FF8878007800FF88C7
S123073588010000001020FFE0E0002000FFE020010000002010FFE000001010FF00E001F9
S12307550000FF8800FF0078FF7800FF0088010000FF001EFF0F0AFFF10AFF000FFFF10A4C
S1230775FF2D0FFFC90FFF190FFF000F01000000887800880000880000880000EC9C00EC0C
S12307959C00ECBAFF0064FF0064FF005A003CE2FF9C32FF003CFF004BFF324BFF324BFF78
S12307B53200FF1E3CFF5028FF3C00FF14ECFF0FE2FFECCE001432FF1E1EFF4600FF1EF662
S12307D5FFD8BA002846FF4600FF32E7FF00C4FFCEE7FFE7CE004B4BFF3CE2FF3CE2FF3C6E
S12307F5CEFF00CEFF28CEFF1E9CFFE2C4FFE2BF010000008888008800008800008800FFAA
S12308159CCEFF00C4FF00B5FF32B5FF32B5FF3200FF1EC4FF50D8FF3C00FF1414FF0F1E4B
S1230835FFEC320014CEFF1EE2FF4600FF1E0AFFD8460028BAFF4600FF3219FF003CFFCE9F
S123085519FFE732004BB5FF3C1EFF3C1EFF3C32FF0032FF2832FF1E64FFE23CFFE24101E4
S11D087500003CC928C914C9000400FFF60AFFF6F6000A0AFF00EC010000A4
S123088F327D6F62202BE662E761E6621D1F01E689C8F24F8E000A34101F01BD1A76326210
S12308AF1F10E7E4E6611D1F01E6E4E789C8F26C62E662C1132FCF3263393279E7656F6631
S12308CF160072E66554545454E761E665E861E765E665585858E7E4E6E4EB65E765E665EB
S12308EF595959C403E762E665E862E765E6655858E7E4E6E4EB65E765E6655454545454CE
S123090FE763E665E863E765E666E764E6661D1F01E689C8F2EB654F8E000A34101F01BDF7
S123092F1A7632621F10E7E4E6641D1F01E6E4E789C8F26C66E666C113102FFF8632673983
S123094F327AE7646F652048E66457575757E761E664E861E764E664585858E7E4E6E4EBB3
S123096F64E764E664575757575757E762E664E862E764E6645858E7E4E6E4EB64E764E62A
S123098F645757575757E763E664E863E7646C65E665C1132FB2E664326639F6C893BD0405
S12309AF33F6C8935D2605C6C8F7C893F6C8935AF7C89339327DE7622008F6C889EB62BD91
S12309CF02FCE662E7616D612704C601E761E6616A625D26E52005E665BD0342E665E7E46B
S12309EF6DE42704C601E7E4E6E46A655D26E832633952454D454D42455220544845800034
S1230A0F53455155454E43458000327D6F62160097C6C8F7C893BDF192BD0388C6B5E7E211
S1230A2F8E0A01C664BD1A3A3261C6CEE7E28E0A0FC650BD1A3A3261BD0AC4E6624F1F013C
S1230A4FE689C8F2BD0286E6625C86643D4FEDE4C6C8E7E2AE61C601BD1AE23261E6625C0D
S1230A6F86643D4FEDE4C6C8E7E2AE61C602BD1AE23261E6625C86643D4FEDE4C6C8E7E260
S1230A8FAE61C603BD1AE232616FE2E663BD09C33261F6C88C5AF7C88CF6C88C5D1026FF9E
S1230AAF70C61EF7C88C6C62F6C88DE16222E37FC892326339BEC89A5FAD84BEC8A4C601DB
S1230ACFAD84BEC8AEC602AD84BEC8B8C603AD84BEC8C2C604AD84BEC8CCC605AD84BEC856
S1230AEFD6C606AD84BEC8E0C607AD84BEC8EAC608AD843947414D45204F564552800050BE
S1230B0F5245535320425554544F4E20328000544F205245535441525480005052455353C2
S1230B2F20425554544F4E20338000544F20474F20544F20544845204D454E558000327E31
S1230B4FC6C4E7E28E0B03C664BD1A3A3261C6B0E7E28E0B0EC646BD1A3A3261C6C4E7E2DC
S1230B6F8E0B1EC632BD1A3A3261C6B0E7E28E0B2AC614BD1A3A3261C69CE7E28E0B3A5F32
S1230B8FBD1A3A3261F6C88BC1022606F6C889F7C88EF6C88BC1032606F6C889F7C88FF60E
S1230BAFC88BC1042606F6C889F7C890BDF1BAF6C811C4025D27298E1895BFC91E6FE4204A
S1230BCF0BE6E41D1F016F89C9066CE4E6E4C1132FEFF6C88DBD08C97FC889C601F7C88D61
S1230BEFF6C811C4045D272C8E18DBBFC91E7FC88B6F61200BE6611D1F016F89C9066C618F
S1230C0FE661C1132FEFF6C88DBD08C97FC889C601F7C88D326239342032E8C7BDF1F8F62E
S1230C2FC81BF7C894F6C81CF7C895F6C8945D2C52F6C8955D2F4CF6C88AE7E827E6E827B2
S1230C4F4F1F01AFE825ECE82558495849EDE825ECE825308BAFE825ECE825C30001584953
S1230C6F8EC898318B8E0286AFA4E6E8274F1F0210AFE4ECE4584958491F01AFE4ECE43180
S1230C8FAB204AF6C88AE7E828E6E8284F1F01AFE823ECE82358495849EDE823ECE8233076
S1230CAF8BAFE823ECE823C3000158498EC898318B8E0210AFA4E6E8284F1F0210AFE4ECEE
S1230CCFE4584958491F01AFE4ECE431ABF6C8945D2657F6C8955D2F51F6C88AE762E66247
S1230CEF5CE7E829E6E8294F1F01AFE821ECE82158495849EDE821ECE821308BAFE821ECEE
S1230D0FE821C3000158498EC898318B8E0286AFA4E6E8294F1F0210AFE4ECE45849584923
S1230D2F1F01AFE4ECE431AB204FF6C88AE762E6625CE7E82AE6E82A4F1F01AFE81FECE8B3
S1230D4F1F58495849EDE81FECE81F308BAFE81FECE81FC3000158498EC898318B8E021025
S1230D6FAFA4E6E82A4F1F0210AFE4ECE4584958491F01AFE4ECE431ABF6C8945D2F58F665
S1230D8FC8955D2F52F6C88AE762E662CB02E7E82BE6E82B4F1F01AFE81DECE81D5849585F
S1230DAF49EDE81DECE81D308BAFE81DECE81DC3000158498EC898318B8E0286AFA4E6E84E
S1230DCF2B4F1F0210AFE4ECE4584958491F01AFE4ECE431AB2050F6C88AE762E662CB023B
S1230DEFE7E82CE6E82C4F1F01AFE81BECE81B58495849EDE81BECE81B308BAFE81BECE879
S1230E0F1BC3000158498EC898318B8E0210AFA4E6E82C4F1F0210AFE4ECE4584958491F64
S1230E2F01AFE4ECE431ABF6C8945D2C58F6C8955D2652F6C88AE762E662CB03E7E82DE67B
S1230E4FE82D4F1F01AFE819ECE81958495849EDE819ECE819308BAFE819ECE819C3000125
S1230E6F58498EC898318B8E0286AFA4E6E82D4F1F0210AFE4ECE4584958491F01AFE4ECEC
S1230E8FE431AB2050F6C88AE762E662CB03E7E82EE6E82E4F1F01AFE817ECE8175849586E
S1230EAF49EDE817ECE817308BAFE817ECE817C3000158498EC898318B8E0210AFA4E6E8DB
S1230ECF2E4F1F0210AFE4ECE4584958491F01AFE4ECE431ABF6C8945D2658F6C8955D264A
S1230EEF52F6C88AE762E662CB04E7E82FE6E82F4F1F01AFE815ECE81558495849EDE815BA
S1230F0FECE815308BAFE815ECE815C3000158498EC898318B8E0286AFA4E6E82F4F1F02A0
S1230F2F10AFE4ECE4584958491F01AFE4ECE431AB2050F6C88AE762E662CB04E7E830E68D
S1230F4FE8304F1F01AFE813ECE81358495849EDE813ECE813308BAFE813ECE813C3000145
S1230F6F58498EC898318B8E0210AFA4E6E8304F1F0210AFE4ECE4584958491F01AFE4EC5E
S1230F8FE431ABF6C8945D2F58F6C8955D2652F6C88AE762E662CB05E7E831E6E8314F1F0A
S1230FAF01AFE811ECE81158495849EDE811ECE811308BAFE811ECE811C3000158498EC880
S1230FCF98318B8E0286AFA4E6E8314F1F0210AFE4ECE4584958491F01AFE4ECE431AB209E
S1230FEF4AF6C88AE762E662CB05E7E832E6E8324F1F01AF6FEC6F58495849ED6FEC6F30D9
S123100F8BAF6FEC6FC3000158498EC898318B8E0210AFA4E6E8324F1F0210AFE4ECE4587C
S123102F4958491F01AFE4ECE431ABF6C8945D2C52F6C8955D2C4CF6C88AE762E662CB0655
S123104FE7E833E6E8334F1F01AF6DEC6D58495849ED6DEC6D308BAF6DEC6DC3000158490C
S123106F8EC898318B8E0286AFA4E6E8334F1F0210AFE4ECE4584958491F01AFE4ECE43170
S123108FAB204AF6C88AE762E662CB06E7E834E6E8344F1F01AF6BEC6B58495849ED6BEC13
S12310AF6B308BAF6BEC6BC3000158498EC898318B8E0210AFA4E6E8344F1F0210AFE4EC83
S12310CFE4584958491F01AFE4ECE431ABF6C8945D2652F6C8955D2C4CF6C88AE762E66250
S12310EFCB07E7E835E6E8354F1F01AF69EC6958495849ED69EC69308BAF69EC69C300014F
S123110F58498EC898318B8E0286AFA4E6E8354F1F0210AFE4ECE4584958491F01AFE4EC41
S123112FE431AB204AF6C88AE762E662CB07E7E836E6E8364F1F01AF67EC6758495849EDB7
S123114F67EC67308BAF67EC67C3000158498EC898318B8E0210AFA4E6E8364F1F0210AF69
S123116FE4ECE4584958491F01AFE4ECE431ABF6C8945D2F52F6C8955D2C4CF6C88AE7621E
S123118FE662CB08E7E837E6E8374F1F01AF65EC6558495849ED65EC65308BAF65EC65C37A
S12311AF000158498EC898318B8E0286AFA4E6E8374F1F0210AFE4ECE4584958491F01AF6E
S12311CFE4ECE431AB204AF6C88AE762E662CB08E7E838E6E8384F1F01AF63EC6358495880
S12311EF49ED63EC63308BAF63EC63C3000158498EC898318B8E0210AFA4E6E8384F1F0260
S123120F10AFE4ECE4584958491F01AFE4ECE431AB32E83935A0327EBDF1BABDF1F8F6C803
S123122F1BF7C894F6C81CF7C895F6C81BF7C894F6C81CF7C895F6C8945D2C0BF6C8955D0F
S123124F2F057FC8962006F6C896F7C896F6C8945D260DF6C8955D2F07C601F7C896200691
S123126FF6C896F7C896F6C8945D2F0DF6C8955D2F07C602F7C8962006F6C896F7C896F6FF
S123128FC8945D2C0DF6C8955D2607C603F7C8962006F6C896F7C896F6C8945D260DF6C8DF
S12312AF955D2607C604F7C8962006F6C896F7C896F6C8945D2F0DF6C8955D2607C605F784
S12312CFC8962006F6C896F7C896F6C8945D2C0DF6C8955D2C07C606F7C8962006F6C89668
S12312EFF7C896F6C8945D260DF6C8955D2C07C607F7C8962006F6C896F7C896F6C8945D21
S123130F2F0DF6C8955D2C07C608F7C8962006F6C896F7C896F6C811C4015D271CF6C8892E
S123132FE7E4F6C896E761E6E44F1F01E661E789C906F6C8895CF7C88932623921534E45B5
S123134F414B59204F46465345542180007FC88AF6C88DC1032328F6C88DC1072221C6C8FE
S123136FE7E28E0190C603BD1AE23261C6A6E7E28E134BC673BD1A3A3261C603F7C88AF657
S123138FC88DC10A2328F6C88DC10D2221C6C8E7E28E0190C603BD1AE23261C6A6E7E28E25
S12313AF134BC673BD1A3A3261C602F7C88A3934603272E76DE66DE76BE66D1DED69EC6949
S12313CF5849ED69EC6958495849AE69308BAF69EE6930C9C898E684E762E6625CE76CE642
S12313EF6B1DEDE4AEE4AF67EC675849ED67EC6758495849EE6733CBEF67EE6730C9C898A5
S123140FE66CE784E66D1DED65EC655849ED65EC6558495849AE65308BAF65EE6530C9C86D
S123142F98E684C1192F22E66D1DED63EC635849ED63EC6358495849AE63308BAF63EE63AC
S123144F31C9C89C8E14FAAFA4326E35E034603272E76DE66DE76BE66D1DED69EC6958498A
S123146FED69EC6958495849AE69308BAF69EE6930C9C899E684E762E6625CE76CE66B1DB9
S123148FEDE4AEE4AF67EC675849ED67EC6758495849EE6733CBEF67EE6730C9C899E66C39
S12314AFE784E66D1DED65EC655849ED65EC6558495849AE65308BAF65EE6530C9C899E6A0
S12314CF84C1192F22E66D1DED63EC635849ED63EC6358495849AE63308BAF63EE6331C990
S12314EFC89E8E1598AFA4326E35E034603272E76DE66DE76BE66D1DED69EC695849ED69ED
S123150FEC6958495849AE69308BAF69EE6930C9C898E684E762E6625AE76CE66B1DEDE4A0
S123152FAEE4AF67EC675849ED67EC6758495849EE6733CBEF67EE6730C9C898E66CE784FF
S123154FE66D1DED65EC655849ED65EC6558495849AE65308BAF65EE6530C9C898E684C126
S123156FE72C22E66D1DED63EC635849ED63EC6358495849AE63308BAF63EE6331C9C89C05
S123158F8E13BEAFA4326E35E034603272E76DE66DE76BE66D1DED69EC695849ED69EC6939
S12315AF58495849AE69308BAF69EE6930C9C899E684E762E6625AE76CE66B1DEDE4AEE4C2
S12315CFAF67EC675849ED67EC6758495849EE6733CBEF67EE6730C9C899E66CE784E66D9D
S12315EF1DED65EC655849ED65EC6558495849AE65308BAF65EE6530C9C899E684C1E72CC5
S123160F22E66D1DED63EC635849ED63EC6358495849AE63308BAF63EE6331C9C89E8E14D3
S123162F5CAFA4326E35E0BEC89C5FAD84BEC8A6C601AD84BEC8B0C602AD84BEC8BAC60325
S123164FAD84BEC8C4C604AD84BEC8CEC605AD84BEC8D8C606AD84BEC8E2C607AD84BEC86A
S123166FECC608AD84BEC89E5FAD84BEC8A8C601AD84BEC8B2C602AD84BEC8BCC603AD8425
S123168FBEC8C6C604AD84BEC8D0C605AD84BEC8DAC606AD84BEC8E4C607AD84BEC8EEC69F
S12316AF08AD8439594F5520434F4D504C455445442054484953204C4556454C8000327ECB
S12316CFF6C88BC1022606F6C88DF7C88EF6C88BC1032606F6C88DF7C88FF6C88BC1042621
S12316EF06F6C88DF7C890F6C889C110102600ADC688E7E28E16B3C664BD1A3A3261C6B08A
S123170FE7E28E0B0EC646BD1A3A3261C6C4E7E28E0B1EC632BD1A3A3261C6B0E7E28E0B18
S123172F2AC614BD1A3A3261C69CE7E28E0B3A5FBD1A3A3261BDF1BAF6C811C4025D272943
S123174F8E1895BFC91E6FE4200BE6E41D1F016F89C9066CE4E6E4C1132FEFF6C88DBD082D
S123176FC9C601F7C88D7FC889F6C811C4045D272C8E18DBBFC91E7FC88B6F61200BE66128
S123178F1D1F016F89C9066C61E661C1132FEFF6C88DBD08C9C601F7C88D7FC889326239A3
S12317AF327CF6C889E763201EE6634F1F01E689C8F2E761E6634F1F01E689C906E1612711
S12317CF068E0B4DBFC91EE663E7E46DE42704C601E7E4E6E46A635D26CFF6C88DE762F6CF
S12317EFC889E162264B8E0210BFC89A8E0210BFC8A48E0210BFC8AE8E0210BFC8B88E0201
S123180F10BFC8C28E0210BFC8CC8E0210BFC8D68E0210BFC8E08E0210BFC8EAF6C88D5CAD
S123182FF7C88D7FC889C6C8F7C8938E1895BFC91E326439327DBD0388BD09AABD0AC4F601
S123184FC889E761F6C88DE762F6C889E7E4E662E0E4E7E4E6613404E661BD09C33261F687
S123186FC88BC1032603BD135CF6C88BC1042603BD1636F6C8915CF7C891BD0C26BD1225CB
S123188FBD17AF326339BD0388BD0A198E1843BFC91E3953454C454354205448452047418B
S12318AF4D454D4F444580004E4F524D414C2031362F80004841524420202031362F80004A
S12318CF45585452454D2031362F8000327DC601F7C81FC603F7C8207FC8217FC8226FE4CA
S12318EFC601E761C601E7621600E4BDF1BA6CE4BDF354C688E7E28E18A2C664BD1A3A3234
S123190F61C6CEE7E28E18B7C63CBD1A3A3261C6CEE7E28E18C3C628BD1A3A3261C6CEE720
S123192FE28E18CFC614BD1A3A3261BDF354F6C88E3404C63CE7E2C63CBD1A8E3262F6C8B3
S123194F8F3404C63CE7E2C628BD1A8E3262F6C8903404C63CE7E2C614BD1A8E3262BDF129
S123196FBABDF1F8F6C81C5D2604C601E762F6C81C5D2F0E6D61270AE662C10126046A6210
S123198F6A61F6C81C5D2C10E661C101220AE662C10126046A626C61E661BD04DDF6C81140
S12319AFC4015D272A6D612607C602F7C88B201FE661C1012607C603F7C88B2012E661C1D2
S12319CF022607C604F7C88B2005C602F7C88BF6C88BC101102FFF13E6E4BD08C97FC897E8
S12319EF8E1895BFC91E326339327C2025BDF1AFBEC91AAFE4AEE4BD1A64BEC91CAF62AE72
S1231A0F62BD1A6DBDF192BD1A87BDF2A5BEC91EAD84F6C8975D27D5326439327FBD06D57F
S1231A2FE7E46DE427F7E6E43261393279E762AFE4C6CCD70CC67FD704E662E766E669E7DC
S1231A4F65AEE4AF63E666E7E2AE64E666BD1AD7326132673934403384BDF92E35C034604C
S1221A6F3384BDF68735E0EC6226037EF0003410BD1B5632621F01393440BDF28935C069
S1231A8E327AE7E4C680E763C630E762C630E761200BE6615CE761E669CBF6E769E669C12A
S1231AAE0922EFE669CB30E762C6CCD70CC67FD704E6E4E765E668E7643061E665E7E2E698
S1231ACE65BD1AD732613266393440A6643384BDF37A35C03273E762AFE4E66258E763ECD2
S1231AEEE4E764E6636C63E768E664E767E668E7E2E668BD1B4C3261ECE41F894FE765E691
S1231B0E63E76AE665E769E66AE7E2E66ABD1B4C3261E662CB08E766E666E76CE66FE76B96
S1231B2EE66CE7E2E66CBD1B4C3261C607E7E2C6F8BD1B4C3261326D39A6627EF3DFA6622C
S1231B4E7EF256A6627EF312327D6F606C604D2B066C60584920F8ED61EC656F656F66A3EA
S1231B6E612406E3611CFE20021A0169666965646166626A6026E8326339FEE8FEB68080C3
S1091B8E00803F0001800D
S9030000FC
