S12300006720474345203230323580FD0DF85018B34E4555524F20564543544F5280008E76
S123002000BB271BCE005E33C91CA933C9000033C90000108EC880A6C0A7A0301F26F88E4C
S12300400012270A108EC93B6FA0301F26FABD02125D27068E0000BFCBFEBDF00039C4DD41
S1230060C4E7C4F1C4FBC405C40FC419C423BADDBAE7BAF1BAFBBA05BA0FBA19BA2300200D
S123008020FFE0E0002000FFE020010000003CC4FF0078FF8800FF0088FF78000100000060
S12300A03CC4FF0078FF8800FF0088FF7800FF8878007800FF8888010000001020FFE0E0CA
S12300C0002000FFE020010000002010FFE000001010FF00E0010000FF8800FF0078FF7878
S12300E000FF0088010000FF001EFF0F0AFFF10AFF000FFFF10AFF2D0FFFC90FFF190FFF05
S1230100000F01000000887800880000880000880000EC9C00EC9C00ECBAFF0064FF0064B7
S1230120FF005A003CE2FF9C32FF003CFF004BFF324BFF324BFF3200FF1E3CFF5028FF3CBE
S123014000FF14ECFF0FE2FFECCE001432FF1E1EFF4600FF1EF6FFD8BA002846FF4600FFD7
S123016032E7FF00C4FFCEE7FFE7CE004B4BFF3CE2FF3CE2FF3CCEFF00CEFF28CEFF1E9CE3
S1230180FFE2C4FFE2BF010000008888008800008800008800FF9CCEFF00C4FF00B5FF325C
S12301A0B5FF32B5FF3200FF1EC4FF50D8FF3C00FF1414FF0F1EFFEC320014CEFF1EE2FFDC
S12301C04600FF1E0AFFD8460028BAFF4600FF3219FF003CFFCE19FFE732004BB5FF3C1E8E
S12301E0FF3C1EFF3C32FF0032FF2832FF1E64FFE23CFFE24101000000003CAB28AB14AB71
S1150200000400FFF60AFFF6F6000A0AFF00EC010000FA
S1230212327F6FE4BD04FCBD06956DE427F6E6E4326139C4DDC4E7C4F1C4FBC405C40FC48B
S123023219C423BADDBAE7BAF1BAFBBA05BA0FBA19BA23002020FFE0E0002000FFE02001B9
S12302520000003CC4FF0078FF8800FF0088FF7800010000003CC4FF0078FF8800FF008806
S1230272FF7800FF8878007800FF8888010000001020FFE0E0002000FFE02001000000203B
S123029210FFE000001010FF00E0010000FF8800FF0078FF7800FF0088010000FF001EFF40
S12302B20F0AFFF10AFF000FFFF10AFF2D0FFFC90FFF190FFF000F0100000088780088003D
S12302D200880000880000EC9C00EC9C00ECBAFF0064FF0064FF005A003CE2FF9C32FF0039
S12302F23CFF004BFF324BFF324BFF3200FF1E3CFF5028FF3C00FF14ECFF0FE2FFECCE0086
S12303121432FF1E1EFF4600FF1EF6FFD8BA002846FF4600FF32E7FF00C4FFCEE7FFE7CE67
S1230332004B4BFF3CE2FF3CE2FF3CCEFF00CEFF28CEFF1E9CFFE2C4FFE2BF010000008885
S123035288008800008800008800FF9CCEFF00C4FF00B5FF32B5FF32B5FF3200FF1EC4FFAA
S123037250D8FF3C00FF1414FF0F1EFFEC320014CEFF1EE2FF4600FF1E0AFFD8460028BA48
S1230392FF4600FF3219FF003CFFCE19FFE732004BB5FF3C1EFF3C1EFF3C32FF0032FF2808
S12303B232FF1E64FFE23CFFE24101000000003CAB28AB14AB000400FFF60AFFF6F6000AC3
S10A03D20AFF00EC0100002A
S12303D9F6C8905D26068E070ABFC94739327DBD19E2BD09C6BEC945AD84BEC949AD84BDD4
S12303F90A05BD0711F6C882E761F6C884E762F6C882E7E4E662E0E4E7E4E6613404E66141
S1230419BD09883261BD092DBD03D932633952454D454D4245522054484580005345515576
S1230439454E43458000327FBD19E26FE4204FBDF192BD19E2F6C8846FE2BD09883261BDB0
S123045909C6E6E44F1F01E689C922BD18FDC6B5E7E28E0427C664BD1BAD3261C6CEE7E2AF
S12304798E0435C650BD1BAD3261F6C8835AF7C883F6C8835D26B8C61EF7C8836CE4F6C8DD
S123049984E1E422E5C6C8F7C885F6C8846FE2BD098832617FC892C620F7C8DCC608F7C8C2
S12304B9908E03E6BFC94732613953454C454354205448452047414D454D4F444580004E8F
S12304D94F524D414C2031362F80004841524420202031362F800045585452454D2031365D
S12304F92F8000327EC601F7C81FC603F7C8207FC8217FC8226FE4C601E761160168BDF1D3
S1230519926CE4BDF1BAC688E7E28E04C3C664BD1BAD3261C6B0E7E28E04D8C63CBD1BAD96
S12305393261C6B0E7E28E04E4C628BD1BAD3261C6B0E7E28E04F0C614BD1BAD3261F6C8DF
S1230559893404C61EE7E2C63CBD1C013262F6C88A3404C61EE7E2C628BD1C013262F6C859
S12305798B3404C61EE7E2C614BD1C013262BDF1F8F6C81C5D2604C601E761F6C81C5D2F2A
S123059916F6C881C101230FE661C10126096A61F6C8815AF7C881F6C81C5D2C16F6C88161
S12305B9C102220FE661C10126096A61F6C8815CF7C881F6C881BD1B67F6C811C4015D10CD
S12305D92700A3C601F7C88FBD16A18E18A4BFC8968E18A4BFC89E8E18A4BFC8A68E18A414
S12305F9BFC8AE8E18A4BFC8B68E18A4BFC8BE8E18A4BFC8C68E18A4BFC8CE8E18A4BFC88C
S1230619D6F6C881C10126148E1358BFC9458E1359BFC9498EC889BFC88C2052F6C881C1B7
S12306390226148E1048BFC9458E10AABFC9498EC88ABFC88C2037F6C881C10326148E0E72
S123065906BFC9458E1359BFC9498EC88BBFC88C201C8E1358BFC9458E1359BFC9498EC8C8
S123067989BFC88C2008F6C8815D1026FE90E6E4BD148D8E043FBFC947326239327BC60130
S1230699E7E42025BDF1AFBEC937AF61AE61BD1BD7BEC939AF63AE63BD1BE0BDF192BD1B91
S12306B9FABDF2A5BEC947AD846DE426D7326539BDF1BAF6C811C4025D27148E043FBFC9C4
S12306D947F6C884BD148D7FC882C601F7C884F6C811C4045D27198E04FCBFC947C601F7F4
S12306F9C881F6C884BD148D7FC882C601F7C88439BD0BF2BD06C939327FF6C88F5D2606E2
S12307198E070ABFC947F6C884E7E4F6C882E1E4264B8E18A4BFC8968E18A4BFC89E8E184F
S1230739A4BFC8A68E18A4BFC8AE8E18A4BFC8B68E18A4BFC8BE8E18A4BFC8C68E18A4BF96
S1230759C8CE8E18A4BFC8D6F6C8845CF7C8847FC882C6C8F7C8858E043FBFC94732613957
S1230779C4DDC4E7C4F1C4FBC405C40FC419C423BADDBAE7BAF1BAFBBA05BA0FBA19BA236C
S1230799002020FFE0E0002000FFE020010000003CC4FF0078FF8800FF0088FF7800010020
S12307B900003CC4FF0078FF8800FF0088FF7800FF8878007800FF8888010000001020FF6A
S12307D9E0E0002000FFE020010000002010FFE000001010FF00E0010000FF8800FF00780F
S12307F9FF7800FF0088010000FF001EFF0F0AFFF10AFF000FFFF10AFF2D0FFFC90FFF197C
S12308190FFF000F01000000887800880000880000880000EC9C00EC9C00ECBAFF0064FFED
S12308390064FF005A003CE2FF9C32FF003CFF004BFF324BFF324BFF3200FF1E3CFF502875
S1230859FF3C00FF14ECFF0FE2FFECCE001432FF1E1EFF4600FF1EF6FFD8BA002846FF467B
S123087900FF32E7FF00C4FFCEE7FFE7CE004B4BFF3CE2FF3CE2FF3CCEFF00CEFF28CEFF7E
S12308991E9CFFE2C4FFE2BF010000008888008800008800008800FF9CCEFF00C4FF00B5B3
S12308B9FF32B5FF32B5FF3200FF1EC4FF50D8FF3C00FF1414FF0F1EFFEC320014CEFF1E6C
S12308D9E2FF4600FF1E0AFFD8460028BAFF4600FF3219FF003CFFCE19FFE732004BB5FFE7
S12308F93C1EFF3C1EFF3C32FF0032FF2832FF1E64FFE23CFFE24101000000003CAB28ABB6
S117091914AB000400FFF60AFFF6F6000A0AFF00EC01000019
S123092DF6C8925CF7C892F6C892C108260DF6C8DC5CF7C8DCF6C890F7C892F6C8DCC120B2
S123094D260A7FC8DCF6C8905AF7C890BD1B37BD09663942504D2F8000C646E7E28E09606E
S123096DC664BD1BAD3261F6C890860C3D3404C632E7E2C664BD1C01326239327DE7622025
S123098D08F6C882EB62BD1956E662E7616D612704C601E761E6616A625D26E52005E66502
S12309ADBD199CE665E7E46DE42704C601E7E4E6E46A655D26E8326339BEC8965FAD84BE54
S12309CDC89EC601AD84BEC8A6C602AD84BEC8AEC603AD84BEC8B6C604AD84BEC8BEC6050F
S12309EDAD84BEC8C6C606AD84BEC8CEC607AD84BEC8D6C608AD8439327FBDF1BABDF1F8C7
S1230A0DF6C81BF7C887F6C81CF7C888F6C81BF7C887F6C81CF7C888F6C8875D2C0BF6C8AE
S1230A2D885D2F057FC8862006F6C886F7C886F6C8875D260DF6C8885D2F07C601F7C88656
S1230A4D2006F6C886F7C886F6C8875D2F0DF6C8885D2F07C602F7C8862006F6C886F7C8E9
S1230A6D86F6C8875D2C0DF6C8885D2607C603F7C8862006F6C886F7C886F6C8875D260DA2
S1230A8DF6C8885D2607C604F7C8862006F6C886F7C886F6C8875D2F0DF6C8885D2607C643
S1230AAD05F7C8862006F6C886F7C886F6C8875D2C0DF6C8885D2C07C606F7C8862006F64E
S1230ACDC886F7C886F6C8875D260DF6C8885D2C07C607F7C8862006F6C886F7C886F6C848
S1230AED875D2F0DF6C8885D2C07C608F7C8862006F6C886F7C886F6C811C4015D271FF600
S1230B0DC8824F1F01E689C922E7E4F6C886E1E42609F6C8825CF7C88220037FC88F326145
S1230B2D39594F5520434F4D504C455445442054484953204C4556454C80005052455353B4
S1230B4D20425554544F4E20328000544F20524553544152548000505245535320425554B6
S1230B6D544F4E20338000544F20474F20544F20544845204D454E558000327FBEC88CE605
S1230B8D84E7E4F6C884E1E42308BEC88CF6C884E784C688E7E28E0B2EC664BD1BAD3261E4
S1230BADC6B0E7E28E0B48C646BD1BAD3261C6C4E7E28E0B58C632BD1BAD3261C6B0E7E24D
S1230BCD8E0B64C614BD1BAD3261C69CE7E28E0B745FBD1BAD326132613947414D45204F11
S1230BED5645528000327FBEC88CE684E7E4F6C884E1E42308BEC88CF6C884E784C6C4E71D
S1230C0DE28E0BE7C664BD1BAD3261C6B0E7E28E0B48C646BD1BAD3261C6C4E7E28E0B5897
S1230C2DC632BD1BAD3261C6B0E7E28E0B64C614BD1BAD3261C69CE7E28E0B745FBD1BAD49
S1230C4D3261326139C4DDC4E7C4F1C4FBC405C40FC419C423BADDBAE7BAF1BAFBBA05BAF3
S1230C6D0FBA19BA23002020FFE0E0002000FFE020010000003CC4FF0078FF8800FF008800
S1230C8DFF7800010000003CC4FF0078FF8800FF0088FF7800FF8878007800FF8888010048
S1230CAD00001020FFE0E0002000FFE020010000002010FFE000001010FF00E0010000FF06
S1230CCD8800FF0078FF7800FF0088010000FF001EFF0F0AFFF10AFF000FFFF10AFF2D0F93
S1230CEDFFC90FFF190FFF000F01000000887800880000880000880000EC9C00EC9C00EC42
S1230D0DBAFF0064FF0064FF005A003CE2FF9C32FF003CFF004BFF324BFF324BFF3200FF51
S1230D2D1E3CFF5028FF3C00FF14ECFF0FE2FFECCE001432FF1E1EFF4600FF1EF6FFD8BA84
S1230D4D002846FF4600FF32E7FF00C4FFCEE7FFE7CE004B4BFF3CE2FF3CE2FF3CCEFF00B4
S1230D6DCEFF28CEFF1E9CFFE2C4FFE2BF010000008888008800008800008800FF9CCEFF90
S1230D8D00C4FF00B5FF32B5FF32B5FF3200FF1EC4FF50D8FF3C00FF1414FF0F1EFFEC321A
S1230DAD0014CEFF1EE2FF4600FF1E0AFFD8460028BAFF4600FF3219FF003CFFCE19FFE740
S1230DCD32004BB5FF3C1EFF3C1EFF3C32FF0032FF2832FF1E64FFE23CFFE2410100000066
S1230DED003CAB28AB14AB000400FFF60AFFF6F6000A0AFF00EC010000BEC8985FAD84BE0F
S1230E0DC8A0C601AD84BEC8A8C602AD84BEC8B0C603AD84BEC8B8C604AD84BEC8C0C605C0
S1230E2DAD84BEC8C8C606AD84BEC8D0C607AD84BEC8D8C608AD84BEC89A5FAD84BEC8A29C
S1230E4DC601AD84BEC8AAC602AD84BEC8B2C603AD84BEC8BAC604AD84BEC8C2C605AD84AF
S1230E6DBEC8CAC606AD84BEC8D2C607AD84BEC8DAC608AD8439C4DDC4E7C4F1C4FBC4059D
S1230E8DC40FC419C423BADDBAE7BAF1BAFBBA05BA0FBA19BA23002020FFE0E0002000FFBC
S1230EADE020010000003CC4FF0078FF8800FF0088FF7800010000003CC4FF0078FF880025
S1230ECDFF0088FF7800FF8878007800FF8888010000001020FFE0E0002000FFE02001006D
S1230EED00002010FFE000001010FF00E0010000FF8800FF0078FF7800FF0088010000FFD6
S1230F0D001EFF0F0AFFF10AFF000FFFF10AFF2D0FFFC90FFF190FFF000F01000000887840
S1230F2D00880000880000880000EC9C00EC9C00ECBAFF0064FF0064FF005A003CE2FF9C7A
S1230F4D32FF003CFF004BFF324BFF324BFF3200FF1E3CFF5028FF3C00FF14ECFF0FE2FFA7
S1230F6DECCE001432FF1E1EFF4600FF1EF6FFD8BA002846FF4600FF32E7FF00C4FFCEE7FA
S1230F8DFFE7CE004B4BFF3CE2FF3CE2FF3CCEFF00CEFF28CEFF1E9CFFE2C4FFE2BF0100F2
S1230FAD00008888008800008800008800FF9CCEFF00C4FF00B5FF32B5FF32B5FF3200FF9C
S1230FCD1EC4FF50D8FF3C00FF1414FF0F1EFFEC320014CEFF1EE2FF4600FF1E0AFFD846E2
S1230FED0028BAFF4600FF3219FF003CFFCE19FFE732004BB5FF3C1EFF3C1EFF3C32FF0018
S123100D32FF2832FF1E64FFE23CFFE24101000000003CAB28AB14AB000400FFF60AFFF602
S123102DF6000A0AFF00EC01000021534E45414B59204F46465345542180007FC88EF6C8A2
S123104D84C1032328F6C884C1072221C6C8E7E28E0190C603BD1C553261C6A6E7E28E10CC
S123106D37C673BD1BAD3261C620F7C893F6C884C10A2328F6C884C10D2221C6C8E7E28E0F
S123108D0190C603BD1C553261C6A6E7E28E1037C673BD1BAD3261C60AF7C89339BDF1F8C8
S12310ADF6C81BF7C887F6C81CF7C888F6C8875D2C0EF6C8885D2F088E18FDBFC896200643
S12310CD8E18A4BFC896F6C8875D260EF6C8885D2F088E18FDBFC89E20068E18A4BFC89E8B
S12310EDF6C8875D2F0EF6C8885D2F088E18FDBFC8A620068E18A4BFC8A6F6C8875D2C0EDD
S123110DF6C8885D26088E18FDBFC8AE20068E18A4BFC8AEF6C8875D260EF6C8885D2608C9
S123112D8E18FDBFC8B620068E18A4BFC8B6F6C8875D2F0EF6C8885D26088E18FDBFC8BE79
S123114D20068E18A4BFC8BEF6C8875D2C0EF6C8885D2C088E18FDBFC8C620068E18A4BFF7
S123116DC8C6F6C8875D260EF6C8885D2C088E18FDBFC8CE20068E18A4BFC8CEF6C8875DC4
S123118D2F0EF6C8885D2C088E18FDBFC8D620068E18A4BFC8D639C4DDC4E7C4F1C4FBC4A0
S12311AD05C40FC419C423BADDBAE7BAF1BAFBBA05BA0FBA19BA23002020FFE0E000200093
S12311CDFFE020010000003CC4FF0078FF8800FF0088FF7800010000003CC4FF0078FF8803
S12311ED00FF0088FF7800FF8878007800FF8888010000001020FFE0E0002000FFE020014A
S123120D0000002010FFE000001010FF00E0010000FF8800FF0078FF7800FF0088010000B1
S123122DFF001EFF0F0AFFF10AFF000FFFF10AFF2D0FFFC90FFF190FFF000F010000008896
S123124D7800880000880000880000EC9C00EC9C00ECBAFF0064FF0064FF005A003CE2FF7B
S123126D9C32FF003CFF004BFF324BFF324BFF3200FF1E3CFF5028FF3C00FF14ECFF0FE2E7
S123128DFFECCE001432FF1E1EFF4600FF1EF6FFD8BA002846FF4600FF32E7FF00C4FFCEBF
S12312ADE7FFE7CE004B4BFF3CE2FF3CE2FF3CCEFF00CEFF28CEFF1E9CFFE2C4FFE2BF01E8
S12312CD0000008888008800008800008800FF9CCEFF00C4FF00B5FF32B5FF32B5FF320078
S12312EDFF1EC4FF50D8FF3C00FF1414FF0F1EFFEC320014CEFF1EE2FF4600FF1E0AFFD806
S123130D460028BAFF4600FF3219FF003CFFCE19FFE732004BB5FF3C1EFF3C1EFF3C32FFAE
S123132D0032FF2832FF1E64FFE23CFFE24101000000003CAB28AB14AB000400FFF60AFFD5
S123134DF6F6000A0AFF00EC01000039BDF1F8F6C81BF7C887F6C81CF7C888F6C8875D2CA3
S123136D0EF6C8885D2F088E18FDBFC89620068E18A4BFC896F6C8875D260EF6C8885D2F7F
S123138D088E18FDBFC89E20068E18A4BFC89EF6C8875D2F0EF6C8885D2F088E18FDBFC8F4
S12313ADA620068E18A4BFC8A6F6C8875D2C0EF6C8885D26088E18FDBFC8AE20068E18A4E4
S12313CDBFC8AEF6C8875D260EF6C8885D26088E18FDBFC8B620068E18A4BFC8B6F6C8874E
S12313ED5D2F0EF6C8885D26088E18FDBFC8BE20068E18A4BFC8BEF6C8875D2C0EF6C888B2
S123140D5D2C088E18FDBFC8C620068E18A4BFC8C6F6C8875D260EF6C8885D2C088E18FD2D
S123142DBFC8CE20068E18A4BFC8CEF6C8875D2F0EF6C8885D2C088E18FDBFC8D620068E17
S109144D18A4BFC8D63943
S1231453327D6F62202BE662E761E6621D1F01E689C9224F8E000934101F01BD1BE932629C
S12314731F10E7E4E6611D1F01E6E4E789C9226C62E662C1132FCF3263393279E7656F6630
S1231493160072E66554545454E761E665E861E765E665585858E7E4E6E4EB65E765E6651B
S12314B3595959C403E762E665E862E765E6655858E7E4E6E4EB65E765E6655454545454FE
S12314D3E763E665E863E765E666E764E6661D1F01E689C922EB654F8E000934101F01BDF8
S12314F31BE932621F10E7E4E6641D1F01E6E4E789C9226C66E666C113102FFF863267390F
S12315133460327AE765E665E763E6651D584958495849CEC89430CBE684E762E6625CE7E5
S123153364E6631DEDE4ECE4584958495849CEC89430CBE664E784E6651D58495849584921
S1231553CEC89430CBE684C1192F16E6651D5849C30001584958498EC894318B8E15DAAFE5
S1231573A4326635E03460327AE765E665E763E6651D584958495849CEC89530CBE684E720
S123159362E6625CE764E6631DEDE4ECE4584958495849CEC89530CBE664E784E6651D585E
S12315B34958495849CEC89530CBE684C1192F13E6651D5849584958498EC89A318B8E1642
S12315D33FAFA4326635E03460327AE765E665E763E6651D584958495849CEC89430CBE63E
S12315F384E762E6625AE764E6631DEDE4ECE4584958495849CEC89430CBE664E784E6650B
S12316131D584958495849CEC89430CBE684C1E72C16E6651D5849C30001584958498EC8D5
S123163394318B8E1513AFA4326635E03460327AE765E665E763E6651D584958495849CE53
S1231653C89530CBE684E762E6625AE764E6631DEDE4ECE4584958495849CEC89530CBE685
S123167364E784E6651D584958495849CEC89530CBE684C1E72C13E6651D58495849584977
S12316938EC89A318B8E1578AFA4326635E0C610F7C894C6F0F7C895C610F7C89C7FC89D24
S12316B3C610F7C8A4C610F7C8A57FC8ACC6F0F7C8AD7FC8B47FC8B57FC8BCC610F7C8BD3F
S12316D3C6F0F7C8C4C6F0F7C8C5C6F0F7C8CC7FC8CDC6F0F7C8D4C610F7C8D539C4DDC4DA
S12316F3E7C4F1C4FBC405C40FC419C423BADDBAE7BAF1BAFBBA05BA0FBA19BA2300202008
S1231713FFE0E0002000FFE020010000003CC4FF0078FF8800FF0088FF7800010000003C9A
S1231733C4FF0078FF8800FF0088FF7800FF8878007800FF8888010000001020FFE0E0005C
S12317532000FFE020010000002010FFE000001010FF00E0010000FF8800FF0078FF7800CE
S1231773FF0088010000FF001EFF0F0AFFF10AFF000FFFF10AFF2D0FFFC90FFF190FFF005B
S12317930F01000000887800880000880000880000EC9C00EC9C00ECBAFF0064FF0064FF0F
S12317B3005A003CE2FF9C32FF003CFF004BFF324BFF324BFF3200FF1E3CFF5028FF3C0014
S12317D3FF14ECFF0FE2FFECCE001432FF1E1EFF4600FF1EF6FFD8BA002846FF4600FF32FC
S12317F3E7FF00C4FFCEE7FFE7CE004B4BFF3CE2FF3CE2FF3CCEFF00CEFF28CEFF1E9CFF6D
S1231813E2C4FFE2BF010000008888008800008800008800FF9CCEFF00C4FF00B5FF32B5FC
S1231833FF32B5FF3200FF1EC4FF50D8FF3C00FF1414FF0F1EFFEC320014CEFF1EE2FF46A1
S123185300FF1E0AFFD8460028BAFF4600FF3219FF003CFFCE19FFE732004BB5FF3C1EFF2B
S12318733C1EFF3C32FF0032FF2832FF1E64FFE23CFFE24101000000003CAB28AB14AB00C6
S12318930400FFF60AFFF6F6000A0AFF00EC0100003440327CE761BDF354C6FFD704C6F976
S12318B3E7E25FBD1CC43261E6614F584958495849CEC89530CBE684E7E4E6614F58495856
S12318D3495849CEC89430CBE684E763E6E4E762E663E7E2E663BD1CC43261F6C893D70464
S12318F38E171FBDF410326435C03440327CE761BDF354C6FFD704C6F9E7E25FBD1CC432FD
S123191361E6614F584958495849CEC89530CBE684E7E4E6614F584958495849CEC89430A8
S1231933CBE684E763E6E4E762E663E7E2E663BD1CC43261F6C893D7048E1731BDF410327E
S12319536435C03440327CE761BDF354C6FFD704E6614F5849CE16F130CBE684E7E4E66186
S12319734F5849CE16F030CBE684E763E6E4E762E663E7E2E663BD1CC43261C620D7048EF0
S12319931710BDF410326435C03440327CE761BDF354C6FFD704E6614F5849CE16F130CBA8
S12319B3E684E7E4E6614F5849CE16F030CBE684E763E6E4E762E663E7E2E663BD1CC432E4
S12319D361C620D7048E175BBDF410326435C0BDF354C680D704C62DE7E2C6C4BD1CC43248
S12319F3618E176ABDF410BDF354C618D704C650E7E25FBD1CC432618E1797BDF410BDF3C7
S1231A1354C650E7E25FBD1CC432618E181BBDF41039327FE7E4BDF354C67FD704C646E79F
S1231A33E2C6C4BD1CC43261E6E4D7046FE2C650BD1CBA3261BDF354C67FD704C642E7E2CC
S1231A53C6C4BD1CC43261E6E4D7046FE2C650BD1CBA3261BDF354C67FD704C63EE7E2C6CC
S1231A73C4BD1CC43261E6E4D7046FE2C650BD1CBA3261C6FFD704326139327EE7E4BDF392
S1231A9354E6E4E761E661E7E4C626D704C678E7E2C688BD1CC43261C678E7E2C688BD1C3D
S1231AB3C43261C678E7E2C688BD1CC43261E6E4D7046FE2C650BD1CBA3261C630D7048EA2
S1231AD31779BDF410E6E4D7046FE2C650BD1CBA3261C630D7048E1779BDF410E6E4D70417
S1231AF36FE2C650BD1CBA3261C630D7048E1779BDF410E6E4D7046FE2C650BD1CBA326160
S1231B13C630D7048E1779BDF410E6E4D7046FE2C650BD1CBA3261C630D7048E1779BDF42C
S1071B3310326239CD
S1231B37BDF354C630D704C678E7E2C688BD1CC43261C678E7E2C688BD1CC432616FE2C694
S1231B57CEBD1CC432618EC8DCBDF3CEBDF354393440327CE761BDF354C67FD704E6614F5B
S1231B775849CE188B30CBE684E7E4E6614F5849CE188A30CBE684E763E6E4E762E663E76F
S1231B97E2E663BD1CC43261C660D7048E1892BDF410326435C03279E762AFE4C6CCD70C4E
S1231BB7C67FD704E662E766E669E765AEE4AF63E666E7E2AE64E666BD1C4A32613267391B
S1231BD734403384BDF92E35C034603384BDF68735E0EC6226037EF0003410BD1CC93262ED
S10D1BF71F01393440BDF28935C0E6
S1231C01327AE7E4C680E763C630E762C630E761200BE6615CE761E669CBF6E769E669C1B5
S1231C210922EFE669CB30E762C6CCD70CC67FD704E6E4E765E668E7643061E665E7E2E623
S1231C4165BD1C4A32613266393440A6643384BDF37A35C03273E762AFE4E66258E763ECE8
S1231C61E4E764E6636C63E768E664E767E668E7E2E668BD1CBF3261ECE41F894FE765E6A8
S1231C8163E76AE665E769E66AE7E2E66ABD1CBF3261E662CB08E766E666E76CE66FE76BAE
S1231CA1E66CE7E2E66CBD1CBF3261C607E7E2C6F8BD1CBF3261326D39A6627EF3DFA662D0
S1231CC17EF256A6627EF312327D6F606C604D2B066C60584920F8ED61EC656F656F66A376
S1231CE1612406E3611CFE20021A0169666965646166626A6026E8326339FEE8FEB680804F
S1091D0100803F00018098
S9030000FC
