S12300006720474345203230323580FD0DF85018B34E4555524F20564543544F5280008E76
S12300200083271BCE005E33C91D2933C9000033C90000108EC880A6C0A7A0301F26F88E03
S12300400018270A108EC9036FA0301F26FABD02105D27068E0000BFCBFEBDF00039C4DD75
S1230060C4E7C4F1C4FBC405C40FC419C423BADDBAE7BAF1BAFBBA05BA0FBA19BA2300200D
S123008020FFE0E0002000FFE020010000003CC4FF0078FF8800FF0088FF78000100000060
S12300A03CC4FF0078FF8800FF0088FF7800FF8878007800FF8888010000001020FFE0E0CA
S12300C0002000FFE020010000002010FFE000001010FF00E0010000FF8800FF0078FF7878
S12300E000FF0088010000FF001EFF0F0AFFF10AFF000FFFF10AFF2D0FFFC90FFF190FFF05
S1230100000F01000000887800880000880000880000EC9C00EC9C00ECBAFF0064FF0064B7
S1230120FF005A003CE2FF9C32FF003CFF004BFF324BFF324BFF3200FF1E3CFF5028FF3CBE
S123014000FF14ECFF0FE2FFECCE001432FF1E1EFF4600FF1EF6FFD8BA002846FF4600FFD7
S123016032E7FF00C4FFCEE7FFE7CE004B4BFF3CE2FF3CE2FF3CCEFF00CEFF28CEFF1E9CE3
S1230180FFE2C4FFE2BF010000008888008800008800008800FF9CCEFF00C4FF00B5FF325C
S12301A0B5FF32B5FF3200FF1EC4FF50D8FF3C00FF1414FF0F1EFFEC320014CEFF1EE2FFDC
S12301C04600FF1E0AFFD8460028BAFF4600FF3219FF003CFFCE19FFE732004BB5FF3C1E8E
S12301E0FF3C1EFF3C32FF0032FF2832FF1E64FFE23CFFE2410100003CC928C914C9000413
S113020000FFF60AFFF6F6000A0AFF00EC01000000
S1230210327FBD04BBBD05F96DE427F6E6E4326139C4DDC4E7C4F1C4FBC405C40FC419C4E1
S123023023BADDBAE7BAF1BAFBBA05BA0FBA19BA23002020FFE0E0002000FFE02001000098
S1230250003CC4FF0078FF8800FF0088FF7800010000003CC4FF0078FF8800FF0088FF7891
S123027000FF8878007800FF8888010000001020FFE0E0002000FFE020010000002010FFA5
S1230290E000001010FF00E0010000FF8800FF0078FF7800FF0088010000FF001EFF0F0A38
S12302B0FFF10AFF000FFFF10AFF2D0FFFC90FFF190FFF000F0100000088780088000088D0
S12302D00000880000EC9C00EC9C00ECBAFF0064FF0064FF005A003CE2FF9C32FF003CFF88
S12302F0004BFF324BFF324BFF3200FF1E3CFF5028FF3C00FF14ECFF0FE2FFECCE0014327D
S1230310FF1E1EFF4600FF1EF6FFD8BA002846FF4600FF32E7FF00C4FFCEE7FFE7CE004B64
S12303304BFF3CE2FF3CE2FF3CCEFF00CEFF28CEFF1E9CFFE2C4FFE2BF010000008888004A
S12303508800008800008800FF9CCEFF00C4FF00B5FF32B5FF32B5FF3200FF1EC4FF50D80C
S1230370FF3C00FF1414FF0F1EFFEC320014CEFF1EE2FF4600FF1E0AFFD8460028BAFF462D
S123039000FF3219FF003CFFCE19FFE732004BB5FF3C1EFF3C1EFF3C32FF0032FF2832FF1E
S12303B01E64FFE23CFFE2410100003CC928C914C9000400FFF60AFFF6F6000A0AFF00ECA7
S10603D001000025
S12303D3BD1A92BD08BEBD0912BEC911AD84BD0D5FBEC915AD84BD0951BD06A13952454DEB
S12303F3454D42455220544845800053455155454E43458000327FBD1A926FE42054C6C8B2
S1230413F7C886BDF192BD1A92F6C8846FE2BD08D43261BD0912E6E44F1F01E689C8D7BD3C
S123043319AEC6B5E7E28E03F0C664BD1C2D3261C6CEE7E28E03FEC650BD1C2D3261F6C8FD
S1230453835AF7C883F6C8835D26B3C61EF7C8836CE4F6C884E1E422E57FC885F6C8846FEE
S1230473E2BD08D432618E03D3BFC91332613953454C454354205448452047414D454D4FF5
S1230493444580004E4F524D414C2031362F80004841524420202031362F80004558545265
S12304B3454D2031362F8000327DC601F7C81FC603F7C8207FC8217FC8226FE4C601E7612E
S12304D3C601E7621601086CE4BDF192BDF1BABDF354C688E7E28E0482C664BD1C2D3261EC
S12304F3C6CEE7E28E0497C63CBD1C2D3261C6CEE7E28E04A3C628BD1C2D3261C6CEE7E24E
S12305138E04AFC614BD1C2D3261BDF354F6C88D3404C63CE7E2C63CBD1C813262F6C88B85
S12305333404C63CE7E2C628BD1C813262F6C88A3404C63CE7E2C614BD1C813262BDF1F80C
S1230553F6C81C5D2604C601E762F6C81C5D2F0E6D61270AE662C10126046A626A61F6C817
S12305731C5D2C10E661C101220AE662C10126046A626C61E661BD1BE7F6C811C4015D278F
S12305934E6D612613C602F7C8818E1400BFC9118E1401BFC9152037E661C1012613C6030A
S12305B3F7C8818E0F9FBFC9118E1001BFC915201EE661C1022613C604F7C8818E0D5FBF8F
S12305D3C9118E1401BFC9152005C602F7C881F6C881C101102FFEEFE6E4BD15358E040825
S12305F3BFC913326339327BC601E7E42025BDF1AFBEC8FFAF61AE61BD1C57BEC901AF632C
S1230613AE63BD1C60BDF192BD1C7ABDF2A5BEC913AD846DE426D7326539327EBDF1BAF69B
S1230633C811C4025D27298E0408BFC9136FE4200BE6E41D1F016F89C8EB6CE4E6E4C11304
S12306532FEFF6C884BD15357FC882C601F7C884F6C811C4045D272C8E04BBBFC9137FC8D3
S1230673816F61200BE6611D1F016F89C8EB6C61E661C1132FEFF6C884BD15357FC882C6DA
S123069301F7C884326239BD0B61BD062D39327FBD0A77F6C88E5D26068E069ABFC913F65D
S12306B3C884E7E4F6C882E1E4264B8E1956BFC8918E1956BFC8998E1956BFC8A18E195642
S12306D3BFC8A98E1956BFC8B18E1956BFC8B98E1956BFC8C18E1956BFC8C98E1956BFC84B
S11C06F3D1F6C8845CF7C8847FC882C6C8F7C8868E0408BFC9133261399B
S123070CC4DDC4E7C4F1C4FBC405C40FC419C423BADDBAE7BAF1BAFBBA05BA0FBA19BA23D9
S123072C002020FFE0E0002000FFE020010000003CC4FF0078FF8800FF0088FF780001008D
S123074C00003CC4FF0078FF8800FF0088FF7800FF8878007800FF8888010000001020FFD7
S123076CE0E0002000FFE020010000002010FFE000001010FF00E0010000FF8800FF00787C
S123078CFF7800FF0088010000FF001EFF0F0AFFF10AFF000FFFF10AFF2D0FFFC90FFF19E9
S12307AC0FFF000F01000000887800880000880000880000EC9C00EC9C00ECBAFF0064FF5B
S12307CC0064FF005A003CE2FF9C32FF003CFF004BFF324BFF324BFF3200FF1E3CFF5028E3
S12307ECFF3C00FF14ECFF0FE2FFECCE001432FF1E1EFF4600FF1EF6FFD8BA002846FF46E9
S123080C00FF32E7FF00C4FFCEE7FFE7CE004B4BFF3CE2FF3CE2FF3CCEFF00CEFF28CEFFEB
S123082C1E9CFFE2C4FFE2BF010000008888008800008800008800FF9CCEFF00C4FF00B520
S123084CFF32B5FF32B5FF3200FF1EC4FF50D8FF3C00FF1414FF0F1EFFEC320014CEFF1ED9
S123086CE2FF4600FF1E0AFFD8460028BAFF4600FF3219FF003CFFCE19FFE732004BB5FF54
S123088C3C1EFF3C1EFF3C32FF0032FF2832FF1E64FFE23CFFE2410100003CC928C914C90A
S11508AC000400FFF60AFFF6F6000A0AFF00EC01000048
S12308BE327FE7E4E6E4BD1B3D6DE42604C6C8E7E46AE4326139327DE7622008F6C882EB82
S12308DE62BD1A06E662E7616D612704C601E761E6616A625D26E52005E665BD1A4CE665C6
S12308FEE7E46DE42704C601E7E4E6E46A655D26E8326339BEC8915FAD84BEC899C601ADF1
S123091E84BEC8A1C602AD84BEC8A9C603AD84BEC8B1C604AD84BEC8B9C605AD84BEC8C134
S123093EC606AD84BEC8C9C607AD84BEC8D1C608AD8439327EBDF1BABDF1F8F6C81BF7C866
S123095E88F6C81CF7C889F6C81BF7C888F6C81CF7C889F6C8885D2C0BF6C8895D2F057F58
S123097EC8872006F6C887F7C887F6C8885D260DF6C8895D2F07C601F7C8872006F6C8872D
S123099EF7C887F6C8885D2F0DF6C8895D2F07C602F7C8872006F6C887F7C887F6C8885DD4
S12309BE2C0DF6C8895D2607C603F7C8872006F6C887F7C887F6C8885D260DF6C8895D26AB
S12309DE07C604F7C8872006F6C887F7C887F6C8885D2F0DF6C8895D2607C605F7C887204C
S12309FE06F6C887F7C887F6C8885D2C0DF6C8895D2C07C606F7C8872006F6C887F7C887CE
S1230A1EF6C8885D260DF6C8895D2C07C607F7C8872006F6C887F7C887F6C8885D2F0DF66E
S1230A3EC8895D2C07C608F7C8872006F6C887F7C887F6C811C4015D271CF6C882E7E4F6B9
S1230A5EC887E761E6E44F1F01E661E789C8EBF6C8825CF7C882326239327DF6C882E76258
S1230A7E201BE6624F1F01E689C8D7E761E6624F1F01E689C8EBE16127037FC88EE662E7C3
S1230A9EE46DE42704C601E7E4E6E46A625D26D2326339594F5520434F4D504C45544544CF
S1230ABE2054484953204C4556454C8000505245535320425554544F4E20328000544F2086
S1230ADE524553544152548000505245535320425554544F4E20338000544F20474F205426
S1230AFE4F20544845204D454E5580008EC884BFC919C688E7E28E0AB1C664BD1C2D326111
S1230B1EC6B0E7E28E0ACBC646BD1C2D3261C6C4E7E28E0ADBC632BD1C2D3261C6B0E7E2D6
S1230B3E8E0AE7C614BD1C2D3261C69CE7E28E0AF75FBD1C2D32613947414D45204F564592
S1230B5E5280008EC884BFC919C6C4E7E28E0B56C664BD1C2D3261C6B0E7E28E0ACBC64673
S1230B7EBD1C2D3261C6C4E7E28E0ADBC632BD1C2D3261C6B0E7E28E0AE7C614BD1C2D3293
S1230B9E61C69CE7E28E0AF75FBD1C2D326139C4DDC4E7C4F1C4FBC405C40FC419C423BA0D
S1230BBEDDBAE7BAF1BAFBBA05BA0FBA19BA23002020FFE0E0002000FFE020010000003CA2
S1230BDEC4FF0078FF8800FF0088FF7800010000003CC4FF0078FF8800FF0088FF7800FF37
S1230BFE8878007800FF8888010000001020FFE0E0002000FFE020010000002010FFE0002D
S1230C1E001010FF00E0010000FF8800FF0078FF7800FF0088010000FF001EFF0F0AFFF190
S1230C3E0AFF000FFFF10AFF2D0FFFC90FFF190FFF000F0100000088780088000088000028
S1230C5E880000EC9C00EC9C00ECBAFF0064FF0064FF005A003CE2FF9C32FF003CFF004BA5
S1230C7EFF324BFF324BFF3200FF1E3CFF5028FF3C00FF14ECFF0FE2FFECCE001432FF1E13
S1230C9E1EFF4600FF1EF6FFD8BA002846FF4600FF32E7FF00C4FFCEE7FFE7CE004B4BFFA0
S1230CBE3CE2FF3CE2FF3CCEFF00CEFF28CEFF1E9CFFE2C4FFE2BF01000000888800880075
S1230CDE008800008800FF9CCEFF00C4FF00B5FF32B5FF32B5FF3200FF1EC4FF50D8FF3CC2
S1230CFE00FF1414FF0F1EFFEC320014CEFF1EE2FF4600FF1E0AFFD8460028BAFF4600FFD2
S1230D1E3219FF003CFFCE19FFE732004BB5FF3C1EFF3C1EFF3C32FF0032FF2832FF1E6403
S1230D3EFFE23CFFE2410100003CC928C914C9000400FFF60AFFF6F6000A0AFF00EC010090
S1230D5E00BEC8935FAD84BEC89BC601AD84BEC8A3C602AD84BEC8ABC603AD84BEC8B3C663
S1230D7E04AD84BEC8BBC605AD84BEC8C3C606AD84BEC8CBC607AD84BEC8D3C608AD84BE34
S1230D9EC8955FAD84BEC89DC601AD84BEC8A5C602AD84BEC8ADC603AD84BEC8B5C604AD26
S1230DBE84BEC8BDC605AD84BEC8C5C606AD84BEC8CDC607AD84BEC8D5C608AD8439C4DD81
S1230DDEC4E7C4F1C4FBC405C40FC419C423BADDBAE7BAF1BAFBBA05BA0FBA19BA23002082
S1230DFE20FFE0E0002000FFE020010000003CC4FF0078FF8800FF0088FF780001000000D5
S1230E1E3CC4FF0078FF8800FF0088FF7800FF8878007800FF8888010000001020FFE0E03E
S1230E3E002000FFE020010000002010FFE000001010FF00E0010000FF8800FF0078FF78EC
S1230E5E00FF0088010000FF001EFF0F0AFFF10AFF000FFFF10AFF2D0FFFC90FFF190FFF79
S1230E7E000F01000000887800880000880000880000EC9C00EC9C00ECBAFF0064FF00642C
S1230E9EFF005A003CE2FF9C32FF003CFF004BFF324BFF324BFF3200FF1E3CFF5028FF3C33
S1230EBE00FF14ECFF0FE2FFECCE001432FF1E1EFF4600FF1EF6FFD8BA002846FF4600FF4C
S1230EDE32E7FF00C4FFCEE7FFE7CE004B4BFF3CE2FF3CE2FF3CCEFF00CEFF28CEFF1E9C58
S1230EFEFFE2C4FFE2BF010000008888008800008800008800FF9CCEFF00C4FF00B5FF32D1
S1230F1EB5FF32B5FF3200FF1EC4FF50D8FF3C00FF1414FF0F1EFFEC320014CEFF1EE2FF50
S1230F3E4600FF1E0AFFD8460028BAFF4600FF3219FF003CFFCE19FFE732004BB5FF3C1E02
S1230F5EFF3C1EFF3C32FF0032FF2832FF1E64FFE23CFFE2410100003CC928C914C9000487
S1230F7E00FFF60AFFF6F6000A0AFF00EC01000021534E45414B59204F46465345542180F1
S1230F9E007FC88CF6C884C1032328F6C884C1072221C6C8E7E28E0190C603BD1CD532613E
S1230FBEC6A6E7E28E0F8EC673BD1C2D3261C603F7C88CF6C884C10A2328F6C884C10D223F
S1230FDE21C6C8E7E28E0190C603BD1CD53261C6A6E7E28E0F8EC673BD1C2D3261C602F75D
S1230FFEC88C393420BDF1F8F6C81BF7C888F6C81CF7C889F6C8885D2C1FF6C8895D2F192C
S123101EF6C88C4F58495849C3000158498EC88F318B8E19AEAFA42017F6C88C4F5849585C
S123103E49C3000158498EC88F318B8E1956AFA4F6C8885D2620F6C8895D2F1AF6C88C5C73
S123105E4F58495849C3000158498EC88F318B8E19AEAFA42018F6C88C5C4F58495849C3FD
S123107E000158498EC88F318B8E1956AFA4F6C8885D2F21F6C8895D2F1BF6C88CCB024F74
S123109E58495849C3000158498EC88F318B8E19AEAFA42019F6C88CCB024F58495849C39A
S12310BE000158498EC88F318B8E1956AFA4F6C8885D2C21F6C8895D261BF6C88CCB034F3F
S12310DE58495849C3000158498EC88F318B8E19AEAFA42019F6C88CCB034F58495849C359
S12310FE000158498EC88F318B8E1956AFA4F6C8885D2621F6C8895D261BF6C88CCB044F04
S123111E58495849C3000158498EC88F318B8E19AEAFA42019F6C88CCB044F58495849C317
S123113E000158498EC88F318B8E1956AFA4F6C8885D2F21F6C8895D261BF6C88CCB054FB9
S123115E58495849C3000158498EC88F318B8E19AEAFA42019F6C88CCB054F58495849C3D6
S123117E000158498EC88F318B8E1956AFA4F6C8885D2C21F6C8895D2C1BF6C88CCB064F75
S123119E58495849C3000158498EC88F318B8E19AEAFA42019F6C88CCB064F58495849C395
S12311BE000158498EC88F318B8E1956AFA4F6C8885D2621F6C8895D2C1BF6C88CCB074F3A
S12311DE58495849C3000158498EC88F318B8E19AEAFA42019F6C88CCB074F58495849C354
S12311FE000158498EC88F318B8E1956AFA4F6C8885D2F21F6C8895D2C1BF6C88CCB084FF0
S123121E58495849C3000158498EC88F318B8E19AEAFA42019F6C88CCB084F58495849C312
S123123E000158498EC88F318B8E1956AFA435A0C4DDC4E7C4F1C4FBC405C40FC419C42304
S123125EBADDBAE7BAF1BAFBBA05BA0FBA19BA23002020FFE0E0002000FFE020010000007D
S123127E3CC4FF0078FF8800FF0088FF7800010000003CC4FF0078FF8800FF0088FF780053
S123129EFF8878007800FF8888010000001020FFE0E0002000FFE020010000002010FFE087
S12312BE00001010FF00E0010000FF8800FF0078FF7800FF0088010000FF001EFF0F0AFFDB
S12312DEF10AFF000FFFF10AFF2D0FFFC90FFF190FFF000F01000000887800880000880091
S12312FE00880000EC9C00EC9C00ECBAFF0064FF0064FF005A003CE2FF9C32FF003CFF004A
S123131E4BFF324BFF324BFF3200FF1E3CFF5028FF3C00FF14ECFF0FE2FFECCE001432FF3F
S123133E1E1EFF4600FF1EF6FFD8BA002846FF4600FF32E7FF00C4FFCEE7FFE7CE004B4BDA
S123135EFF3CE2FF3CE2FF3CCEFF00CEFF28CEFF1E9CFFE2C4FFE2BF0100000088880088CF
S123137E00008800008800FF9CCEFF00C4FF00B5FF32B5FF32B5FF3200FF1EC4FF50D8FF57
S123139E3C00FF1414FF0F1EFFEC320014CEFF1EE2FF4600FF1E0AFFD8460028BAFF4600EE
S12313BEFF3219FF003CFFCE19FFE732004BB5FF3C1EFF3C1EFF3C32FF0032FF2832FF1EC2
S12313DE64FFE23CFFE2410100003CC928C914C9000400FFF60AFFF6F6000A0AFF00EC0186
S12313FE000039BDF1F8F6C81BF7C888F6C81CF7C889F6C8885D2C0EF6C8895D2F088E194B
S123141EAEBFC89120068E1956BFC891F6C8885D260EF6C8895D2F088E19AEBFC89920065C
S123143E8E1956BFC899F6C8885D2F0EF6C8895D2F088E19AEBFC8A120068E1956BFC8A1EA
S123145EF6C8885D2C0EF6C8895D26088E19AEBFC8A920068E1956BFC8A9F6C8885D260E0C
S123147EF6C8895D26088E19AEBFC8B120068E1956BFC8B1F6C8885D2F0EF6C8895D2608DE
S123149E8E19AEBFC8B920068E1956BFC8B9F6C8885D2C0EF6C8895D2C088E19AEBFC8C1E0
S12314BE20068E1956BFC8C1F6C8885D260EF6C8895D2C088E19AEBFC8C920068E1956BF69
S12314DEC8C9F6C8885D2F0EF6C8895D2C088E19AEBFC8D120068E1956BFC8D139327D6F22
S12314FE62202BE662E761E6621D1F01E689C8D74F8E000934101F01BD1C6932621F10E7C4
S123151EE4E6611D1F01E6E4E789C8D76C62E662C1132FCF3263393279E7656F661600725E
S123153EE66554545454E761E665E861E765E665585858E7E4E6E4EB65E765E665595959EC
S123155EC403E762E665E862E765E6655858E7E4E6E4EB65E765E6655454545454E763E62D
S123157E65E863E765E666E764E6661D1F01E689C8D7EB654F8E000A34101F01BD1C693210
S123159E621F10E7E4E6641D1F01E6E4E789C8D76C66E666C113102FFF86326739327AE752
S12315BE646F652048E66457575757E761E664E861E764E664585858E7E4E6E4EB64E7641C
S12315DEE664575757575757E762E664E862E764E6645858E7E4E6E4EB64E764E66457574C
S11B15FE575757E763E664E863E7646C65E665C1132FB2E664326639B6
S12316163460327AE765E665E763E6651D584958495849CEC88F30CBE684E762E6625CE7E6
S123163664E6631DEDE4ECE4584958495849CEC88F30CBE664E784E6651D58495849584922
S1231656CEC88F30CBE684C1192F16E6651D5849C30001584958498EC88F318B8E16DDAFE7
S1231676A4326635E03460327AE765E665E763E6651D584958495849CEC89030CBE684E721
S123169662E6625CE764E6631DEDE4ECE4584958495849CEC89030CBE664E784E6651D585F
S12316B64958495849CEC89030CBE684C1192F13E6651D5849584958498EC895318B8E1747
S12316D642AFA4326635E03460327AE765E665E763E6651D584958495849CEC88F30CBE63C
S12316F684E762E6625AE764E6631DEDE4ECE4584958495849CEC88F30CBE664E784E6650C
S12317161D584958495849CEC88F30CBE684C1E72C16E6651D5849C30001584958498EC8D6
S12317368F318B8E1616AFA4326635E03460327AE765E665E763E6651D584958495849CE50
S1231756C89030CBE684E762E6625AE764E6631DEDE4ECE4584958495849CEC89030CBE68B
S123177664E784E6651D584958495849CEC89030CBE684C1E72C13E6651D58495849584978
S12317968EC895318B8E167BAFA4326635E0C4DDC4E7C4F1C4FBC405C40FC419C423BADDB2
S12317B6BAE7BAF1BAFBBA05BA0FBA19BA23002020FFE0E0002000FFE020010000003CC4B7
S12317D6FF0078FF8800FF0088FF7800010000003CC4FF0078FF8800FF0088FF7800FF886F
S12317F678007800FF8888010000001020FFE0E0002000FFE020010000002010FFE00000B1
S12318161010FF00E0010000FF8800FF0078FF7800FF0088010000FF001EFF0F0AFFF10A82
S1231836FF000FFFF10AFF2D0FFFC90FFF190FFF000F0100000088780088000088000088A6
S12318560000EC9C00EC9C00ECBAFF0064FF0064FF005A003CE2FF9C32FF003CFF004BFF2A
S1231876324BFF324BFF3200FF1E3CFF5028FF3C00FF14ECFF0FE2FFECCE001432FF1E1EF0
S1231896FF4600FF1EF6FFD8BA002846FF4600FF32E7FF00C4FFCEE7FFE7CE004B4BFF3C7E
S12318B6E2FF3CE2FF3CCEFF00CEFF28CEFF1E9CFFE2C4FFE2BF01000000888800880000AD
S12318D68800008800FF9CCEFF00C4FF00B5FF32B5FF32B5FF3200FF1EC4FF50D8FF3C00BE
S12318F6FF1414FF0F1EFFEC320014CEFF1EE2FF4600FF1E0AFFD8460028BAFF4600FF329C
S123191619FF003CFFCE19FFE732004BB5FF3C1EFF3C1EFF3C32FF0032FF2832FF1E64FF32
S1231936E23CFFE2410100003CC928C914C9000400FFF60AFFF6F6000A0AFF00EC0100008B
S12319563440327CE761BDF354C6FFD704C6F9E7E25FBD1D443261E6614F5849584958494E
S1231976CEC89030CBE684E7E4E6614F584958495849CEC88F30CBE684E763E6E4E762E6B1
S123199663E7E2E663BD1D443261C610D7048E17D3BDF410326435C03440327CE761BDF378
S12319B654C6FFD704C6F9E7E25FBD1D443261E6614F584958495849CEC89030CBE684E796
S12319D6E4E6614F584958495849CEC88F30CBE684E763E6E4E762E663E7E2E663BD1D4430
S12319F63261C610D7048E17E5BDF410326435C03440327CE761BDF354C6FFD704E6614F0F
S1231A165849CE17A530CBE684E7E4E6614F5849CE17A430CBE684E763E6E4E762E663E79F
S1231A36E2E663BD1D443261C620D7048E17C4BDF410326435C03440327CE761BDF354C606
S1231A56FFD704E6614F5849CE17A530CBE684E7E4E6614F5849CE17A430CBE684E763E64C
S1231A76E4E762E663E7E2E663BD1D443261C620D7048E180FBDF410326435C0BDF354C687
S1231A9680D704C62DE7E2C6C4BD1D4432618E181EBDF410BDF354C618D704C650E7E25F5A
S1231AB6BD1D4432618E184BBDF410BDF354C650E7E25FBD1D4432618E18CFBDF410393215
S1231AD67FE7E4BDF354C67FD704C646E7E2C6C4BD1D443261E6E4D7046FE2C650BD1D3A4E
S1231AF63261BDF354C67FD704C642E7E2C6C4BD1D443261E6E4D7046FE2C650BD1D3A32B7
S1231B1661BDF354C67FD704C63EE7E2C6C4BD1D443261E6E4D7046FE2C650BD1D3A32616B
S1231B36C6FFD704326139327EE7E4BDF354E6E4E761E661E7E4C626D704C678E7E2C68860
S1231B56BD1D443261C678E7E2C688BD1D443261C678E7E2C688BD1D443261E6E4D7046F9A
S1231B76E2C650BD1D3A3261C630D7048E182DBDF410E6E4D7046FE2C650BD1D3A3261C6CE
S1231B9630D7048E182DBDF410E6E4D7046FE2C650BD1D3A3261C630D7048E182DBDF41074
S1231BB6E6E4D7046FE2C650BD1D3A3261C630D7048E182DBDF410E6E4D7046FE2C650BD2A
S1231BD61D3A3261C630D7048E182DBDF4103262393440327CE761BDF354C67FD704E661FA
S1231BF64F5849CE193F30CBE684E7E4E6614F5849CE193E30CBE684E763E6E4E762E6631E
S1231C16E7E2E663BD1D443261C660D7048E1944BDF410326435C03279E762AFE4C6CCD7BF
S1231C360CC67FD704E662E766E669E765AEE4AF63E666E7E2AE64E666BD1CCA3261326748
S1231C563934403384BDF92E35C034603384BDF68735E0EC6226037EF0003410BD1D493215
S10E1C76621F01393440BDF28935C003
S1231C81327AE7E4C680E763C630E762C630E761200BE6615CE761E669CBF6E769E669C135
S1231CA10922EFE669CB30E762C6CCD70CC67FD704E6E4E765E668E7643061E665E7E2E6A3
S1231CC165BD1CCA32613266393440A6643384BDF37A35C03273E762AFE4E66258E763ECE8
S1231CE1E4E764E6636C63E768E664E767E668E7E2E668BD1D3F3261ECE41F894FE765E6A7
S1231D0163E76AE665E769E66AE7E2E66ABD1D3F3261E662CB08E766E666E76CE66FE76BAC
S1231D21E66CE7E2E66CBD1D3F3261C607E7E2C6F8BD1D3F3261326D39A6627EF3DFA6624D
S1231D417EF256A6627EF312327D6F606C604D2B066C60584920F8ED61EC656F656F66A3F5
S1231D61612406E3611CFE20021A0169666965646166626A6026E8326339FEE8FEB68080CE
S1091D8100803F00018018
S9030000FC
