S12300006720474345203230323580FD0DF85018B34E4555524F20564543544F5280008E76
S1230020025C271BCE005E33C91FA033C9000033C90000108EC880A6C0A7A0301F26F88EAF
S12300400012270A108ECADC6FA0301F26FABD02555D27068E0000BFCBFEBDF00039C4DD5C
S1230060C4E7C4F1C4FBC405C40FC419C423BADDBAE7BAF1BAFBBA05BA0FBA19BA2300200D
S123008020FFE0E0002000FFE020010000003CC4FF0078FF8800FF0088FF78000100000060
S12300A03CC4FF0078FF8800FF0088FF7800FF8878007800FF8888010000001020FFE0E0CA
S12300C0002000FFE020010000002010FFE000001010FF00E0010000FF8800FF0078FF7878
S12300E000FF0088010000FF001EFF0F0AFFF10AFF000FFFF10AFF2D0FFFC90FFF190FFF05
S1230100000F01000020001E0F0AF10A000FF10A2D0FC90F190F000F001E001E001E0F0AB1
S1230120F10A000FF10A2D0FC90F190F000F001E001E001E0F0AF10A000FF10A2D0FC90FDF
S1230140190F000F001E001E00887800880000880000880000EC9C00EC9C00ECBAFF006477
S1230160FF0064FF005A003CE2FF9C32FF003CFF004BFF324BFF324BFF3200FF1E3CFF507E
S123018028FF3C00FF14ECFF0FE2FFECCE001432FF1E1EFF4600FF1EF6FFD8BA002846FF79
S12301A04600FF32E7FF00C4FFCEE7FFE7CE004B4BFF3CE2FF3CE2FF3CCEFF00CEFF28CE17
S12301C0FF1E9CFFE2C4FFE2BF010000008888008800008800008800FF9CCEFF00C4FF0049
S12301E0B5FF32B5FF32B5FF3200FF1EC4FF50D8FF3C00FF1414FF0F1EFFEC320014CEFFB5
S12302001EE2FF4600FF1E0AFFD8460028BAFF4600FF3219FF003CFFCE19FFE732004BB5A7
S1230220FF3C1EFF3C1EFF3C32FF0032FF2832FF1E64FFE23CFFE24101000000003CAB2841
S1180240AB14AB000400FFF60AFFF6F6000A0AFF00EC0100004D
S1230255327F6FE4BD0565BD06FE6DE427F6E6E4326139C4DDC4E7C4F1C4FBC405C40FC475
S123027519C423BADDBAE7BAF1BAFBBA05BA0FBA19BA23002020FFE0E0002000FFE0200176
S12302950000003CC4FF0078FF8800FF0088FF7800010000003CC4FF0078FF8800FF0088C3
S12302B5FF7800FF8878007800FF8888010000001020FFE0E0002000FFE0200100000020F8
S12302D510FFE000001010FF00E0010000FF8800FF0078FF7800FF0088010000FF001EFFFD
S12302F50F0AFFF10AFF000FFFF10AFF2D0FFFC90FFF190FFF000F01000020001E0F0AF13A
S12303150A000FF10A2D0FC90F190F000F001E001E001E0F0AF10A000FF10A2D0FC90F19C0
S12303350F000F001E001E001E0F0AF10A000FF10A2D0FC90F190F000F001E001E00887887
S123035500880000880000880000EC9C00EC9C00ECBAFF0064FF0064FF005A003CE2FF9C5E
S123037532FF003CFF004BFF324BFF324BFF3200FF1E3CFF5028FF3C00FF14ECFF0FE2FF8B
S1230395ECCE001432FF1E1EFF4600FF1EF6FFD8BA002846FF4600FF32E7FF00C4FFCEE7DE
S12303B5FFE7CE004B4BFF3CE2FF3CE2FF3CCEFF00CEFF28CEFF1E9CFFE2C4FFE2BF0100D6
S12303D500008888008800008800008800FF9CCEFF00C4FF00B5FF32B5FF32B5FF3200FF80
S12303F51EC4FF50D8FF3C00FF1414FF0F1EFFEC320014CEFF1EE2FF4600FF1E0AFFD846C6
S12304150028BAFF4600FF3219FF003CFFCE19FFE732004BB5FF3C1EFF3C1EFF3C32FF00FB
S123043532FF2832FF1E64FFE23CFFE24101000000003CAB28AB14AB000400FFF60AFFF6E6
S10D0455F6000A0AFF00EC010000A3
S123045F327DBD1CC2BD09DCBD0A49BECAE6AD84BECAEAAD84BD0A88BD077AF6C90EE76199
S123047FF6C910E762F6C90EE7E4E662E0E4E7E4E6613404E661BD0A0B3261326339524542
S123049F4D454D42455220544845800053455155454E43458000327FBD1CC26FE42054C64E
S12304BFC8F7C911BDF192BD1CC2F6C9106FE2BD0A0B3261BD0A49E6E44F1F01E689CA7D21
S12304DFBD1BDEC6B5E7E28E049DC664BD1EA43261C6CEE7E28E04ABC650BD1EA43261F6DC
S12304FFC90F5AF7C90FF6C90F5D26B3C61EF7C90F6CE4F6C910E1E422E5F6C9106FE2BD59
S123051F0A0B32618E045FBFCAE832613953454C454354205448452047414D454D4F4445C2
S123053F80004E4F524D414C2031362F80004841524420202031362F800045585452454DAF
S123055F2031362F8000327EC601F7C81FC603F7C8207FC8217FC8226FE4C601E7611601FB
S123057F68BDF1926CE4BDF1BAC688E7E28E052CC664BD1EA43261C6B0E7E28E0541C63CD1
S123059FBD1EA43261C6B0E7E28E054DC628BD1EA43261C6B0E7E28E0559C614BD1EA43251
S12305BF61F6C9153404C61EE7E2C63CBD1EF83262F6C9163404C61EE7E2C628BD1EF832E8
S12305DF62F6C9173404C61EE7E2C614BD1EF83262BDF1F8F6C81C5D2604C601E761F6C8C6
S12305FF1C5D2F16F6C90DC101230FE661C10126096A61F6C90D5AF7C90DF6C81C5D2C16EB
S123061FF6C90DC102220FE661C10126096A61F6C90D5CF7C90DF6C90DBD1E5EF6C811C467
S123063F015D102700A3C601F7C91BBD19408E1B86BFC9648E1B86BFC96C8E1B86BFC9743E
S123065F8E1B86BFC97C8E1B86BFC9848E1B86BFC98C8E1B86BFC9948E1B86BFC99C8E1B7F
S123067F86BFC9A4F6C90DC10126148E15F7BFCAE68E15F8BFCAEA8EC915BFC9182052F652
S123069FC90DC10226148E1151BFCAE68E11B3BFCAEA8EC916BFC9182037F6C90DC1032626
S12306BF148E0ECCBFCAE68E15F8BFCAEA8EC917BFC918201C8E15F7BFCAE68E15F8BFCAA7
S12306DFEA8EC915BFC9182008F6C90D5D1026FE90E6E4BD172C8E04B5BFCAE8326239326B
S12306FF7BC601E7E42025BDF1AFBECAD8AF61AE61BD1ECEBECADAAF63AE63BD1ED7BDF11B
S123071F92BD1EF1BDF2A5BECAE8AD846DE426D7326539BDF1BAF6C811C4025D27148E041E
S123073FB5BFCAE8F6C910BD172C7FC90EC601F7C910F6C811C4045D27198E0565BFCAE817
S123075FC601F7C90DF6C910BD172C7FC90EC601F7C91039BD0C75BD073239327FF6C91BF5
S123077F5D26098E0773BFCAE8BD0C0AF6C910E7E4F6C90EE1E4264B8E1B86BFC9648E1B1D
S123079F86BFC96C8E1B86BFC9748E1B86BFC97C8E1B86BFC9848E1B86BFC98C8E1B86BFF2
S12307BFC9948E1B86BFC99C8E1B86BFC9A4F6C9105CF7C9107FC90EC6C8F7C9118E04B514
S10907DFBFCAE8326139D3
S12307E5C4DDC4E7C4F1C4FBC405C40FC419C423BADDBAE7BAF1BAFBBA05BA0FBA19BA2300
S1230805002020FFE0E0002000FFE020010000003CC4FF0078FF8800FF0088FF78000100B3
S123082500003CC4FF0078FF8800FF0088FF7800FF8878007800FF8888010000001020FFFD
S1230845E0E0002000FFE020010000002010FFE000001010FF00E0010000FF8800FF0078A2
S1230865FF7800FF0088010000FF001EFF0F0AFFF10AFF000FFFF10AFF2D0FFFC90FFF190F
S12308850FFF000F01000020001E0F0AF10A000FF10A2D0FC90F190F000F001E001E001E30
S12308A50F0AF10A000FF10A2D0FC90F190F000F001E001E001E0F0AF10A000FF10A2D0F12
S12308C5C90F190F000F001E001E00887800880000880000880000EC9C00EC9C00ECBAFF77
S12308E50064FF0064FF005A003CE2FF9C32FF003CFF004BFF324BFF324BFF3200FF1E3CDD
S1230905FF5028FF3C00FF14ECFF0FE2FFECCE001432FF1E1EFF4600FF1EF6FFD8BA0028E2
S123092546FF4600FF32E7FF00C4FFCEE7FFE7CE004B4BFF3CE2FF3CE2FF3CCEFF00CEFF3B
S123094528CEFF1E9CFFE2C4FFE2BF010000008888008800008800008800FF9CCEFF00C4C5
S1230965FF00B5FF32B5FF32B5FF3200FF1EC4FF50D8FF3C00FF1414FF0F1EFFEC320014F6
S1230985CEFF1EE2FF4600FF1E0AFFD8460028BAFF4600FF3219FF003CFFCE19FFE732004E
S12309A54BB5FF3C1EFF3C1EFF3C32FF0032FF2832FF1E64FFE23CFFE24101000000003C88
S11A09C5AB28AB14AB000400FFF60AFFF6F6000A0AFF00EC010000EC
S12309DCF6C9115AF7C911F6C911BD1E17F6C9115D261BF6C9AA5D2603BD0C75C605F7C914
S12309FC11F6C9AA5AF7C9AAF6C9AAF7C91139327DE7622008F6C90EEB62BD1C36E662E7AE
S1230A1C616D612704C601E761E6616A625D26E52005E665BD1C7CE665E7E46DE42704C6B5
S1230A3C01E7E4E6E46A655D26E8326339BEC9645FAD84BEC96CC601AD84BEC974C602AD22
S1230A5C84BEC97CC603AD84BEC984C604AD84BEC98CC605AD84BEC994C606AD84BEC99CA5
S1230A7CC607AD84BEC9A4C608AD8439327FBDF1BABDF1F8F6C81BF7C913F6C81CF7C914DC
S1230A9CF6C81BF7C913F6C81CF7C914F6C9135D2C0BF6C9145D2F057FC9122006F6C912C1
S1230ABCF7C912F6C9135D260DF6C9145D2F07C601F7C9122006F6C912F7C912F6C9135DEB
S1230ADC2F0DF6C9145D2F07C602F7C9122006F6C912F7C912F6C9135D2C0DF6C9145D2633
S1230AFC07C603F7C9122006F6C912F7C912F6C9135D260DF6C9145D2607C604F7C91220F0
S1230B1C06F6C912F7C912F6C9135D2F0DF6C9145D2607C605F7C9122006F6C912F7C912DE
S1230B3CF6C9135D2C0DF6C9145D2C07C606F7C9122006F6C912F7C912F6C9135D260DF60B
S1230B5CC9145D2C07C607F7C9122006F6C912F7C912F6C9135D2F0DF6C9145D2C07C60804
S1230B7CF7C9122006F6C912F7C912F6C811C4015D271FF6C90E4F1F01E689CA7DE7E4F6D0
S1230B9CC912E1E42609F6C90E5CF7C90E20037FC91B326139594F5520434F4D504C4554EC
S1230BBC45442054484953204C4556454C8000505245535320425554544F4E20328000546D
S1230BDC4F20524553544152548000505245535320425554544F4E20338000544F20474F2C
S1230BFC20544F20544845204D454E558000327FBEC918E684E7E4F6C910E1E42308BEC971
S1230C1C18F6C910E784C688E7E28E0BB1C664BD1EA43261C6B0E7E28E0BCBC646BD1EA497
S1230C3C3261C6C4E7E28E0BDBC632BD1EA43261C6B0E7E28E0BE7C614BD1EA43261C69C23
S1230C5CE7E28E0BF75FBD1EA4326132613947414D45204F5645528000327FBEC918E6842E
S1230C7CE7E4F6C910E1E42308BEC918F6C910E784C6C4E7E28E0C6AC664BD1EA43261C698
S1230C9CB0E7E28E0BCBC646BD1EA43261C6C4E7E28E0BDBC632BD1EA43261C6B0E7E28E9B
S1230CBC0BE7C614BD1EA43261C69CE7E28E0BF75FBD1EA43261326139C4DDC4E7C4F1C479
S1230CDCFBC405C40FC419C423BADDBAE7BAF1BAFBBA05BA0FBA19BA23002020FFE0E000CA
S1230CFC2000FFE020010000003CC4FF0078FF8800FF0088FF7800010000003CC4FF007840
S1230D1CFF8800FF0088FF7800FF8878007800FF8888010000001020FFE0E0002000FFE0B9
S1230D3C20010000002010FFE000001010FF00E0010000FF8800FF0078FF7800FF00880166
S1230D5C0000FF001EFF0F0AFFF10AFF000FFFF10AFF2D0FFFC90FFF190FFF000F010000F4
S1230D7C20001E0F0AF10A000FF10A2D0FC90F190F000F001E001E001E0F0AF10A000FF13E
S1230D9C0A2D0FC90F190F000F001E001E001E0F0AF10A000FF10A2D0FC90F190F000F001B
S1230DBC1E001E00887800880000880000880000EC9C00EC9C00ECBAFF0064FF0064FF00C4
S1230DDC5A003CE2FF9C32FF003CFF004BFF324BFF324BFF3200FF1E3CFF5028FF3C00FFF6
S1230DFC14ECFF0FE2FFECCE001432FF1E1EFF4600FF1EF6FFD8BA002846FF4600FF32E7F5
S1230E1CFF00C4FFCEE7FFE7CE004B4BFF3CE2FF3CE2FF3CCEFF00CEFF28CEFF1E9CFFE252
S1230E3CC4FFE2BF010000008888008800008800008800FF9CCEFF00C4FF00B5FF32B5FFC0
S1230E5C32B5FF3200FF1EC4FF50D8FF3C00FF1414FF0F1EFFEC320014CEFF1EE2FF460081
S1230E7CFF1E0AFFD8460028BAFF4600FF3219FF003CFFCE19FFE732004BB5FF3C1EFF3CD0
S1230E9C1EFF3C32FF0032FF2832FF1E64FFE23CFFE24101000000003CAB28AB14AB0004DF
S1130EBC00FFF60AFFF6F6000A0AFF00EC01000038
S1230ECCBEC9665FAD84BEC96EC601AD84BEC976C602AD84BEC97EC603AD84BEC986C604CC
S1230EECAD84BEC98EC605AD84BEC996C606AD84BEC99EC607AD84BEC9A6C608AD84BEC9B0
S1230F0C685FAD84BEC970C601AD84BEC978C602AD84BEC980C603AD84BEC988C604AD84D7
S1230F2CBEC990C605AD84BEC998C606AD84BEC9A0C607AD84BEC9A8C608AD8439C4DDC481
S1230F4CE7C4F1C4FBC405C40FC419C423BADDBAE7BAF1BAFBBA05BA0FBA19BA23002020B6
S1230F6CFFE0E0002000FFE020010000003CC4FF0078FF8800FF0088FF7800010000003C49
S1230F8CC4FF0078FF8800FF0088FF7800FF8878007800FF8888010000001020FFE0E0000B
S1230FAC2000FFE020010000002010FFE000001010FF00E0010000FF8800FF0078FF78007D
S1230FCCFF0088010000FF001EFF0F0AFFF10AFF000FFFF10AFF2D0FFFC90FFF190FFF000A
S1230FEC0F01000020001E0F0AF10A000FF10A2D0FC90F190F000F001E001E001E0F0AF1C6
S123100C0A000FF10A2D0FC90F190F000F001E001E001E0F0AF10A000FF10A2D0FC90F19BC
S123102C0F000F001E001E00887800880000880000880000EC9C00EC9C00ECBAFF0064FF96
S123104C0064FF005A003CE2FF9C32FF003CFF004BFF324BFF324BFF3200FF1E3CFF50285A
S123106CFF3C00FF14ECFF0FE2FFECCE001432FF1E1EFF4600FF1EF6FFD8BA002846FF4660
S123108C00FF32E7FF00C4FFCEE7FFE7CE004B4BFF3CE2FF3CE2FF3CCEFF00CEFF28CEFF63
S12310AC1E9CFFE2C4FFE2BF010000008888008800008800008800FF9CCEFF00C4FF00B598
S12310CCFF32B5FF32B5FF3200FF1EC4FF50D8FF3C00FF1414FF0F1EFFEC320014CEFF1E51
S12310ECE2FF4600FF1E0AFFD8460028BAFF4600FF3219FF003CFFCE19FFE732004BB5FFCC
S123110C3C1EFF3C1EFF3C32FF0032FF2832FF1E64FFE23CFFE24101000000003CAB28AB9A
S117112C14AB000400FFF60AFFF6F6000A0AFF00EC010000FE
S123114021534E45414B59204F46465345542180007FC91AF6C910C1032328F6C910C10740
S12311602221C6C8E7E28E0190C603BD1F4C3261C6A6E7E28E1140C673BD1EA43261C60306
S1231180F7C91AF6C910C10A2328F6C910C10D2221C6C8E7E28E0190C603BD1F4C3261C6EC
S12311A0A6E7E28E1140C673BD1EA43261C602F7C91A393420BDF1F8F6C81BF7C913F6C853
S12311C01CF7C914F6C9135D2C1FF6C9145D2F19F6C91A4F58495849C3000158498EC962A1
S12311E0318B8E1BDEAFA42017F6C91A4F58495849C3000158498EC962318B8E1B86AFA458
S1231200F6C9135D2620F6C9145D2F1AF6C91A5C4F58495849C3000158498EC962318B8EAE
S12312201BDEAFA42018F6C91A5C4F58495849C3000158498EC962318B8E1B86AFA4F6C945
S1231240135D2F21F6C9145D2F1BF6C91ACB024F58495849C3000158498EC962318B8E1B96
S1231260DEAFA42019F6C91ACB024F58495849C3000158498EC962318B8E1B86AFA4F6C9AE
S1231280135D2C21F6C9145D261BF6C91ACB034F58495849C3000158498EC962318B8E1B61
S12312A0DEAFA42019F6C91ACB034F58495849C3000158498EC962318B8E1B86AFA4F6C96D
S12312C0135D2621F6C9145D261BF6C91ACB044F58495849C3000158498EC962318B8E1B26
S12312E0DEAFA42019F6C91ACB044F58495849C3000158498EC962318B8E1B86AFA4F6C92C
S1231300135D2F21F6C9145D261BF6C91ACB054F58495849C3000158498EC962318B8E1BDB
S1231320DEAFA42019F6C91ACB054F58495849C3000158498EC962318B8E1B86AFA4F6C9EA
S1231340135D2C21F6C9145D2C1BF6C91ACB064F58495849C3000158498EC962318B8E1B97
S1231360DEAFA42019F6C91ACB064F58495849C3000158498EC962318B8E1B86AFA4F6C9A9
S1231380135D2621F6C9145D2C1BF6C91ACB074F58495849C3000158498EC962318B8E1B5C
S12313A0DEAFA42019F6C91ACB074F58495849C3000158498EC962318B8E1B86AFA4F6C968
S12313C0135D2F21F6C9145D2C1BF6C91ACB084F58495849C3000158498EC962318B8E1B12
S12313E0DEAFA42019F6C91ACB084F58495849C3000158498EC962318B8E1B86AFA435A011
S1231400C4DDC4E7C4F1C4FBC405C40FC419C423BADDBAE7BAF1BAFBBA05BA0FBA19BA23D8
S1231420002020FFE0E0002000FFE020010000003CC4FF0078FF8800FF0088FF780001008C
S123144000003CC4FF0078FF8800FF0088FF7800FF8878007800FF8888010000001020FFD6
S1231460E0E0002000FFE020010000002010FFE000001010FF00E0010000FF8800FF00787B
S1231480FF7800FF0088010000FF001EFF0F0AFFF10AFF000FFFF10AFF2D0FFFC90FFF19E8
S12314A00FFF000F01000020001E0F0AF10A000FF10A2D0FC90F190F000F001E001E001E09
S12314C00F0AF10A000FF10A2D0FC90F190F000F001E001E001E0F0AF10A000FF10A2D0FEB
S12314E0C90F190F000F001E001E00887800880000880000880000EC9C00EC9C00ECBAFF50
S12315000064FF0064FF005A003CE2FF9C32FF003CFF004BFF324BFF324BFF3200FF1E3CB5
S1231520FF5028FF3C00FF14ECFF0FE2FFECCE001432FF1E1EFF4600FF1EF6FFD8BA0028BB
S123154046FF4600FF32E7FF00C4FFCEE7FFE7CE004B4BFF3CE2FF3CE2FF3CCEFF00CEFF14
S123156028CEFF1E9CFFE2C4FFE2BF010000008888008800008800008800FF9CCEFF00C49E
S1231580FF00B5FF32B5FF32B5FF3200FF1EC4FF50D8FF3C00FF1414FF0F1EFFEC320014CF
S12315A0CEFF1EE2FF4600FF1E0AFFD8460028BAFF4600FF3219FF003CFFCE19FFE7320027
S12315C04BB5FF3C1EFF3C1EFF3C32FF0032FF2832FF1E64FFE23CFFE24101000000003C61
S11A15E0AB28AB14AB000400FFF60AFFF6F6000A0AFF00EC010000C5
S12315F739BDF1F8F6C81BF7C913F6C81CF7C914F6C9135D2C0EF6C9145D2F088E1BDEBF81
S1231617C96420068E1B86BFC964F6C9135D260EF6C9145D2F088E1BDEBFC96C20068E1B2D
S123163786BFC96CF6C9135D2F0EF6C9145D2F088E1BDEBFC97420068E1B86BFC974F6C9AF
S1231657135D2C0EF6C9145D26088E1BDEBFC97C20068E1B86BFC97CF6C9135D260EF6C961
S1231677145D26088E1BDEBFC98420068E1B86BFC984F6C9135D2F0EF6C9145D26088E1B49
S1231697DEBFC98C20068E1B86BFC98CF6C9135D2C0EF6C9145D2C088E1BDEBFC99420063E
S12316B78E1B86BFC994F6C9135D260EF6C9145D2C088E1BDEBFC99C20068E1B86BFC99CD9
S12316D7F6C9135D2F0EF6C9145D2C088E1BDEBFC9A420068E1B86BFC9A439327D6F622012
S12316F72BE662E761E6621D1F01E689CA7D4F8E000934101F01BD1EE032621F10E7E4E660
S1231717611D1F01E6E4E789CA7D6C62E662C1132FCF3263393279E7656F66160072E6653A
S123173754545454E761E665E861E765E665585858E7E4E6E4EB65E765E665595959C40375
S1231757E762E665E862E765E6655858E7E4E6E4EB65E765E6655454545454E763E665E8AC
S123177763E765E666E764E6661D1F01E689CA7DEB654F8E000934101F01BD1EE032621FC1
S11E179710E7E4E6641D1F01E6E4E789CA7D6C66E666C113102FFF86326739C8
S12317B23460327AE765E665E763E6651D584958495849CEC96230CBE684E762E6625CE775
S12317D264E6631DEDE4ECE4584958495849CEC96230CBE664E784E6651D584958495849B1
S12317F2CEC96230CBE684C1192F16E6651D5849C30001584958498EC962318B8E1879AF04
S1231812A4326635E03460327AE765E665E763E6651D584958495849CEC96330CBE684E7AF
S123183262E6625CE764E6631DEDE4ECE4584958495849CEC96330CBE664E784E6651D58ED
S12318524958495849CEC96330CBE684C1192F13E6651D5849584958498EC968318B8E1800
S1231872DEAFA4326635E03460327AE765E665E763E6651D584958495849CEC96230CBE62E
S123189284E762E6625AE764E6631DEDE4ECE4584958495849CEC96230CBE664E784E6659A
S12318B21D584958495849CEC96230CBE684C1E72C16E6651D5849C30001584958498EC964
S12318D262318B8E17B2AFA4326635E03460327AE765E665E763E6651D584958495849CE43
S12318F2C96330CBE684E762E6625AE764E6631DEDE4ECE4584958495849CEC96330CBE646
S123191264E784E6651D584958495849CEC96330CBE684C1E72C13E6651D58495849584906
S12319328EC968318B8E1817AFA4326635E0C610F7C962C6F0F7C963C610F7C96A7FC96BD5
S1231952C610F7C972C610F7C9737FC97AC6F0F7C97B7FC9827FC9837FC98AC610F7C98B25
S1231972C6F0F7C992C6F0F7C993C6F0F7C99A7FC99BC6F0F7C9A2C610F7C9A339C4DDC45E
S1231992E7C4F1C4FBC405C40FC419C423BADDBAE7BAF1BAFBBA05BA0FBA19BA2300202066
S12319B2FFE0E0002000FFE020010000003CC4FF0078FF8800FF0088FF7800010000003CF9
S12319D2C4FF0078FF8800FF0088FF7800FF8878007800FF8888010000001020FFE0E000BB
S12319F22000FFE020010000002010FFE000001010FF00E0010000FF8800FF0078FF78002D
S1231A12FF0088010000FF001EFF0F0AFFF10AFF000FFFF10AFF2D0FFFC90FFF190FFF00B9
S1231A320F01000020001E0F0AF10A000FF10A2D0FC90F190F000F001E001E001E0F0AF175
S1231A520A000FF10A2D0FC90F190F000F001E001E001E0F0AF10A000FF10A2D0FC90F196C
S1231A720F000F001E001E00887800880000880000880000EC9C00EC9C00ECBAFF0064FF46
S1231A920064FF005A003CE2FF9C32FF003CFF004BFF324BFF324BFF3200FF1E3CFF50280A
S1231AB2FF3C00FF14ECFF0FE2FFECCE001432FF1E1EFF4600FF1EF6FFD8BA002846FF4610
S1231AD200FF32E7FF00C4FFCEE7FFE7CE004B4BFF3CE2FF3CE2FF3CCEFF00CEFF28CEFF13
S1231AF21E9CFFE2C4FFE2BF010000008888008800008800008800FF9CCEFF00C4FF00B548
S1231B12FF32B5FF32B5FF3200FF1EC4FF50D8FF3C00FF1414FF0F1EFFEC320014CEFF1E00
S1231B32E2FF4600FF1E0AFFD8460028BAFF4600FF3219FF003CFFCE19FFE732004BB5FF7B
S1231B523C1EFF3C1EFF3C32FF0032FF2832FF1E64FFE23CFFE24101000000003CAB28AB4A
S1171B7214AB000400FFF60AFFF6F6000A0AFF00EC010000AE
S1231B863440327CE761BDF354C6FFD704C6F9E7E25FBD1FBB3261E6614F584958495849A3
S1231BA6CEC96330CBE684E7E4E6614F584958495849CEC96230CBE684E763E6E4E762E6D7
S1231BC663E7E2E663BD1FBB3261C610D7048E19BEBDF410326435C03440327CE761BDF3E0
S1231BE654C6FFD704C6F9E7E25FBD1FBB3261E6614F584958495849CEC96330CBE684E717
S1231C06E4E6614F584958495849CEC96230CBE684E763E6E4E762E663E7E2E663BD1FBBB0
S1231C263261C610D7048E19D0BDF410326435C03440327CE761BDF354C6FFD704E6614FEF
S1231C465849CE199030CBE684E7E4E6614F5849CE198F30CBE684E763E6E4E762E663E793
S1231C66E2E663BD1FBB3261C620D7048E19AFBDF410326435C03440327CE761BDF354C66E
S1231C86FFD704E6614F5849CE199030CBE684E7E4E6614F5849CE198F30CBE684E763E640
S1231CA6E4E762E663E7E2E663BD1FBB3261C620D7048E19FABDF410326435C0BDF354C6F0
S1231CC680D704C62DE7E2C6C4BD1FBB32618E1A09BDF410BDF354C618D704C650E7E25FC2
S1231CE6BD1FBB32618E1A79BDF410BDF354C650E7E25FBD1FBB32618E1AFDBDF410393291
S1231D067FE7E4BDF354C67FD704C646E7E2C6C4BD1FBB3261E6E4D7046FE2C650BD1FB129
S1231D263261BDF354C67FD704C642E7E2C6C4BD1FBB3261E6E4D7046FE2C650BD1FB13292
S1231D4661BDF354C67FD704C63EE7E2C6C4BD1FBB3261E6E4D7046FE2C650BD1FB1326147
S1231D66C6FFD704326139327EE7E4BDF354E6E4E761E661E7E4C626D704C678E7E2C6882E
S1231D86BD1FBB3261C678E7E2C688BD1FBB3261C678E7E2C688BD1FBB3261E6E4D7046FFD
S1231DA6E2C650BD1FB13261C630D7048E1A18BDF410E6E4D7046FE2C650BD1FB13261C6BD
S1231DC630D7048E1A18BDF410E6E4D7046FE2C650BD1FB13261C630D7048E1A18BDF410EF
S1231DE6E6E4D7046FE2C650BD1FB13261C630D7048E1A18BDF410E6E4D7046FE2C650BD92
S1141E061FB13261C630D7048E1A18BDF41032623945
S1231E17327FE7E4BDF354C630D704C678E7E2C688BD1FBB3261C678E7E2C688BD1FBB32B9
S1231E37616FE2C6CEBD1FBB3261C620E0E4F7CA91F6CA91C12026037FCA918ECA91BDF34D
S1231E57CEBDF3543261393440327CE761BDF354C67FD704E6614F5849CE1B6D30CBE68449
S1231E77E7E4E6614F5849CE1B6C30CBE684E763E6E4E762E663E7E2E663BD1FBB3261C6E3
S1231E9760D7048E1B74BDF410326435C03279E762AFE4C6CCD70CC67FD704E662E766E6EC
S1231EB769E765AEE4AF63E666E7E2AE64E666BD1F41326132673934403384BDF92E35C0B5
S1231ED734603384BDF68735E0EC6226037EF0003410BD1FC032621F01393440BDF28935BA
S1041EF7C026
S1231EF8327AE7E4C680E763C630E762C630E761200BE6615CE761E669CBF6E769E669C1BC
S1231F180922EFE669CB30E762C6CCD70CC67FD704E6E4E765E668E7643061E665E7E2E629
S1231F3865BD1F4132613266393440A6643384BDF37A35C03273E762AFE4E66258E763ECF4
S1231F58E4E764E6636C63E768E664E767E668E7E2E668BD1FB63261ECE41F894FE765E6B4
S1231F7863E76AE665E769E66AE7E2E66ABD1FB63261E662CB08E766E666E76CE66FE76BBA
S1231F98E66CE7E2E66CBD1FB63261C607E7E2C6F8BD1FB63261326D39A6627EF3DFA662E2
S1231FB87EF256A6627EF312327D6F606C604D2B066C60584920F8ED61EC656F656F66A37C
S1231FD8612406E3611CFE20021A0169666965646166626A6026E8326339FEE8FEB6808055
S1091FF800803F0001809F
S9030000FC
