S11F00006720474345203230323580FD0DF85018C067616D652064656D6F800018
S123005B327DE7616F62E661E1662C0CE666E061E168220E6C62200AE661E066E1682202FB
S123007B6C62E665E1672C0CE667E065E169220E6C62200AE665E067E16922026C626FE4A3
S112009BE662C1022604C601E7E4E6E4326339F3
S123001C8E0031271BCE005B33C9086E33C9000033C90000108EC880A6C0A7A0301F26F82C
S122003C8E0000270A108EC8B16FA0301F26FABD064C5D27068E0000BFCBFEBDF00039B8
S12300AA0010F0FF2010FFE010FFF020FFF0E0FFE0F0FF20F0FF10E0FF1020010000327B8C
S12300CAAF61BDF354C67FD704AE61E602E7E4AE61E601E764E6E4E763E664E7E2E664BDAD
S12300EA08B83261C622D7048E00AABDF410326539327AAF64AE64E602E7E4AE64E601E7AF
S123010A61F6C8ACE762F6C8ABE763C608E7E2C608E7E2E6623404E6643404E6663404E670
S123012A68BD005B32655D27098E0798BD07EC7FC8AA326639327D6F62201EE6624F1F01F9
S123014AAFE4ECE458495849EDE41E01E3E41E013089C880BD065C6C62E662C10123DC32ED
S123016A6339344032776F68160076E6684F1F01AF66EC6658495849ED66EC66308BAF667A
S123018AEE6630C9C880E6845D2654E6684F1F01AF64EC6458495849ED641E01E3641E0143
S12301AA3089C880BD0690E6684F1F01AF62EC6258495849ED621E01E3621E013089C880AC
S12301CABD00C8E6684F1F01AFE4ECE458495849EDE41E01E3E41E013089C880BD00FB6C2F
S11001EA68E668C1011023FF82326935C048
S12301F700E800FF18E8FF1818FFE818FFE8E8010000327BAF61BDF354C67FD704AE61E629
S123021702E7E4AE61E601E764E6E4E763E664E7E2E664BD08B83261C622D7048E01F7BD2E
S1230237F4103265393279AF65AE65E602E7E4AE65E601E761F6C8ACE762F6C8ABE763C6DC
S123025704E7E2C604E7E2E6623404E6643404E6663404E668BD005B32655D273D8E0790BA
S1230277BD07D8C601E7F805F6C8A6E764E6644F1F01E689C8A4E7E4E6E45CE7E4E6644F84
S12302971F01E6E4E789C8A4F6C8A85AF7C8A8F6C8A85D2605C602F7C8A7326739327D6F4A
S12302B762201EE6624F1F01AFE4ECE458495849EDE41E01E3E41E013089C88ABD065C6CBB
S12302D762E662C10323DC326339344032776F68160076E6684F1F01AF66EC6658495849E2
S12302F7ED66EC66308BAF66EE6630C9C88AE6845D2654E6684F1F01AF64EC64584958492C
S1230317ED641E01E3641E013089C88ABD0690E6684F1F01AF62EC6258495849ED621E01C2
S1230337E3621E013089C88ABD0209E6684F1F01AFE4ECE458495849EDE41E01E3E41E0133
S11803573089C88ABD023C6C68E668C1031023FF82326935C05D
S123036CC601F7C81FC603F7C8207FC8217FC822C603F7C8A0F6C89FF7C8A27FC8A47FC837
S123038CA5F6C89EC102260DC603F7C8A1F6C89FF7C8A320067FC8A17FC8A37FC8A639321E
S12303AC7B16006DBD0534BD05E2F6C8A7C1022622F6C8A6E761E6614F1F01E689C8A2E703
S12303CCE4E6E45CE7E4E6614F1F01E6E4E789C8A2203EF6C8A6E762E6624F1F01E689C8E5
S12303ECA0E7E4E6E45AE7E4E6624F1F01E6E4E789C8A0E6624F1F01E689C8A05D2603BD69
S123040C0446F6C89EE763F6C8A6E063505AF7C8A6F6C8A0E7E4F6C8A1E764E6E4EB645DDD
S123042C1026FF8032653947414D45204F5645528000504C4159455280003420327230E4D8
S123044CBDF84FF6C8A64F1F01E689C8A4E76830E4E668BD081031E48ECBEB341030A4BD26
S123046C08193262C696E767BDF1AFBEC8ADAF69AE69BD07C6BEC8AFAF6BAE6BBD07CFBD0C
S123048CF192BD0803BDF2A5C6C0E7E28E04335FBD079C3261C69CE7E28E043EC614BD07AE
S12304AC9C3261F6C8A65C3404C628E7E2C614BD08533262F6C8A64F1F01E689C8A0E76DCA
S12304CCC669E7E28EC0E2E66EBD084A3261BDF1BA6A676D67270AF6C811C4085D1027FF82
S12304EC87326E35A0327FC602E7E2C605BD08AF3261F6C879F7C89EF6C87AF7C89FF6C8F4
S11C050C0FC4085D270ABD036CBD03AB6FE42004C6FFE7E4E6E432613935
S12305254C4556454C8000504C415945528000327ABD02B4BD013FBD06FEC664E7E4BDF1ED
S1230545AFBEC8ADAF61AE61BD07C6BEC8AFAF63AE63BD07CFBDF192BD0803BDF1BABDF2FD
S1230565A5C69CE7E28E0525C63CBD079C3261F6C8A64F1F01E689C8A23404C628E7E2C694
S12305853CBD08533262C69CE7E28E052CC614BD079C3261F6C8A65C3404C628E7E2C6142A
S12305A5BD08533262F6C8A64F1F01E689C8A0E765C669E7E28EC0E2E666BD084A32616A10
S12305C5E46DE4270AF6C811C4085D1027FF6F7FC8A7C604F7C8A87FC8A9326639327B2062
S12305E55DBDF1AFBEC8ADAF61AE61BD07C6BEC8AFAF63AE63BD07CFBDF192BD0803BDF2BA
S1230605A5F6C8A64F1F01E689C8A43404C69CE7E2C678BD08533262BD02E1BD016CBD07A3
S12306257EF6C8A95CF7C8A9F6C8A9E7E4F6C8A64F1F01E689C8A2E1E426037FC8A9F6C88E
S1230645A75D279D326539327FBD04F1E7E46DE427F7E6E4326139327EAFE46FF4BD080A51
S1230665C47FCB40AEE4E701BD080AC47FCB40AEE4E702BD080AC403CBFEAEE4E703BD0871
S12306850AC4035AAEE4E704326239327CAF62F6C8A95D2720AE62E601E7E4AE62E603EB6C
S11B06A5E4AE62E701AE62E602E761AE62E604EB61AE62E7023264390F
S12306BD0020E0FF0040FFC000FF00C0FF4000010000327DBDF354C67FD704F6C8ACE7E414
S12306DDF6C8ABE762E6E4E761E662E7E2E662BD08B83261C622D7048E06BDBDF410326362
S12306FD39C601F7C8AA7FC8AB7FC8AC39327BC601E764BDF1F8F6C81C6FE45D2C04C6016C
S123071DE7E4E6E45D270AF6C8ABE064F7C8AB2019F6C81C6F615D2F04C601E761E6615D58
S123073D2708F6C8ABEB64F7C8ABF6C81B6F625D2C04C601E762E6625D270AF6C8ACE0647C
S123075DF7C8AC2019F6C81B6F635D2F04C601E763E6635D2708F6C8ACEB64F7C8AC3265F8
S123077D39BD070ABD06CFF6C8AA5D2605C601F7C8A739FEE8FEB6000C00802A00000132E6
S123079D79E762AFE4C6CCD70CC67FD704E662E766E669E765AEE4AF63E666E7E2AE64E66D
S12307BD66BD083F326132673934403384BDF92E35C034603384BDF68735E0327EAFE4BDAB
S12307DD082FAEE4BFC8AFC601F7C856326239327EAFE4BDF742BD0822AEE4BFC8ADC68024
S12307FDF7C8673262393440BDF28935C0BDF5171F893934401F98BDF85E35C03440EE64A1
S108081DBDF8D835C050
S12308227FC856BDF2728E08BDBFC8AF397FC8777FC867BDF2728E08C5BFC8AD393440A6C3
S1230842643384BDF37A35C03440A664BDF39335C03279E7E4C680E764C630E762C630E77F
S123086261200BE6615CE761E66ACB9CE76AE66AC16322EF200BE6625CE762E66ACBF6E75E
S12308826AE66AC10922EFE66ACB30E763C6CCD70CC67FD704E6E4E766E669E7653061E66A
S12308A266E7E2E666BD083F32613267393460A666BDF7A935E0A6627EF312FEE8FEB68097
S10A08C28000803F0001806B
S9030000FC
