S12300006720474345203230323580FD0DF85018AA45726C696E642053656A6469758000A7
S12300208E000E271BCE005F33C902D233C9000033C90000108EC880A6C0A7A0301F26F8E9
S12200408E0000270A108EC88E6FA0301F26FABD02475D27068E0000BFCBFEBDF00039E0
S123005FC601F7C81FC603F7C8207FC8217FC822C603F7C882C601F7C8847FC8867FC887B0
S123007FF6C880C102260CC603F7C883C601F7C88520067FC8837FC8857FC88839327B168D
S123009F006DBD0216BD021AF6C889C1022622F6C888E761E6614F1F01E689C884E7E4E620
S12300BFE45CE7E4E6614F1F01E6E4E789C884203EF6C888E762E6624F1F01E689C882E792
S12300DFE4E6E45AE7E4E6624F1F01E6E4E789C882E6624F1F01E689C8825D2603BD013704
S12300FFF6C880E763F6C888E063505AF7C888F6C882E7E4F6C883E764E6E4EB645D102698
S123011FFF8032653947414D45204F5645528000504C4159455280003420327230E4BDF869
S123013F4FF6C8884F1F01E689C886E76830E4E668BD029A31E48ECBEB341030A4BD02A3FE
S123015F3262C696E767BDF1AFBEC88AAF69AE69BD0281BEC88CAF6BAE6BBD028ABDF19294
S123017FBD0293BDF2A5C6C0E7E28E01245FBD02573261C69CE7E28E012FC614BD025732A1
S123019F61F6C8885C3404C628E7E2C614BD02C03262F6C8884F1F01E689C882E76DC6696C
S12301BFE7E28EC0E2E66EBD02B73261BDF1BA6A676D67270AF6C811C4085D1027FF8732A1
S12301DF6E35A0327FC602E7E2C605BD031C3261F6C879F7C880F6C87AF7C881F6C80FC4BE
S11A01FF085D270ABD005FBD009C6FE42004C6FFE7E4E6E43261393D
S12302167FC88939327C2020BDF1AFBEC88AAFE4AEE4BD0281BEC88CAF62AE62BD028ABDC2
S1230236F192BD0293BDF2A5F6C8895D27DA326439327FBD01E2E7E46DE427F7E6E432611F
S1230256393279E762AFE4C6CCD70CC67FD704E662E766E669E765AEE4AF63E666E7E2AE98
S123027664E666BD02AC326132673934403384BDF92E35C034603384BDF68735E03440BD15
S1190296F28935C034401F98BDF85E35C03440EE64BDF8D835C063
S12302AC3440A6643384BDF37A35C03440A664BDF39335C03279E7E4C680E764C630E762DE
S12302CCC630E761200BE6615CE761E66ACB9CE76AE66AC16322EF200BE6625CE762E66AC5
S12302ECCBF6E76AE66AC10922EFE66ACB30E763C6CCD70CC67FD704E6E4E766E669E765D5
S123030C3061E666E7E2E666BD02AC32613267393460A666BDF7A935E0FEE8FEB68080005F
S108032C803F00018088
S9030000FC
