S12300006720474345203230323580FD0DF85018B34E4555524F20564543544F5280008E76
S12300200065271BCE005E33C9066433C9000033C90000108EC880A6C0A7A0301F26F88EFD
S12100400028270A108EC8E56FA0301F26FABD048B5D27068E0000BFCBFEBDF00039AA
S123005EC601F7C81FC603F7C8207FC8217FC822C603F7C882C601F7C8847FC8867FC887B1
S123007EF6C880C102260CC603F7C883C601F7C88520067FC8837FC8857FC88839BD0194FF
S123009EBD04553947414D45204F5645528000504C4159455280003420327230E4BDF84F9C
S12300BEF6C8884F1F01E689C886E76830E4E668BD05F431E48ECBEB341030A4BD05FD32E3
S12300DE62C696E767BDF1AFBEC8E1AF69AE69BD05C4BEC8E3AF6BAE6BBD05CDBDF192BD51
S12300FE05E7BDF2A5C6C0E7E28E00A25FBD059A3261C69CE7E28E00ADC614BD059A3261A2
S123011EF6C8885C3404C628E7E2C614BD061A3262F6C8884F1F01E689C882E76DC669E709
S123013EE28EC0E2E66EBD06113261BDF1BA6A676D67270AF6C811C4085D1027FF87326E3D
S123015E35A0327FC601E7E2C603BD06763261F6C879F7C880F6C87AF7C881F6C80FC4084B
S119017E5D270ABD005EBD009B6FE42004C6FFE7E4E6E4326139C9
S1230194344032E8EF6F6F202AE66FE763BD05EE4F8E000934101F01BD05D632621F10E7C7
S12301B4E4E6E45CE762E6631D1F01E662E789C88A6C6FE66FC1132FD06FE8101601E1E6FC
S12301D4E8101D1F01E689C88AE764E664C109102201A5E6644FEDE4ECE45849CE01F93007
S12301F4CBAE846E84038C020D02390263028F02B902E1030B03370361E6E810E765E6656A
S12302141DEDE4ECE45849CEC8E530CBC6E2E784E6651DEDE4ECE45849CEC8E630CBC61ED9
S1230234E784160178E6E810E766E6661DEDE4ECE45849CEC8E530CB6F84E6661DEDE4EC47
S1230254E45849CEC8E630CBC61EE78416014EE6E810E767E6671DEDE4ECE45849CEC8E583
S123027430CBC61EE784E6671DEDE4ECE45849CEC8E630CBC61EE784160122E6E810E76844
S1230294E6681DEDE4ECE45849CEC8E530CBC6E2E784E6681DEDE4ECE45849CEC8E630CBEC
S12302B46F841600F8E6E810E769E6691DEDE4ECE45849CEC8E530CB6F84E6691DEDE4ECB7
S12302D4E45849CEC8E630CB6F841600D0E6E810E76AE66A1DEDE4ECE45849CEC8E530CBDD
S12302F4C61EE784E66A1DEDE4ECE45849CEC8E630CB6F841600A6E6E810E76BE66B1DED37
S1230314E4ECE45849CEC8E530CBC6E2E784E66B1DEDE4ECE45849CEC8E630CBC6E2E784AD
S123033416007AE6E810E76CE66C1DEDE4ECE45849CEC8E530CB6F84E66C1DEDE4ECE45862
S123035449CEC8E630CBC6E2E784160050E6E810E76DE66D1DEDE4ECE45849CEC8E530CBF2
S1230374C61EE784E66D1DEDE4ECE45849CEC8E630CBC6E2E7842025E6E810E76EE66E1DF1
S1230394EDE4ECE45849CEC8E530CB6F84E66E1DEDE4ECE45849CEC8E630CB6F846CE81019
S11403B4E6E810C113102FFE167FC88932E81135C03F
S12303C5327D6F62201EE6621D1F01AFE4ECE458495849EDE41E01E3E41E013089C8B4BD64
S12303E5050D6C62E662C1082FDC3263393440327D6F622013E6621DEDE4ECE45849CEC8C6
S1230405E530CBBD05606C62E662C1082FE7326335C054494D45204C4546548000344032B2
S12304257DC6C4E7E28E0417C650BD059A32616F622013E6621DEDE4ECE45849CEC89E3026
S1230445CBBD05606C62E662C10A2FE7326335C0327C2029BDF1AFBEC8E1AFE4AEE4BD0583
S1230465C4BEC8E3AF62AE62BD05CDBDF192BD05E7BDF2A5BD0422BD03C5BD03F2F6C889F8
S12304855D27D1326439327FBD0160E7E46DE427F7E6E4326139327EAFE46FF4BD05EEC476
S12304A57FCB40AEE4E701BD05EEC47FCB40AEE4E702BD05EEC403CBFEAEE4E703BD05EE4A
S12304C5C4035AAEE4E7043262390030D0FF0060FFA000FF00A0FF6000010000002020FF6C
S12304E5E0E0002000FFE020010000BDF354C67FD704C605E7E2C605BD067F3261C622D7FC
S1230505048E04CFBDF410393279AF63BDF354C67FD704AE63E601E7E4AE63E602E766E6A3
S1230525E4E765E666E7E2E666BD067F3261C622D7048E04CFBDF410AE63E601E761AE6316
S1230545E603EB61AE63E701AE63E602E762AE63E604EB62AE63E702326739327AAF62BD94
S1230565F354C67FD704E6F802E7E4E6E4CBFCE761AE62E601CBFCE765E661E764E665E7B9
S1230585E2E665BD067F3261C622D7048E04E1BDF4103266393279E762AFE4C6CCD70CC6C6
S12305A57FD704E662E766E669E765AEE4AF63E666E7E2AE64E666BD06063261326739342F
S12305C5403384BDF92E35C034603384BDF68735E0EC6226037EF0003410BD068432621F85
S12305E501393440BDF28935C0BDF5171F893934401F98BDF85E35C03440EE64BDF8D835B2
S1040605C030
S12306063440A6643384BDF37A35C03440A664BDF39335C03279E7E4C680E764C630E76280
S1230626C630E761200BE6615CE761E66ACB9CE76AE66AC16322EF200BE6625CE762E66A67
S1230646CBF6E76AE66AC10922EFE66ACB30E763C6CCD70CC67FD704E6E4E766E669E76577
S12306663061E666E7E2E666BD060632613267393460A666BDF7A935E0A6627EF312327D04
S12306866F606C604D2B066C60584920F8ED61EC656F656F66A3612406E3611CFE20021AA2
S11F06A60169666965646166626A6026E8326339FEE8FEB6808000803F00018089
S9030000FC
